:100000000C9464000C948C000C948C000C94D2041E
:100010000C94D2040C94D2040C948C000C948C009C
:100020000C948C000C948C000C948C000C948C0020
:100030000C948C000C948C000C948C000C948C0010
:100040000C946F0E0C948C000C9464110C9496110B
:100050000C948C000C948C000C948C000C948C00F0
:100060000C948C000C948C0000000008000201002D
:100070000003040700000000000000000102040863
:100080001020408001020408102001020408102002
:10009000040404040404040402020202020203032E
:1000A00003030303000000002300260029000000D2
:1000B0000000250028002B0000000000240027007D
:1000C0002A00D001C611DD0311241FBECFEFD8E0F6
:1000D000DEBFCDBF12E0A0E0B1E0EAEBF2E302C088
:1000E00005900D92AE3CB107D9F724E0AEECB2E03A
:1000F00001C01D92A833B207E1F710E0C6ECD0E0D2
:1001000004C02297FE010E946115C23CD107C9F7C5
:100110000E940A120C9450190C940000CF93DF93A4
:10012000EC0188E193E00E94F10640E060E088E1A4
:1001300093E00E94F80686E08C9FB0018D9F700DC1
:10014000112462537D4F88E193E00E94591241E0EF
:1001500060E088E193E00E94F806C230D105A1F08A
:100160003CF4209771F0219731F5E091FD0214C025
:10017000C430D10579F05CF02597E9F4E091FE02F6
:100180000BC0E091FC0208C0E091020305C0E091C1
:10019000000302C0E091FF02F0E0EE0FFF1FEC5FF2
:1001A000FC4F608171816E5F7F4F88E193E0DF914A
:1001B000CF910C945912DF91CF910895FC01E45036
:1001C000FD4F80818F5F8A3010F480830895108204
:1001D00008958230910599F02CF4009751F0019721
:1001E00059F0089584309105C1F084F00597C1F06D
:1001F000089580E090E016C081E090E013C086E0B2
:1002000090E00E94DE0087E090E00CC084E090E087
:100210000E94DE0085E090E005C083E090E002C02F
:1002200082E090E00C94DE000F931F93CF93DF9356
:100230000CEF12E0C0E0D0E0CE010E94D618F80129
:100240008A3010F4808301C0108221960F5F1F4F07
:10025000C830D10589F7DF91CF911F910F91089593
:100260000F931F93CF93DF9326E040E855E260E0C1
:1002700070E085E993E00E94021120E042E060E135
:1002800088E193E00E94120763E171E088E193E066
:100290000E94671280E393E00E94EA071AE0C0E040
:1002A000D0E0012F212F412FBE0180E393E00E9477
:1002B00061092196C830D105A1F780E393E00E943F
:1002C00047086CE370E080E090E00E94E80E165F63
:1002D000143029F70E941401809144039091450342
:1002E0000E94EC0C64EF71E080E090E0DF91CF9130
:1002F0001F910F910C94E80E0F931F93CF93DF93F0
:100300000CEF12E0C0E0D0E0F80161918F01CE0166
:100310000E94DE182196C830D105B1F7DF91CF9148
:100320001F910F9108950F931F93CF93DF9382EF47
:1003300092E00E94E909EC01CF3F8FEFD80741F02E
:10034000CE010E94E900CE010E948E000E947C0135
:100350000CEF12E0C0E0D0E0D801ED918D01F0E0AB
:10036000EE0FFF1FEC5FFC4F80819181DC01ED916E
:10037000FC910190F081E02D09959B01AC01BE013B
:1003800080E393E00E9493092196C830D10521F7BC
:1003900080E393E0DF91CF911F910F910C94470878
:1003A0006F927F928F929F92AF92BF92CF92EF9275
:1003B000FF920F931F93CF93DF93CDB7DEB72C97A8
:1003C0000FB6F894DEBF0FBECDBF8FE190E00E9464
:1003D00019127C0120E043E065E00E949E05F09246
:1003E0004703E092460382E090E00E9419127C01EC
:1003F00060914603709147030E941C0CF0924503E4
:10040000E092440323E042E068E070E080E393E0A0
:100410000E943C092CE0C22E3BE0E32E0AE029E0DA
:1004200048E067E088E193E00E94B0072FEF40E0EA
:1004300060E0CE0107960E94D50B6BE171E0CE0122
:1004400001960E94DE128BE090E00E9419127C015E
:100450004F81588569859E012F5F3F4F0E94EC0BAD
:10046000F0920503E0920403CE0101960E947012FF
:1004700020E040E06FEFCE0107960E94D50B60E2CE
:1004800071E0CE0101960E94DE128BE090E00E94A6
:1004900019127C014F81588569859E012F5F3F4F5E
:1004A0000E94EC0BF0920703E0920603CE01019646
:1004B0000E9470122FEF4FEF6FEFCE0107960E9450
:1004C000D50B69E271E0CE0101960E94DE128BE04D
:1004D00090E00E9419127C014F81588569859E0128
:1004E0002F5F3F4F0E94EC0BF0920903E09208034C
:1004F000CE0101960E9470122BE94FEF6FEFCE01F3
:1005000007960E94D50B64E271E0CE0101960E942D
:10051000DE128BE090E00E9419127C014F81588519
:1005200069859E012F5F3F4F0E94EC0BF0920B03F9
:10053000E0920A03CE0101960E94701220E04FEF74
:1005400060E0CE0107960E94D50B6FE271E0CE010C
:1005500001960E94DE128BE090E00E9419127C014D
:100560004F81588569859E012F5F3F4F0E94EC0B9C
:10057000F0920D03E0920C03CE0101960E947012DE
:100580002FEF40E060EACE0107960E94D50B65E3AD
:1005900071E0CE0101960E94DE128BE090E00E9495
:1005A00019127C014F81588569859E012F5F3F4F4D
:1005B0000E94EC0BF0920F03E0920E03CE01019625
:1005C0000E94701220E044E66FEFCE0107960E9471
:1005D000D50B6CE371E0CE0101960E94DE128BE038
:1005E00090E00E9419127C014F81588569859E0117
:1005F0002F5F3F4F0E94EC0BF0921103E09210032B
:10060000CE0101960E94701220E04FEF6FEFCE01F5
:1006100007960E94D50B63E471E0CE0101960E941B
:10062000DE128BE090E00E9419127C014F81588508
:1006300069859E012F5F3F4F0E94EC0BF0921303E0
:10064000E0921203CE0101960E9470126AE471E0FA
:10065000CE0101960E94DE122FEF4FEF6FEFCE0119
:100660000A960E94D50B20E040E06FEFCE0107967E
:100670000E94D50B8EE090E00E9419123C01AF80E1
:10068000B884C984EA84FB840C856091440370912A
:10069000450389E18F9384E68F93812C912C9E01F1
:1006A0002F5F3F4F40E050E0C3010E94630B709208
:1006B000150360921403CE0101960E9470126EE43D
:1006C00071E0CE0101960E94DE122FEF4FEF6FEF27
:1006D000CE010A960E94D50B20E040E06FEFCE01DC
:1006E00007960E94D50B8EE090E00E9419123C0103
:1006F000AF80B884C984EA84FB840C85609144038C
:10070000709145031F9280EA8F939E012F5F3F4FA8
:1007100041E050E0C3010E94630B709217036092A6
:100720001603CE0101960E94701202E010E026E04E
:1007300031E046E050E060E070E082EF92E00E943D
:10074000DB0964E571E08EEC92E00E94DE126AE45F
:1007500071E084ED92E00E94DE126FE571E08AEDB7
:1007600092E00E94DE1264E671E080EE92E00E9468
:10077000DE126EE471E086EE92E00E94DE1269E61F
:1007800071E08CEE92E00E94DE120F900F900F90BD
:100790000F902C960FB6F894DEBF0FBECDBFDF9141
:1007A000CF911F910F91FF90EF90CF90BF90AF909E
:1007B0009F908F907F906F900895CF93DF93C2EFBB
:1007C000D2E02697CE010E94701282E0CE3CD8077C
:1007D000C1F780E393E0DF91CF910C94D60720918D
:1007E0008A0330918B0328173907B9F49091480395
:1007F00080914903981789F0E0914803F0E0E65BA7
:10080000FC4F80812091480330E02F5F3F4F2F73D2
:1008100033272093480390E008958FEF9FEF0895CA
:100820001F93CF93DF93DC015C968D919C915D9734
:10083000009749F481E090E013969C938E93129771
:1008400080E090E03BC05196ED91FC91529750961C
:100850002C915097322F30951FB75E964C915E9732
:1008600041FB772770F941FD6095F894408177232B
:1008700011F0422B01C043234083EC012197F1F793
:1008800048E0508160FF02C0522B01C053235083C7
:10089000EC012197F1F76695415099F78081772314
:1008A00011F0832301C0822B80831FBF5C968D9142
:1008B0009C915D970197F1F781E090E0DF91CF91F6
:1008C0001F910895089520918A0330918B03281772
:1008D000390771F49091480380914903981741F0CA
:1008E000E0914803F0E0E65BFC4F808190E00895E2
:1008F0008FEF9FEF089520918A0330918B03281783
:10090000390771F4809149032091480390E0805C9D
:100910009F4F821B910960E470E00E940A150895C0
:1009200080E090E00895E0918A03F0918B03E8174E
:10093000F90769F4A389B4899C91858980958923F5
:100940008C9310928B0310928A0381E0089580E0CB
:100950000895CF93DF93EC018A8D9B8D892BF1F065
:1009600080918A0390918B038C179D07B9F00097B3
:1009700011F00E9493048E8D8E7F8E8F109249030A
:1009800010924803D0938B03C0938A03EB89FC89B0
:1009900080819D89892B808381E001C080E0DF9187
:1009A000CF9108951F920F920FB60F9211242F939B
:1009B0003F934F935F936F937F938F939F93AF93E7
:1009C000BF93EF93FF93E0918A03F0918B033097ED
:1009D00009F451C0868DA685B785958581FF04C031
:1009E0008C91892329F447C08C91892309F043C055
:1009F000A389B4899C918589809589238C93868964
:100A000097890197F1F7208D318DA685B78575857A
:100A100058E040E0C9010197F1F7842F90E09595E7
:100A20008795482F6C91672309F04068515091F7E2
:100A3000868D81FD40958091490390E001968F73EA
:100A4000992720914803281749F0A0914903B0E065
:100A5000A65BBC4F4C938093490303C0868D816095
:100A6000868F828D938D0197F1F7A389B4898C913C
:100A70009589892B8C93FF91EF91BF91AF919F91B5
:100A80008F917F916F915F914F913F912F910F9037
:100A90000FBE0F901F9018951F93CF93DF93EC011B
:100AA000162F6E8D6695617081E06827812F0E94F8
:100AB000E70F61E0812F0E94AE0F812F90E0FC01D3
:100AC000E458FF4FE491E88BFC01E057FF4FE491BD
:100AD000F0E0EE0FFF1FE255FF4F859194919A8B46
:100AE000898BDF91CF911F9108951F93CF93DF934F
:100AF000EC01162F60E0812F0E94AE0F8E8D81FDDC
:100B000004C061E0812F0E94E70F1C87812F90E0D5
:100B1000FC01E458FF4FE491ED87FC01E057FF4FE3
:100B2000E491F0E0EE0FFF1FEC55FF4F859194919B
:100B30009F878E87DF91CF911F910895FF920F932A
:100B40001F93CF93DF93EC01F62E522F1B821A8254
:100B500008EE13E020E030E00C831D832E833F83FA
:100B600089E791E0998388831F8A1E8A198E188EDF
:100B70001B8E1A8E1D8E1C8E8E8D8E7F50FB81F9E2
:100B80008E8F642FCE010E944C056F2DCE01DF9118
:100B9000CF911F910F91FF900C947505CF93DF9328
:100BA000EC019A01AB011B8E1A8E198E188E1F8ACA
:100BB0001E8A60E079E08DE390E00E944015C90153
:100BC0002430310520F0B9016350710902C061E0A1
:100BD00070E07D8F6C8FEC85E63108F068C0B9015C
:100BE000769567956431710518F06351710902C0FB
:100BF00061E070E07F8B6E8B069718F0C901059756
:100C000002C081E090E0998F888FC901880F991FF9
:100C1000820F931F96958795969587958D309105B0
:100C200010F00C9702C081E090E09B8F8A8F20919A
:100C30006800E83050F091E0EE3008F490E081E098
:100C400001C0880F9A95EAF701C084E0822B809357
:100C500068002C85283038F02E3040F0263148F4DA
:100C60008CE690E008C08DE690E005C08BE690E051
:100C700002C080E090E09C8B8B8B283030F481E0C8
:100C800001C0880F2A95EAF70DC0822F90E02E3020
:100C900010F4089701C00E9791E001C0990F8A9552
:100CA000EAF7892F8D8B8C8D9D8D0197F1F7CE0101
:100CB000DF91CF910C94A904CF93DF93EC0160E016
:100CC0008E810E94E70F81E090E00E94220F61E098
:100CD0008E810E94E70F81E090E00E94220F60E089
:100CE0008E810E94E70F84E690E0DF91CF910C9413
:100CF000220FEF92FF920F931F93CF93DF938C01FC
:100D0000C0E0D0E0E62EF12CB7010C2E02C07595A4
:100D100067950A94E2F76170F801EC0FFD1F878177
:100D20000E94E70F2196C430D10571F7C801DF9109
:100D3000CF911F910F91FF90EF900C945C06EF9272
:100D4000FF920F931F93CF93DF938C01C0E0D0E00D
:100D5000E62EF12CB7010C2E02C0759567950A940A
:100D6000E2F76170F801EC0FFD1F87810E94E70F29
:100D70002196C830D10571F7C801DF91CF911F913D
:100D80000F91FF90EF900C945C061F93CF93DF932D
:100D9000EC01162F642F8C810E94E70F8D818F3F0D
:100DA00019F060E00E94E70F8F85612F84FF06C075
:100DB000CE01DF91CF911F910C949F0670E084E0EB
:100DC000759567958A95E1F7CE010E947906612FA6
:100DD000CE01DF91CF911F910C94790640E00C94E5
:100DE000C50661E00E94EE0680ED97E00C94220FAC
:100DF000443008F043E0FC012389421710F04FEF24
:100E0000420FFC01E40FF11D2489260F2068622F98
:100E10000C94EE06FC016089262F2460208B6C6008
:100E20000C94EE060F931F93CF93DF93EC014230A7
:100E300018F08F8588608F874B8B1C8A80E48D8BA0
:100E40006E8B70E0605C7F4F6F8B222329F0413006
:100E500019F48F8584608F8761E08C810E94AE0FCA
:100E60008D818F3F19F061E00E94AE0F61E08E81AD
:100E70000E94AE0F00E010E08F8584FF03C088E081
:100E800090E002C084E090E00817190754F4FE01D6
:100E9000E00FF11F61E087810E94AE0F0F5F1F4FCF
:100EA000EBCF80E593EC0E94220F60E08C810E94E2
:100EB000E70F60E08E810E94E70F8D818F3F19F070
:100EC00060E00E94E70F6F8564FD1DC063E0CE0106
:100ED0000E94790684E991E10E94220F63E0CE012D
:100EE0000E94790684E991E10E94220F63E0CE011D
:100EF0000E94790686E990E00E94220F62E0CE010E
:100F00000E94790616C06062CE010E94EE0684E956
:100F100091E10E94220F6F856062CE010E94EE0671
:100F200086E990E00E94220F6F856062CE010E94E8
:100F3000EE066F856062CE010E94EE0684E0888B2B
:100F4000CE010E940A07CE010E94F10682E0898B41
:100F500066E0CE01DF91CF911F910F910C94EE06C8
:100F6000CF92EF920F93FC011382128289E891E0F5
:100F70009183808364838FEF8583468327830087F3
:100F8000E186C2861386148615861686178620E0AB
:100F900041E060E1CF010F91EF90CF900C941207E8
:100FA00041E00E94C50681E090E00895CF93DF9371
:100FB000EC0188859985009711F00E94FD158D81BF
:100FC00087FD05C060E0DF91CF910C94AE0FDF91FB
:100FD000CF910895CF93DF93EC018D8187FD07C0FA
:100FE00061E00E94AE0F60E08D810E94E70F81E01A
:100FF0008883DF91CF910895EF92FF920F931F9313
:10100000CF93DF93EC017B0188859985009711F0E0
:101010000E94FD158701000F111F0E0D1F1D1C835F
:101020000B83C8010E94651599878887009741F056
:10103000A80160E070E00E94A018FA82E98204C072
:101040001C821B821A821982DF91CF911F910F910E
:10105000FF90EF900895FC01668360FF04C081E07B
:101060008287138611C062FF06C081E0828782E01A
:10107000838714860895128663FF04C082E0838705
:1010800081E003C081E0838782E084870895CF9266
:10109000DF92EF92FF920F931F93CF93DF93CDB721
:1010A000DEB729970FB6F894DEBF0FBECDBF8C0117
:1010B000DC0118968D919C911997892B09F49BC09E
:1010C0000E94C50EF801C584D684E784F0886C19A7
:1010D0007D098E099F09623371058105910580F3B1
:1010E000F894838194819A838983A085B1857D0159
:1010F000EFEFEE1AFE0A8C918987D80116969C9123
:10110000169751960D90BC91A02DF801838991FFFF
:101110002EC09C91982B98879C91809589238F83D2
:101120008F818E8388E08D8358856F8149853D81CD
:101130002E8189819A81F7015C9347FD252F3A958D
:101140002C93262F39F0441F00C000006C93000040
:1011500000C0F2CF38E041916C930000019761F735
:10116000F801B28BA18B49873D832E8338C09C91B7
:10117000982B98879C91809589238F838F818C836E
:1011800088E08B8358856F8149853B812C818981DB
:101190009A81F7015C9347FD252F00C000C02C9376
:1011A00000C000C000C000C000C06C930000262F2B
:1011B0003A9541F0441F000000C000C000C000C0CC
:1011C00000C0E8CF38E0419100C06C9300C00197A7
:1011D00009F7F801B28BA18B49873B832C839A8353
:1011E000898378940E94C50ED8011D966D937D93D6
:1011F0008D939C93509729960FB6F894DEBF0FBE3F
:10120000CDBFDF91CF911F910F91FF90EF90DF90B5
:10121000CF9008951F93CF93DF93EC01162F888111
:10122000882331F08D8187FD03C060E00E94AE0FFE
:101230001D838881882341F061E0812F0E94AE0FD9
:1012400060E0812F0E94E70F812F90E0FC01E057C2
:10125000FF4FE491F0E0EE0FFF1FE255FF4F2591A5
:1012600034913A8B298BFC01E458FF4F84918B8B8E
:10127000DF91CF911F9108950F931F93CF93DF9329
:1012800000D0CDB7DEB78C01FC0110821782118629
:101290001086158616861786108A2A8349830E942F
:1012A000FC074981642FC8010E940A092A81622F24
:1012B000C8010F900F90DF91CF911F910F910C9467
:1012C0002B080F931F93FC01818192816817790786
:1012D00038F58781882361F0489FA0011124452FAC
:1012E000289F90011124232F089F80011124012F92
:1012F000DB01AA0FBB1FA60FB71F808591858A0F40
:101300009B1F3285DC01A30FB11D4C933385DC019B
:10131000A30FB11D2C932485FC01E20FF11D008366
:101320001F910F910895CF92DF92EF92FF920F934A
:101330001F93CF93DF93FC01818192816817790716
:1013400088F5CA01AA27BB27082FC32ED42EE52E65
:10135000FF241C2DD22FC781CC2361F08C9FC001AC
:101360001124092FCC9E600111241D2D2C9F90016A
:101370001124D32F9B01220F331F260F371F808587
:101380009185820F931F2285DC01A20FB11D0C9362
:101390002385DC01A20FB11D1C932485FC01E20F03
:1013A000F11DD083DF91CF911F910F91FF90EF90AE
:1013B000DF90CF9008950F931F93FC01718360839A
:1013C0005383428335832483178306831F910F91B0
:1013D0000895CF93DF93EC0188810E94680F2885E0
:1013E0003985232B09F56A817B8120E030E02617BF
:1013F0003707D4F4EC81FD81A901440F551FE40F98
:10140000F51F40815181FC01E41BF50BAF01F7FF93
:1014100003C0519541955109EE81FF81E417F5070D
:101420002CF42F5F3F4FE3CF2FEF3FEF9987888753
:10143000C901DF91CF9108952F923F924F926F9201
:101440007F928F92CF92DF92EF92FF920F931F9332
:10145000CF93DF93EC011A01462E3801822E0E94B1
:10146000D00BCE0103960E94D00B288239824A828B
:101470006B827C828D82FF82EE82D986C886DF9164
:10148000CF911F910F91FF90EF90DF90CF908F90B1
:101490007F906F904F903F902F900895FC01868130
:1014A0009781681779073CF020853185CB01261795
:1014B00037070CF4C90108954F925F926F927F92A3
:1014C0008F929F92AF92BF92CF92DF92EF92FF9254
:1014D0000F931F93CF93DF931F92CDB7DEB78C018D
:1014E000862EB90149830E944E0A3C01912CF801D5
:1014F000A680B7804981642F70E068197909882730
:1015000077FD8095982F0E9407146B017C01B30131
:101510006A197B09882777FD8095982F0E94071408
:101520002B013C01F801608571856A197B098827C8
:1015300077FD8095982F0E9407149B01AC01C30191
:10154000B2010E9471139B01AC01C701B6010E9458
:1015500093146B017C01B401882777FD8095982F47
:101560000E9407149B01AC01C701B6010E940D1334
:101570000E94D913862F0F90DF91CF911F910F9169
:10158000FF90EF90DF90CF90BF90AF909F908F90A3
:101590007F906F905F904F900895CF92DF92EF927F
:1015A000FF920F931F93CF93DF9300D01F92CDB77D
:1015B000DEB78C010E944E0A7C019C01F801458136
:1015C0006281C8010E945C0AC82E9701F80144811B
:1015D0006181C8010E945C0AD82E9701F8014381FD
:1015E0006081C8010E945C0A2C2D4D2D682FCE0110
:1015F00001960E94D50BCE0101960E94DA0B0F9046
:101600000F900F90DF91CF911F910F91FF90EF906E
:10161000DF90CF9008950F931F93CF93DF9300D067
:101620001F92CDB7DEB78C011A8219821B82FC0192
:101630008285938581309105D1F05CF4892B71F519
:10164000BE016F5F7F4FF801808591850E94DE0D9E
:1016500023C082309105A1F0039701F5BE016F5FB1
:101660007F4FF801808591850E94B10D15C0BE01A4
:101670006D5F7F4FF801808591850E94130E08C031
:10168000BE016D5F7F4FF801808591850E943C0E01
:101690002B8130E03A832983811108C069817A81E6
:1016A000F801848595850E94CD0A05C0F8018485DE
:1016B00095850E94DA0B0F900F900F90DF91CF91DC
:1016C0001F910F9108952F923F924F926F927F92A8
:1016D0008F929F92AF92BF92CF92DF92EF92FF9242
:1016E0000F931F93CF93DF93CDB7DEB729970FB634
:1016F000F894DEBF0FBECDBF3C017A83698317012A
:10170000402EAB82BC82CD82740181E991E0F3016D
:10171000819391938F016BEA71E0CF01288739871C
:101720004E835F830E94DE1287E991E0F30191838B
:10173000808389819A81918780874E815F815387D9
:10174000428728853985B901C8010E94F4128AE0D0
:1017500090E00E9419125C01CD8CDE8C0B811C8103
:101760002D81642DA1010E941C0AF301B586A48677
:1017700029960FB6F894DEBF0FBECDBFDF91CF9193
:101780001F910F91FF90EF90DF90CF90BF90AF909F
:101790009F908F907F906F904F903F902F900895E3
:1017A000FC011082118212820895FC016083418342
:1017B00022830895FC0120816181862F90E0A0E0C2
:1017C000B0E06627782F892F9A2F822B2281622BF7
:1017D000089508960C94DA0BAF92BF92CF92DF92E5
:1017E000EF920F931F93CF93DF93EC016A01E62EE4
:1017F000590181E991E0FE01819391938F016BEA98
:1018000071E0CF010E94DE128DE991E09983888317
:10181000CE0108960E94D00BC886D986EA86B5010B
:10182000C801DF91CF911F910F91EF90DF90CF9082
:10183000BF90AF900C94F412FC0171836083089503
:10184000CF93DF93EC0188819981DC01ED91FC91CC
:101850000680F781E02D099597FFF5CFDF91CF91B5
:1018600008954F925F926F927F928F929F92AF9264
:10187000BF92CF92DF92EF92FF920F931F93CF937D
:10188000DF9300D0CDB7DEB74C018A0169016983CF
:101890007A830E94200C69817A81D4018D919C9178
:1018A0000E9467126DE0F401808191810E946912AB
:1018B0000E94B90E2B013C01F8E24F0EF3E25F1ECD
:1018C000611C711CE12CF12CEC14FD0438F40E9415
:1018D000B90E6415750586059705F0F0F401808151
:1018E0009181EC14FD0460F06FE971E00E946712D1
:1018F0006CE271E080E090E00E94E80E82E059C066
:101900006FE971E00E9467126CE271E080E090E0A4
:101910000E94E80E81E04DC0D4018D919C91DC01C4
:10192000ED91FC910480F581E02D0995892B61F200
:101930005801AE0CBF1CD4018D919C91DC01ED913E
:10194000FC910680F781E02D09958E3351F4F50165
:1019500010826CEA71E0C8010E94BC18892B21F545
:1019600006C0D5018C93BFEFEB1AFB0AADCF6EEB2F
:1019700071E0C8010E94BC18892BC1F44CE050E012
:1019800066EC71E0C8010E94AE18892B89F48CE0E6
:10199000F801E80FF11D9081992321F03C97908385
:1019A0008F5FF6CF108204C084E003C085E001C0E1
:1019B00080E00F900F90DF91CF911F910F91FF90DA
:1019C000EF90DF90CF90BF90AF909F908F907F90DF
:1019D0006F905F904F9008950F931F93CF93DF9375
:1019E000CDB7DEB764970FB6F894DEBF0FBECDBF9C
:1019F0008C0140E855E260E070E0FC01808191815B
:101A00000E94CE0524E130E0AE014F5F5F4F63EDF1
:101A100071E0C8010E94310C24E130E0AE014F5F5B
:101A20005F4F69ED71E0C8010E94310C64960FB6FA
:101A3000F894DEBF0FBECDBFDF91CF911F910F9104
:101A40000895AF92BF92CF92DF92EF92FF920F93E1
:101A50001F93CF93DF93CDB7DEB7CB54D1090FB629
:101A6000F894DEBF0FBECDBF5A01690125E0E1EE5B
:101A7000F1E0DE01A95BBF4F01900D922A95E1F7DD
:101A8000FB01208122962FAF2297218123962FAF31
:101A9000239720E224962FAF2497F60120812596E4
:101AA0002FAF2597218126962FAF269727961FAE19
:101AB000279720E430E0AE014F5F5F4FBE016F5BC0
:101AC0007F4F0E94310C81113AC09981F5018081CC
:101AD000981334C09A818181981330C09C81F6019B
:101AE000808198132BC09D818181981327C05E014E
:101AF000F8E0AF0EB11C6801E00EF11ECE14DF0459
:101B0000D9F0F501319780812A968FAF2A97F50198
:101B100080812B968FAF2B9740E150E060E070E022
:101B2000CE01895B9F4F0E945617F60161936F01AA
:101B3000F3E0AF0EB11CE2CF80E001C083E0C55BF3
:101B4000DF4F0FB6F894DEBF0FBECDBFDF91CF9150
:101B50001F910F91FF90EF90DF90CF90BF90AF90CB
:101B60000895CF92DF92EF92FF920F931F93CF933E
:101B7000DF931F92CDB7DEB76B01EE24E394F12C17
:101B80008E010F5F1F4F2FEE31E049EE51E06CEEFA
:101B900071E00E94210D811107C0298130E0285297
:101BA0003109F601318320830F90DF91CF911F918E
:101BB0000F91FF90EF90DF90CF900895CF92DF923A
:101BC000EF92FF920F931F93CF93DF9300D0CDB787
:101BD000DEB76B01A2E0EA2EF12C8E010F5F1F4FE2
:101BE00024E032E049EE51E06CEE71E00E94210DFC
:101BF00081110EC0298130E0322F22279A81290FCE
:101C0000311D3595279535952795F601318320832C
:101C10000F900F90DF91CF911F910F91FF90EF9058
:101C2000DF90CF900895CF92DF92EF92FF920F93C3
:101C30001F93CF93DF931F92CDB7DEB76B01EE24D6
:101C4000E394F12C8E010F5F1F4F27E032E049EE45
:101C500051E06CEE71E00E94210D811103C0998169
:101C6000F60190830F90DF91CF911F910F91FF901C
:101C7000EF90DF90CF900895CF92DF92EF92FF9296
:101C80000F931F93CF93DF931F92CDB7DEB76B01F6
:101C9000EE24E394F12C8E010F5F1F4F2BE532E011
:101CA00049EE51E06CEE71E00E94210D482F811148
:101CB0000BC0298134E6239FC00111246FEF70E02F
:101CC0000E940A15F6016083842F0F90DF91CF9157
:101CD0001F910F91FF90EF90DF90CF9008951F928A
:101CE0000F920FB60F9211242F933F938F939F93D0
:101CF000AF93BF9380918D0390918E03A0918F033A
:101D0000B091900330918C0323E0230F2D3720F402
:101D10000196A11DB11D05C026E8230F0296A11D45
:101D2000B11D20938C0380938D0390938E03A09319
:101D30008F03B09390038091910390919203A091AF
:101D40009303B09194030196A11DB11D809391035B
:101D500090939203A0939303B0939403BF91AF9198
:101D60009F918F913F912F910F900FBE0F901F90D9
:101D700018952FB7F89460918D0370918E03809120
:101D80008F03909190032FBF08953FB7F8948091EF
:101D9000910390919203A0919303B091940326B57F
:101DA000A89B05C02F3F19F00196A11DB11D3FBF93
:101DB0006627782F892F9A2F620F711D811D911D23
:101DC00042E0660F771F881F991F4A95D1F7089543
:101DD0008F929F92AF92BF92CF92DF92EF92FF923B
:101DE0006B017C010E94C50E4B015C01C114D10442
:101DF000E104F104F1F00E940B130E94C50E681972
:101E000079098A099B09683E73408105910570F341
:101E100021E0C21AD108E108F10888EE880E83E0BB
:101E2000981EA11CB11CC114D104E104F10429F7CE
:101E3000DDCFFF90EF90DF90CF90BF90AF909F905D
:101E40008F9008958230910538F0880F991F880F80
:101E5000991F05970197F1F70895789484B58260EA
:101E600084BD84B5816084BD85B5826085BD85B53E
:101E7000816085BDEEE6F0E0808181608083E1E8ED
:101E8000F0E0108280818260808380818160808325
:101E9000E0E8F0E0808181608083E1EBF0E0808128
:101EA00084608083E0EBF0E0808181608083EAE7FA
:101EB000F0E0808184608083808182608083808183
:101EC000816080838081806880831092C100089542
:101ED0008E3008F08E5087702091120190E4299F77
:101EE00090011124822B80937C0080917A00806481
:101EF00080937A0080917A0086FDFCCF80917800F3
:101F00002091790090E0922B0895833081F028F49D
:101F1000813099F08230A1F008958730A9F088309F
:101F2000B9F08430D1F4809180008F7D03C080911E
:101F300080008F7780938000089584B58F7702C0EA
:101F400084B58F7D84BD08958091B0008F7703C0E4
:101F50008091B0008F7D8093B0000895CF93DF9380
:101F600090E0FC01E458FF4F2491FC01E057FF4F43
:101F70008491882349F190E0880F991FFC01E8546F
:101F8000FF4FA591B49182559F4FFC01C591D4910B
:101F90009FB7611108C0F8948C91209582238C938F
:101FA000888182230AC0623051F4F8948C91322FD8
:101FB000309583238C938881822B888304C0F89486
:101FC0008C91822B8C939FBFDF91CF9108950F93BB
:101FD0001F93CF93DF931F92CDB7DEB7282F30E04A
:101FE000F901E859FF4F8491F901E458FF4F14912A
:101FF000F901E057FF4F04910023C9F0882321F035
:1020000069830E94850F6981E02FF0E0EE0FFF1FCA
:10201000E255FF4FA591B4919FB7F8948C9161114F
:1020200003C01095812301C0812B8C939FBF0F901B
:10203000DF91CF911F910F9108950E948A18FC01A2
:10204000818D228D90E0805C9F4F821B91098F7360
:1020500099270895FC01918D828D981731F0828D1A
:10206000E80FF11D858D90E008958FEF9FEF0895A3
:10207000FC01918D828D981761F0828DDF01A80F90
:10208000B11D5D968C91928D9F5F9F73928F90E0B2
:1020900008958FEF9FEF08958CEB91E1892B49F024
:1020A00080E090E0892B29F00E94BC1181110C94F2
:1020B00000000895FC01848DDF01A80FB11DA35A13
:1020C000BF4F2C91848D90E001968F739927848F58
:1020D000A689B7892C93A089B1898C9180648C934F
:1020E000938D848D981306C00288F389E02D80813A
:1020F0008F7D80830895CF93DF93EC01888D8823B3
:10210000C9F0EA89FB89808185FD05C0A889B98964
:102110008C9186FD0FC00FB607FCF5CF808185FF3F
:10212000F2CFA889B9898C9185FFEDCFCE010E94AD
:102130005A10E7CFDF91CF910895CF92DF92FF92AF
:102140000F931F93CF93DF931F92CDB7DEB76C0130
:1021500081E0D60158968C9358975B969C915B973B
:102160005C968C915C97981307C05096ED91FC910A
:102170005197808185FD2EC0F601038D10E00F5F21
:102180001F4F0F731127F02EF601848DF81211C026
:102190000FB607FCF9CFD6015096ED91FC915197FF
:1021A000808185FFF1CFC60169830E945A10698141
:1021B000EBCF838DE80FF11DE35AFF4F6083D6010B
:1021C0005B960C935B975296ED91FC9153978081AF
:1021D00080620CC0D6015696ED91FC9157976083B2
:1021E0005096ED91FC91519780818064808381E0CD
:1021F00090E00F90DF91CF911F910F91FF90DF90B2
:10220000CF900895BF92CF92DF92EF92FF92CF933B
:10221000DF93EC016A017B01B22EE889F98982E043
:102220008083411581EE580761057105A1F060E0DA
:1022300079E08DE390E0A70196010E941E152150E0
:10224000310941095109569547953795279521152B
:1022500080E1380798F0E889F989108260E874E82D
:102260008EE190E0A70196010E941E1521503109D0
:10227000410951095695479537952795EC85FD8578
:102280003083EE85FF852083188EEC89FD89B0822E
:10229000EA89FB89808180618083EA89FB8980816A
:1022A00088608083EA89FB89808180688083EA89ED
:1022B000FB8980818F7D8083DF91CF91FF90EF90AC
:1022C000DF90CF90BF9008951F920F920FB60F929C
:1022D00011242F938F939F93EF93FF93E091A50386
:1022E000F091A6038081E091AB03F091AC0382FDF5
:1022F00012C090818091AE038F5F8F732091AF03E6
:10230000821751F0E091AE03F0E0EB56FC4F958F51
:102310008093AE0301C08081FF91EF919F918F91D7
:102320002F910F900FBE0F901F9018951F920F9234
:102330000FB60F9211242F933F934F935F936F9398
:102340007F938F939F93AF93BF93EF93FF9385E911
:1023500093E00E945A10FF91EF91BF91AF919F912E
:102360008F917F916F915F914F913F912F910F903E
:102370000FBE0F901F90189585E993E00E941F10E3
:1023800021E0892B09F420E0822F08951092980310
:102390001092970388EE93E0A0E0B0E08093990359
:1023A00090939A03A0939B03B0939C0381EC92E0DB
:1023B000909396038093950385EC90E09093A2030D
:1023C0008093A10384EC90E09093A4038093A303F3
:1023D00080EC90E09093A6038093A50381EC90E0BD
:1023E0009093A8038093A70382EC90E09093AA03B4
:1023F0008093A90386EC90E09093AC038093AB03A9
:102400001092AE031092AF031092B0031092B1037A
:10241000089508950E942D0F0E9409120E94300114
:10242000CCE4D0E10E9493012097E1F30E944C108C
:10243000F9CF0C946515CF92DF92EF92FF920F9334
:102440001F93CF93DF937C016A01EB0100E010E062
:102450000C151D0571F06991D701ED91FC9101906A
:10246000F081E02DC7010995892B19F00F5F1F4FEF
:10247000EFCFC801DF91CF911F910F91FF90EF90A7
:10248000DF90CF9008956115710581F0DB010D900B
:102490000020E9F7AD0141505109461B570BDC0103
:1024A000ED91FC910280F381E02D099480E090E0B1
:1024B0000895DC01ED91FC91DB0114964D915C9146
:1024C00015976D917C910280F381E02D09940C9415
:1024D0004312DC01ED91FC910190F081E02D099413
:1024E000FC01808191810C94FD15CF93DF93EC0169
:1024F00088819981009711F00E94FD151982188238
:102500001D821C821B821A82DF91CF9108950F9346
:102510001F93CF93DF93EC018B016F5F7F4F888117
:1025200099810E948C16009731F0998388831B83D0
:102530000A8381E001C080E0DF91CF911F910F916C
:102540000895CF93DF93EC0188819981892B29F03D
:102550008A819B818617970760F4CE010E948712BB
:10256000882341F08C819D81892B19F4E881F981C0
:10257000108281E0DF91CF910895EF92FF920F9347
:102580001F93CF93DF93EC017B018A01BA010E9474
:10259000A112811104C0CE010E94751207C01D83D3
:1025A0000C83B701888199810E94A718CE01DF9121
:1025B000CF911F910F91FF90EF900895FC01118230
:1025C000108213821282158214826115710559F0EE
:1025D000FB0101900020E9F7AF0141505109461B72
:1025E000570B0C94BD120895CF93DF93EC01FB01C0
:1025F0008617970761F0608171816115710529F077
:10260000448155810E94BD1202C00E947512CE0104
:10261000DF91CF91089508955058BB27AA270ED077
:1026200048C139D130F03ED120F031F49F3F11F450
:102630001EF42EC10EF4E095E7FB24C1E92F4AD128
:1026400080F3BA17620773078407950718F071F4CF
:102650009EF562C10EF4E0950B2EBA2FA02D0B0152
:10266000B90190010C01CA01A0011124FF27591BD7
:1026700099F0593F50F4503E68F11A16F040A22FDD
:10268000232F342F4427585FF3CF4695379527954E
:10269000A795F0405395C9F77EF41F16BA0B620B4D
:1026A000730B840BBAF09150A1F0FF0FBB1F661F94
:1026B000771F881FC2F70EC0BA0F621F731F841FD7
:1026C00048F4879577956795B795F7959E3F08F0FD
:1026D000B3CF9395880F08F09927EE0F97958795BC
:1026E00008950CD0E6C0DED040F0D5D030F021F413
:1026F0005F3F19F0C7C0511110C1CAC0EBD098F3A9
:102700009923C9F35523B1F3951B550BBB27AA2772
:1027100062177307840738F09F5F5F4F220F331FE4
:10272000441FAA1FA9F333D00E2E3AF0E0E830D0B0
:1027300091505040E695001CCAF729D0FE2F27D0B3
:10274000660F771F881FBB1F261737074807AB0781
:10275000B0E809F0BB0B802DBF01FF2793585F4FF6
:102760002AF09E3F510568F08DC0D7C05F3FECF363
:10277000983EDCF3869577956795B795F7959F5FBB
:10278000C9F7880F911D9695879597F90895E1E00F
:10279000660F771F881FBB1F621773078407BA076E
:1027A00020F0621B730B840BBA0BEE1F88F7E095C9
:1027B000089598D088F09F5790F0B92F9927B75176
:1027C000A0F0D1F0660F771F881F991F1AF0BA95F5
:1027D000C9F712C0B13081F09FD0B1E008959CC01C
:1027E000672F782F8827B85F39F0B93FCCF38695EB
:1027F00077956795B395D9F73EF490958095709548
:1028000061957F4F8F4F9F4F0895E89409C097FBC4
:102810003EF490958095709561957F4F8F4F9F4FB7
:102820009923A9F0F92F96E9BB279395F6958795FB
:1028300077956795B795F111F8CFFAF4BB0F11F4BE
:1028400060FF1BC06F5F7F4F8F4F9F4F16C0882365
:1028500011F096E911C0772321F09EE8872F762F9B
:1028600005C0662371F096E8862F70E060E02AF0DC
:102870009A95660F771F881FDAF7880F96958795C8
:1028800097F9089597F99F6780E870E060E00895F0
:102890009FEF80EC089500240A9416161706180678
:1028A0000906089500240A94121613061406050654
:1028B0000895092E0394000C11F4882352F0BB0FE5
:1028C00040F4BF2B11F460FF04C06F5F7F4F8F4F48
:1028D0009F4F089557FD9058440F551F59F05F3F83
:1028E00071F04795880F97FB991F61F09F3F79F032
:1028F00087950895121613061406551FF2CF4695B4
:10290000F1DF08C0161617061806991FF1CF869535
:102910007105610508940895E894BB276627772719
:10292000CB0197F908950BD0C4CFB5DF28F0BADFFB
:1029300018F0952309F0A6CFABCF1124EECFCADF54
:10294000A0F3959FD1F3950F50E0551F629FF001C2
:10295000729FBB27F00DB11D639FAA27F00DB11D1B
:10296000AA1F649F6627B00DA11D661F829F2227A4
:10297000B00DA11D621F739FB00DA11D621F839F2B
:10298000A00D611D221F749F3327A00D611D231F01
:10299000849F600D211D822F762F6A2F11249F574F
:1029A00050408AF0E1F088234AF0EE0FFF1FBB1F72
:1029B000661F771F881F91505040A9F79E3F510511
:1029C00070F060CFAACF5F3FECF3983EDCF38695C2
:1029D00077956795B795F795E7959F5FC1F7FE2BBC
:1029E000880F911D9695879597F90895AA1BBB1B93
:1029F00051E107C0AA1FBB1FA617B70710F0A61BFF
:102A0000B70B881F991F5A95A9F780959095BC011F
:102A1000CD01089597FB072E16F4009407D077FD9B
:102A200009D00E94F61407FC05D03EF490958195DC
:102A30009F4F0895709561957F4F0895A1E21A2EDA
:102A4000AA1BBB1BFD010DC0AA1FBB1FEE1FFF1F52
:102A5000A217B307E407F50720F0A21BB30BE40BA2
:102A6000F50B661F771F881F991F1A9469F76095E9
:102A70007095809590959B01AC01BD01CF010895A3
:102A8000052E97FB1EF400940E94571557FD07D0A2
:102A90000E941E1507FC03D04EF40C945715509558
:102AA0004095309521953F4F4F4F5F4F089590953A
:102AB0008095709561957F4F8F4F9F4F0895EE0FD2
:102AC000FF1F0590F491E02D0994CF93DF9382309E
:102AD000910510F482E090E0E0913404F091350427
:102AE00020E030E0A0E0B0E0309739F14081518142
:102AF00048175907B8F04817590771F48281938134
:102B0000109729F013969C938E9312972CC0909354
:102B100035048093340427C02115310531F0421764
:102B2000530718F0A901DB0101C0EF019A01BD01B3
:102B3000DF010280F381E02DD7CF21153105F9F0B7
:102B4000281B390B2430310580F48A819B81611563
:102B5000710521F0FB019383828304C090933504B7
:102B600080933404FE01329644C0FE01E20FF31F4D
:102B70008193919322503109398328833AC020915F
:102B8000320430913304232B41F42091020130911F
:102B900003013093330420933204209100013091DB
:102BA00001012115310541F42DB73EB740910401D3
:102BB00050910501241B350BE0913204F091330450
:102BC000E217F307A0F42E1B3F0B2817390778F004
:102BD000AC014E5F5F4F2417350748F04E0F5F1F63
:102BE00050933304409332048193919302C0E0E008
:102BF000F0E0CF01DF91CF910895CF93DF9300975D
:102C000009F487C0FC01329713821282C091340408
:102C1000D0913504209781F420813181280F391F0C
:102C200080913204909133048217930779F5F093E1
:102C30003304E09332046DC0DE0120E030E0AE17D3
:102C4000BF0750F412964D915C9113979D01411569
:102C5000510509F1DA01F3CFB383A2834081518199
:102C6000840F951F8A179B0771F48D919C91119782
:102C7000840F951F02969183808312968D919C916B
:102C80001397938382832115310529F4F09335043A
:102C9000E09334043EC0D9011396FC93EE9312974F
:102CA0004D915D91A40FB51FEA17FB0779F4808160
:102CB0009181840F951F0296D90111969C938E9352
:102CC0008281938113969C938E931297E0E0F0E0BB
:102CD0008A819B81009719F0FE01EC01F9CFCE01AA
:102CE000029628813981820F931F209132043091FE
:102CF00033042817390769F4309729F41092350402
:102D00001092340402C013821282D0933304C09311
:102D10003204DF91CF910895A0E0B0E0E2E9F6E15E
:102D20000C940E19EC01CB01209719F40E94651543
:102D3000B8C0FE01E60FF71F9E0122503109E217CD
:102D4000F30708F4ACC0D9010D911C911197061737
:102D50001707B8F00530110508F49FC0A8014450CA
:102D600051094617570708F498C002501109061B6D
:102D7000170B019311936D937C93CF010E94FD1566
:102D80008CC05B01A01AB10A4E01800E911EA09169
:102D90003404B0913504612C712C60E070E0109720
:102DA00009F449C0A815B905C9F5ED90FC90119733
:102DB000670142E0C40ED11CCA14DB0478F147015C
:102DC0008A189B08640142E0C40ED11C1296BC9084
:102DD00012971396AC91B5E0CB16D10440F0B282B5
:102DE000A38391828082D9018D939C9309C00E5F49
:102DF0001F4F0E0D1F1DF90111830083EB2DFA2FBC
:102E00006115710531F0DB011396FC93EE93129777
:102E100044C0F0933504E09334043FC06D917C913D
:102E200011976616770608F43B01BD0112960D90C6
:102E3000BC91A02DB4CF6091320470913304681519
:102E40007905E9F468167906D0F4409100015091B3
:102E500001014115510541F44DB75EB76091040180
:102E600070910501461B570BE417F507C0F4F0936A
:102E70003304E0933204F901918380830EC00E94F1
:102E800065157C01009759F0A801BE010E949718B2
:102E9000CE010E94FD15C70104C0CE0102C080E032
:102EA00090E0CDB7DEB7EEE00C942A192F923F9256
:102EB0005F926F927F928F929F92AF92BF92CF92CA
:102EC000DF92EF92FF920F931F93CF93DF938B01CB
:102ED000EA016115710521F0DB018C9311969C9339
:102EE000209739F09E01225031092332310508F034
:102EF000FBC07C016701BFEFCB1ADB0A5601F7016B
:102F00006080862D90E00E948F18892B11F0760149
:102F1000F1CFFDE26F120AC0570182E0A80EB11C8A
:102F2000D70111966C90772473940BC0BBE26B129F
:102F300007C05701E2E0AE0EB11CD70111966C90AC
:102F4000712CCE018F7E892B89F4B0E36B1222C0E5
:102F5000F50180818F7D883541F56180F2E0AF0E0B
:102F6000B11C872D8260782EC0E1D0E0C830D10539
:102F7000F1F04CF4C230D10511F5C12CD12CE12C6B
:102F8000B0E4FB2E2FC0CA30D10531F0C031D105DD
:102F900021F115C0209751F7CAE0D0E0ACECCA2E61
:102FA000DC2CEC2CACE0FA2E1DC02097F9F6C8E022
:102FB000D0E0C12CD12CE12CF0E1FF2E13C060E059
:102FC00070E080E090E89E01442737FD4095542F43
:102FD0000E941E1569017A0105C0C12CD12CE12C7B
:102FE000E8E0FE2EF50160E020E030E0A9014E01AE
:102FF000AA2497FCA094BA2C1F0170ED572E560CF2
:10300000A9E0A51570F48FEB860D8A3118F499ECC0
:10301000592E06C08FE9860D8A3130F589EA582E7F
:10302000560C852D90E08C179D07F4F467FD18C0B1
:10303000C216D306E406F50680F0C501B4010E946D
:10304000EF189B01AC01250D311D411D511D213093
:1030500031054105B0E85B0710F06FEF01C061E09A
:103060003196D1016C90C8CF872D81700115110563
:1030700071F0662329F03197D801ED93FC9307C0D6
:1030800071FE19C03297D801ED93FC9314C067FF0D
:1030900012C0882329F020E030E040E050E804C06E
:1030A0002FEF3FEF4FEF5FE782E290E0909337041E
:1030B0008093360416C0882341F050954095309592
:1030C00021953F4F4F4F5F4F0CC057FF0AC082E220
:1030D00090E090933704809336042FEF3FEF4FEF4B
:1030E0005FE7B901CA0104C060E070E080E090E0F1
:1030F000DF91CF911F910F91FF90EF90DF90CF90D4
:10310000BF90AF909F908F907F906F905F903F9017
:103110002F90089581E090E0F8940C94501991114B
:103120005BC0803219F089508550D0F70895FB01BB
:10313000DC0102C001900D9241505040D8F7089533
:10314000DC0101C06D9341505040E0F70895FB0150
:10315000DC0101900D920020E1F70895FB01DC01F4
:103160004150504030F08D910190801919F40020A9
:10317000B9F7881B990B0895FB0151915523A9F0CC
:10318000BF01DC014D9145174111E1F759F4CD0123
:103190000190002049F04D9140154111C9F3FB0108
:1031A0004111EFCF81E090E001970895F999FECFAA
:1031B00092BD81BDF89A992780B50895262FF99977
:1031C000FECF1FBA92BD81BD20BD0FB6F894FA9A0A
:1031D000F99A0FBE01960895992788270895DB0173
:1031E0008F939F930E94FF18BF91AF91A29F800D74
:1031F000911DA39F900DB29F900D112408950E94E0
:103200004119A59F900DB49F900DA49F800D911D15
:10321000112408952F923F924F925F926F927F9266
:103220008F929F92AF92BF92CF92DF92EF92FF92D6
:103230000F931F93CF93DF93CDB7DEB7CA1BDB0B82
:103240000FB6F894DEBF0FBECDBF09942A88398827
:1032500048885F846E847D848C849B84AA84B9842E
:10326000C884DF80EE80FD800C811B81AA81B9813A
:10327000CE0FD11D0FB6F894DEBF0FBECDBFED014E
:103280000895A29FB001B39FC001A39F700D811D3F
:103290001124911DB29F700D811D1124911D08955F
:1032A00010E0C6ECD0E004C0FE010E946115229639
:0A32B000C83CD107C9F7F894FFCF1E
:1032BA00000038048000BF03D90347030002B802A4
:1032CA00F1030157656C636F6D6500426C756500AB
:1032DA00526564005265616C2057686974650047DD
:1032EA007265656E00507572706C65004F72616E22
:1032FA0067650059656C6C6F770052504D005370CA
:10330A00656564004675656C204C6576656C00548D
:10331A0072697000496E666F00456E67696E652056
:10332A0054656D70000000000010041B127B04EF4E
:10333A00036304620400000000D0071B12000000AF
:10334A00001D10000000000B0B00000000E90B58E4
:10335A0058585858585858580D0D0D00554E414256
:10336A004C4520544F20434F4E4E454354004E4F38
:10337A00204441544100534541524348494E472E47
:10338A002E2E004154204530004154205350203005
:10339A0000307830300030340034310030310030C1
:1033AA0035003036003037003038003039003041CF
:1033BA0000304200304300304400304500304600BF
:1033CA0031300031310031340031350031360031CD
:1033DA00370031380031390031410031420031467D
:1033EA0000323100323200323300323400323500DA
:1033FA003236003237003238003239003241003278
:10340A004200324300324400324500324600333033
:10341A0000333100333200333300333400333500A4
:10342A003336003337003338003339003341003341
:10343A0042003343003344003345003346003432FC
:10344A000034330034340034350034360034370065
:10345A0034380034390034410034420034430031F6
:10346A004500415449474E0041545256000000005D
:0E347A00009D101B121F1038102A107B10002E
:00000001FF
