:100000000C94DE000C9406010C9406010C9406017D
:100010000C9406010C9406010C9406010C94060144
:100020000C9406010C9406010C9406010C94060134
:100030000C9406010C9406010C9406010C94060124
:100040000C9434110C9406010C944B140C947D14F4
:100050000C9406010C9406010C9406010C94060104
:100060000C94A6040C940601330D300D640D640D40
:10007000640D640D280D9F0D1F0D9F0D3C0D300D5F
:10008000360D330D9F0D9F0D9F0D9F0D9F0D9F0DE5
:100090009F0D9F0D9F0D9F0D9F0D9F0D9F0D460D59
:1000A0009F0D460D9F0D9F0D9F0D9F0D9F0D9F0D49
:1000B0009F0D9F0D9F0D9F0D330D640D330D330D5F
:1000C0009F0D460D1F0D9F0D9F0D9F0D9F0D9F0DA9
:1000D0009F0D9F0D9F0D9F0D8B0D8B0D8B0D8B0D10
:1000E0009F0D9F0D4D0D330D950D330D300D330DBF
:1000F000330D330D330D330D330D460D460D9F0D6E
:100100009F0D9F0D330D9F0D9F0D9F0D9F0D9F0DFB
:100110009F0D460D9F0D330D300D7A0D550D9F0D22
:100120009F0D5B0D5B0D460D0000000800020100F5
:1001300000030407000000000000000001020408A2
:100140001020408001020408102001020408102041
:10015000040404040404040402020202020203036D
:100160000303030300000000250028002B0000000B
:100170000000240027002A004E414E494E495459A0
:10018000494E46CDCCCC3D0AD7233C17B7D1387762
:10019000CC2B329595E6241FB14F0A000020410078
:1001A00000C84200401C4620BCBE4CCA1B0E5AAEC2
:1001B000C59D74004F027904AD14D00311241FBEF5
:1001C000CFEFD8E0DEBFCDBF12E0A0E0B1E0EAE0C3
:1001D000FEE302C005900D92A237B107D9F724E0E3
:1001E000A2E7B2E001C01D92A135B207E1F711E02C
:1001F000CAEBD1E004C02297FE010E941118C43B53
:10020000D107C9F70E94F1140C94F81E0C94000059
:10021000CF93DF93EC018AEB92E00E94680640E006
:1002200060E08AEB92E00E946F0686E08C9FB0014E
:100230008D9F700D11246E587D4F8AEB92E00E94C5
:100240002A1541E060E08AEB92E00E946F06C2301E
:10025000D105A1F03CF4209771F0219731F5E091A0
:10026000A10214C0C430D10579F05CF02597E9F4FF
:10027000E091A2020BC0E091A00208C0E091A602AA
:1002800005C0E091A40202C0E091A302F0E0EE0FED
:10029000FF1FE855FD4F608171816E5F7F4F8AEBD4
:1002A00092E0DF91CF910C942A15DF91CF910895C0
:1002B000FC01E056FD4F80818F5F883010F4808311
:1002C0000895108208958230910599F02CF40097DA
:1002D00051F0019759F0089584309105C1F084F0F0
:1002E0000597C1F0089580E090E016C081E090E0AD
:1002F00013C086E090E00E94580187E090E00CC0B7
:1003000084E090E00E94580185E090E005C083E021
:1003100090E002C082E090E00C9458010F931F938C
:10032000CF93DF9300EA12E0C0E0D0E0CE010E945C
:10033000871CF801883010F4808301C01082219658
:100340000F5F1F4FC830D10589F7DF91CF911F9103
:100350000F9108950F931F93CF93DF930E948E0107
:1003600020E042E060E18AEB92E00E9489066CE1C5
:1003700071E08AEB92E00E94381580911201882387
:1003800061F182ED92E00E94610700EA12E0C0E0B4
:10039000D0E0D801ED918D01F0E0EE0FFF1FE855A0
:1003A000FD4F80819181DC01ED91FC910190F08104
:1003B000E02D09959B01AC01BE0182ED92E00E9407
:1003C000D8082196C830D10521F782ED92E0DF915F
:1003D000CF911F910F910C94BE07DF91CF911F9188
:1003E0000F9108950F931F93CF93DF9300EA12E0CC
:1003F000C0E0D0E0F80161918F01CE010E948F1C16
:100400002196C830D105B1F7DF91CF911F910F919F
:1004100008950F931F93CF93DF9386E992E00E9494
:10042000B510EC01CF3F8FEFD80741F0CE010E940D
:100430006301CE010E9408010E94F2018091120125
:10044000882341F100EA12E0C0E0D0E0D801ED914C
:100450008D01F0E0EE0FFF1FE855FD4F8081918187
:10046000DC01ED91FC910190F081E02D09959B015B
:10047000AC01BE0182ED92E00E94D8082196C830FE
:10048000D10521F782ED92E0DF91CF911F910F917D
:100490000C94BE07DF91CF911F910F910895CF92D9
:1004A000EF920F931F93CF93DF93CDB7DEB72997CA
:1004B0000FB6F894DEBF0FBECDBF23E046E068E084
:1004C00070E082ED92E00E94B3083CE0C32E4BE066
:1004D000E42E0AE029E048E067E08AEB92E00E941F
:1004E000270787E190E00E940015FC0180E292E07E
:1004F0009183808381E082831382168A158AF09328
:10050000B902E093B8022FEF40E060E0CE01079619
:100510000E94ED1064E271E0CE0101960E940B167C
:100520008BE090E00E9400158C014F815885698511
:100530009E012F5F3F4F0E9404111093A902009368
:10054000A802CE0101960E949D1520E040E06FEFC9
:10055000CE0107960E94ED1069E271E0CE0101968E
:100560000E940B168BE090E00E9400158C014F81D9
:10057000588569859E012F5F3F4F0E94041110939B
:10058000AB020093AA02CE0101960E949D152FEFA7
:100590004FEF6FEFCE0107960E94ED1062E371E01E
:1005A000CE0101960E940B168BE090E00E94001590
:1005B0008C014F81588569859E012F5F3F4F0E94B6
:1005C00004111093AD020093AC02CE0101960E947B
:1005D0009D152BE94FEF6FEFCE0107960E94ED10AE
:1005E0006DE271E0CE0101960E940B168BE090E067
:1005F0000E9400158C014F81588569859E012F5FEF
:100600003F4F0E9404111093AF020093AE02CE013F
:1006100001960E949D1520E04FEF60E0CE01079605
:100620000E94ED1068E371E0CE0101960E940B1666
:100630008BE090E00E9400158C014F815885698500
:100640009E012F5F3F4F0E9404111093B10200934F
:10065000B002CE0101960E949D152FEF40E060EAA6
:10066000CE0107960E94ED106EE371E0CE01019677
:100670000E940B168BE090E00E9400158C014F81C8
:10068000588569859E012F5F3F4F0E94041110938A
:10069000B3020093B202CE0101960E949D1520E0A4
:1006A00044E66FEFCE0107960E94ED1065E471E01D
:1006B000CE0101960E940B168BE090E00E9400157F
:1006C0008C014F81588569859E012F5F3F4F0E94A5
:1006D00004111093B5020093B402CE0101960E945A
:1006E0009D1520E04FEF6FEFCE0107960E94ED10B1
:1006F0006CE471E0CE0101960E940B168BE090E055
:100700000E9400158C014F81588569859E012F5FDD
:100710003F4F0E9404111093B7020093B602CE011E
:1007200001960E949D1502E010E026E031E046E0CF
:1007300050E060E070E086E992E00E94A71063E577
:1007400071E082E792E00E940B166EE571E088E7A7
:1007500092E00E940B1662E671E08EE792E00E9442
:100760000B1667E671E084E892E00E940B166CE6D7
:1007700071E08AE892E00E940B1662E771E080E97E
:1007800092E00E940B1629960FB6F894DEBF0FBEBA
:10079000CDBFDF91CF911F910F91EF90CF90089532
:1007A000CF93DF93C6E9D2E02697CE010E949D1534
:1007B00082E0C237D807C1F782ED92E0DF91CF9196
:1007C0000C944D078091150390E020911603821B35
:1007D000910908952091160380911503281750F46C
:1007E000E22FF0E0E95EFC4F808190E02F5F2093E4
:1007F000160308958FEF9FEF0895E09116038091FF
:100800001503E81730F4F0E0E95EFC4F808190E0DA
:1008100008958FEF9FEF08950895CF92DF92EF92A2
:10082000FF920F931F93CF93DF937C01CB018A013B
:100830002091F202222389F0EB016B01C40ED51E38
:10084000CC15DD0569F06991D701ED91FC9101901E
:10085000F081E02DC7010995F3CF642F0E947D043C
:10086000C801DF91CF911F910F91FF90EF90DF9022
:10087000CF900895CF93DF931F92CDB7DEB76983F2
:100880002091F2022223D1F02091F302203240F095
:1008900021E030E0FC013383228380E090E015C04A
:1008A0008091F402E82FF0E0EB50FD4F99819083A6
:1008B0008F5F8093F4028093F30205C061E0CE0164
:1008C00001960E947D0481E090E00F90DF91CF912E
:1008D0000895FC011382128248EE53E060E070E05C
:1008E000448355836683778382E891E09183808394
:1008F000089586EE92E00C946904613298F4209198
:10090000A403243089F460935903FC018BE593E040
:10091000DC012A2F281B261718F421912D93F9CFDB
:1009200080E0089581E0089582E0089585ED809348
:10093000BC008091BC0084FDFCCF1092A4030895FC
:1009400085EC8093BC001092A40308951F920F922F
:100950000FB60F9211242F933F934F935F936F9392
:100960007F938F939F93AF93BF93EF93FF93809168
:10097000B900887F803609F49EC078F5883209F482
:100980005DC090F4803109F456C038F4882309F42E
:10099000F5C0883009F44FC0F5C0883109F44EC065
:1009A000803209F45FC0EEC0803409F46AC058F4A4
:1009B000803309F457C0883309F0E4C080933703CB
:1009C0000E94A004DFC0803509F44FC0883509F4C7
:1009D0005DC0883409F0D6C0D3C0883909F4C4C0DA
:1009E000A8F4883709F467C038F4883609F463C07E
:1009F000803709F460C0C6C0883809F4B5C08039B2
:100A000009F45FC0803809F0BDC05BC0803B09F4C9
:100A100083C038F4803A09F466C0883A09F47CC08F
:100A2000B1C0803C09F4A4C0883C09F4A1C0883B53
:100A300009F487C0A7C08091A30310C090917C03E4
:100A400080917B03981770F5E0917C0381E08E0F15
:100A500080937C03F0E0E358FC4F80818093BB00DF
:100A600085EC83C0809337038BC0E0917C0381E0E9
:100A70008E0F80937C038091BB00F0E0E358FC4F25
:100A8000808390917C0380917B036BC0E0917C0319
:100A900081E08E0F80937C038091BB00F0E0E358EF
:100AA000FC4F80838091A20381116AC081E0809312
:100AB000A10384EA5EC083E08093A403109238030C
:100AC000CFCF80913803803208F04EC0E0913803D8
:100AD00081E08E0F809338038091BB00F0E0E75CEB
:100AE000FC4F8083BDCF0E94A004809138038032E8
:100AF00030F4E0913803F0E0E75CFC4F1082609145
:100B0000380370E0E0919D03F0919E0389E393E048
:100B100009951092380336C084E08093A4031092A4
:100B20005A0310925903E0919F03F091A003099595
:100B300080915903811105C081E08093590310927F
:100B40005B03E0915A0381E08E0F80935A03F0E03B
:100B5000E55AFC4F80818093BB0090915A038091AD
:100B60005903981708F47CCF85E88093BC000AC02D
:100B700085EC8093BC001092A40304C0109237034C
:100B80000E949604FF91EF91BF91AF919F918F9139
:100B90007F916F915F914F913F912F910F900FBE79
:100BA0000F901F901895CF93DF93EC0160E08E813A
:100BB0000E94AC1281E090E00E94E71161E08E811A
:100BC0000E94AC1281E090E00E94E71160E08E810B
:100BD0000E94AC1284E690E0DF91CF910C94E71173
:100BE000EF92FF920F931F93CF93DF938C01C0E09E
:100BF000D0E0E62EF12CB7010C2E02C0759567955A
:100C00000A94E2F76170F801EC0FFD1F87810E94E2
:100C1000AC122196C430D10571F7C801DF91CF9194
:100C20001F910F91FF90EF900C94D305EF92FF92DC
:100C30000F931F93CF93DF938C01C0E0D0E0E62E9B
:100C4000F12CB7010C2E02C0759567950A94E2F756
:100C50006170F801EC0FFD1F87810E94AC12219694
:100C6000C830D10571F7C801DF91CF911F910F9165
:100C7000FF90EF900C94D3051F93CF93DF93EC017B
:100C8000162F642F8C810E94AC128D818F3F19F03A
:100C900060E00E94AC128F85612F84FF06C0CE01F8
:100CA000DF91CF911F910C94160670E084E075954A
:100CB00067958A95E1F7CE010E94F005612FCE017C
:100CC000DF91CF911F910C94F00540E00C943C060D
:100CD00061E00E94650680ED97E00C94E7114430D6
:100CE00008F043E0FC012389421710F04FEF420F58
:100CF000FC01E40FF11D2489260F2068622F0C945B
:100D00006506FC016089262F2460208B6C600C94A2
:100D100065060F931F93CF93DF93EC01423018F0D9
:100D20008F8588608F874B8B1C8A80E48D8B6E8BC0
:100D300070E0605C7F4F6F8B222329F0413019F403
:100D40008F8584608F8761E08C810E9473128D8112
:100D50008F3F19F061E00E94731261E08E810E9462
:100D6000731200E010E08F8584FF03C088E090E0FC
:100D700002C084E090E00817190754F4FE01E00F68
:100D8000F11F61E087810E9473120F5F1F4FEBCF4D
:100D900080E593EC0E94E71160E08C810E94AC1228
:100DA00060E08E810E94AC128D818F3F19F060E06F
:100DB0000E94AC126F8564FD1DC063E0CE010E94ED
:100DC000F00584E991E10E94E71163E0CE010E9401
:100DD000F00584E991E10E94E71163E0CE010E94F1
:100DE000F00586E990E00E94E71162E0CE010E94E2
:100DF000F00516C06062CE010E94650684E991E1AB
:100E00000E94E7116F856062CE010E94650686E947
:100E100090E00E94E7116F856062CE010E94650636
:100E20006F856062CE010E94650684E0888BCE01EA
:100E30000E948106CE010E94680682E0898B66E0EE
:100E4000CE01DF91CF911F910F910C946506CF9247
:100E5000EF920F93FC011382128282E991E0918359
:100E6000808364838FEF8583468327830087E186B1
:100E7000C2861386148615861686178620E041E002
:100E800060E1CF010F91EF90CF900C94890641E083
:100E90000E943C0681E090E00895CF93DF93EC013F
:100EA00088859985009711F00E94C7188D8187FD6C
:100EB00005C060E0DF91CF910C947312DF91CF9168
:100EC0000895CF93DF93EC018D8187FD07C061E02A
:100ED0000E94731260E08D810E94AC1281E08883D1
:100EE000DF91CF910895EF92FF920F931F93CF93CD
:100EF000DF93EC017B0188859985009711F00E94B2
:100F0000C7188701000F111F0E0D1F1D1C830B83B7
:100F1000C8010E942F1899878887009741F0A8017F
:100F200060E070E00E94581AFA82E98204C01C82D4
:100F30001B821A821982DF91CF911F910F91FF902E
:100F4000EF900895FC01668360FF04C081E0828712
:100F5000138611C062FF06C081E0828782E083872A
:100F600014860895128663FF04C082E0838781E0BF
:100F700003C081E0838782E084870895CF92DF9267
:100F8000EF92FF920F931F93CF93DF93CDB7DEB70E
:100F900029970FB6F894DEBF0FBECDBF8C01DC01E0
:100FA00018968D919C911997892B09F49BC00E94EA
:100FB0008A11F801C584D684E784F0886C197D090C
:100FC0008E099F09623371058105910580F3F894BC
:100FD000838194819A838983A085B1857D01EFEF18
:100FE000EE1AFE0A8C918987D80116969C91169765
:100FF00051960D90BC91A02DF801838991FF2EC0D0
:101000009C91982B98879C91809589238F838F81C1
:101010008E8388E08D8358856F8149853D812E813F
:1010200089819A81F7015C9347FD252F3A952C938E
:10103000262F39F0441F00C000006C93000000C050
:10104000F2CF38E041916C930000019761F7F8010D
:10105000B28BA18B49873D832E8338C09C91982BFE
:1010600098879C91809589238F838F818C8388E0DA
:101070008B8358856F8149853B812C8189819A8139
:10108000F7015C9347FD252F00C000C02C9300C0E2
:1010900000C000C000C000C06C930000262F3A952D
:1010A00041F0441F000000C000C000C000C000C0EC
:1010B000E8CF38E0419100C06C9300C0019709F778
:1010C000F801B28BA18B49873B832C839A83898358
:1010D00078940E948A11D8011D966D937D938D930B
:1010E0009C93509729960FB6F894DEBF0FBECDBFE4
:1010F000DF91CF911F910F91FF90EF90DF90CF90F4
:1011000008951F93CF93DF93EC01162F88818823D6
:1011100031F08D8187FD03C060E00E9473121D8352
:101120008881882341F061E0812F0E94731260E082
:10113000812F0E94AC12812F90E0FC01E05BFE4FFA
:10114000E491F0E0EE0FFF1FEC59FE4F2591349132
:101150003A8B298BFC01E45CFE4F84918B8BDF91F1
:10116000CF911F9108950F931F93CF93DF9300D0DA
:10117000CDB7DEB78C01FC01108217821186108674
:10118000158616861786108A2A8349830E9473075C
:101190004981642FC8010E9481082A81622FC801F9
:1011A0000F900F90DF91CF911F910F910C94A20798
:1011B000CF92DF92EF92FF920F931F93CF93DF9323
:1011C000FC01818192816817790788F5CA01AA27F5
:1011D000BB27082FC32ED42EE52EFF241C2DD22F83
:1011E000C781CC2361F08C9FC0011124092FCC9EB4
:1011F000600111241D2D2C9F90011124D32F9B01E0
:10120000220F331F260F371F80859185820F931F72
:101210002285DC01A20FB11D0C932385DC01A20FF6
:10122000B11D1C932485FC01E20FF11DD083DF91D9
:10123000CF911F910F91FF90EF90DF90CF90089585
:10124000FC018589968908950895CF92DF92EF92E7
:10125000FF920F931F93CF93DF931F92CDB7DEB70B
:101260006C017A01DC01ED91FC9102A4F3A5E02D63
:1012700029830995D601ED91FC9104A4F5A5E02DF3
:10128000C6010995D601ED91FC9100A4F1A5E02DD0
:1012900098014981B701C6010F90DF91CF911F914D
:1012A0000F91FF90EF90DF90CF9009940F931F93D1
:1012B000CF93DF9300D01F92CDB7DEB78C01698347
:1012C000D801ED91FC9100A0F1A1E02DC8014A8365
:1012D0005B830995D801ED91FC9102A0F3A1E02D6B
:1012E0004A815B81BE016F5F7F4FC80109950F90F6
:1012F0000F900F90DF91CF911F910F9108950F9351
:101300001F93CF93DF93CDB7DEB7A0970FB6F894B6
:10131000DEBF0FBECDBF8C01DC01ED91FC9102A4BC
:10132000F3A5E02D66E971E00995D801ED91FC91F6
:1013300000A4F1A5E02D28EE33E040E2BE016F5F8E
:101340007F4FC8010995A0960FB6F894DEBF0FBE77
:10135000CDBFDF91CF911F910F9108950F931F93F0
:10136000CF93DF93CDB7DEB7A0970FB6F894DEBF6B
:101370000FBECDBFDC01ED91FC910288F389E02D19
:1013800008E91AE320E2AE014F5F5F4F6AE971E0BE
:101390000995A0960FB6F894DEBF0FBECDBFDF91C2
:1013A000CF911F910F910895EF92FF920F931F938A
:1013B000CF93DF93CDB7DEB728970FB6F894DEBF93
:1013C0000FBECDBF8C011F926F93DC0112968C91E2
:1013D0001F928F9380EA91E09F938F93FE01319645
:1013E0007F01FF92EF930E94931AD801ED91FC9137
:1013F00002A4F3A5E02DB701C80109950FB6F89432
:10140000DEBF0FBECDBF28960FB6F894DEBF0FBE6D
:10141000CDBFDF91CF911F910F91FF90EF90089575
:101420005F926F927F928F929F92AF92BF92CF9274
:10143000DF92EF92FF920F931F93CF93DF93CDB77D
:10144000DEB7C358D1090FB6F894DEBF0FBECDBFCB
:101450007C01772E842E522E632E962EC62ED72EEA
:101460008E010F5F1F4FB80180EAA82E81E0B82ED1
:101470008C2D8919881558F5D6018D916D011F9213
:101480008F93F70182811F928F93BF92AF921F9328
:101490000F93CE57DF4F6883C258D040CD57DF4FF0
:1014A0007883C358D0400E94931A080F191F0FB6B3
:1014B000F894DEBF0FBECDBFCD57DF4F7881C35844
:1014C000D040CE57DF4F6881C258D040D1CFD7012E
:1014D000ED91FC9102A4F3A5E02DC7010995C52C5F
:1014E000D62C092D172DB12C802F89198815D0F4F1
:1014F000F80181918F01CF57DF4F8883C158D040C9
:10150000D701ED91FC9102A0F3A1E02DA601BE014F
:101510006F577F4FC70109958111B394B2E0CB0E8D
:10152000D11CE2CF8B2DCD57DF4F0FB6F894DEBF25
:101530000FBECDBFDF91CF911F910F91FF90EF9024
:10154000DF90CF90BF90AF909F908F907F906F90E3
:101550005F900895EF92FF920F931F93CF93DF93C5
:10156000CDB7DEB7A0970FB6F894DEBF0FBECDBFE4
:101570008C01CE0101967C016115710559F4D801E9
:10158000ED91FC9102A4F3A5E02D6AEA71E0C80197
:10159000099519C07F936F9382EB91E09F938F938E
:1015A000FF92EF920E94931AD801ED91FC9102A450
:1015B000F3A5E02DB701C80109950F900F900F908A
:1015C0000F900F900F90D801ED91FC9100A4F1A520
:1015D000E02D28E93AE340E2B701C80109958823E4
:1015E00041F06AEB71E0C7010E94711A21E0892B7A
:1015F00009F420E0822FA0960FB6F894DEBF0FBE4C
:10160000CDBFDF91CF911F910F91FF90EF90089583
:10161000FC01168A158A8EEA93E00C9429146F3720
:10162000C8F4EFEFE60F4E2F477020E830E002C01D
:10163000359527954A95E2F7F0E033E0F595E79583
:101640003A95E1F7E80FF91F9481922381E019F4AC
:1016500080E0089581E008956115710581F0DB0156
:101660000D900020E9F7AD0141505109461B570B81
:10167000DC01ED91FC910280F381E02D099480E082
:1016800090E008958EEA93E00C942C0BFC012191DC
:1016900030E080E090E02223F1F03430E4F44FEBCE
:1016A000420F463010F427500CC04FE9420F46302D
:1016B00010F4275206C0203261F040ED420F4A304C
:1016C00050F444E0880F991F4A95E1F72F70822B60
:1016D0003F5F2191E0CF0895CB010C94460BFC01B4
:1016E000208181819FEB920F963010F427500AC021
:1016F0009FE9920F963010F4275204C090ED920F9C
:101700009A30B8F49FEB980F963010F487500AC0C7
:101710009FE9980F963010F4875204C090ED980F0F
:101720009A3038F48F70F0E12F9F90011124822BB2
:10173000089580E00895CB010E946F0B24E6829FFC
:10174000C00111246FEF70E00E94BA17862F089530
:10175000CB010C946F0BCB010E946F0B90E088972C
:1017600008959F92AF92BF92CF92DF92EF92FF9235
:101770000F931F93CF93DF937C016B015A01922E3D
:10178000D701ED91FC9100A4F1A5E02D28EE33E006
:10179000492DB501C7010995882321F1CA2DDB2DFB
:1017A0006DEB71E0CE010E94711A8C01009741F33C
:1017B000E8012396CE010E946F0BD6019C919111F6
:1017C00001C08C93F60190818913EACFD70113965B
:1017D0001C92E8012596F8018581803209F7C8013D
:1017E000069602C080E090E0DF91CF911F910F91AB
:1017F000FF90EF90DF90CF90BF90AF909F900895B3
:101800000F931F93CF93DF93EB01242FDC01ED9116
:10181000FC910288F389E02D08E91AE3AB0161EC41
:1018200071E00995882319F167EC71E0CE010E94FF
:10183000711A0097E1F00A968C010F5F1F4FF801B3
:101840008081803251F4C80101960E946F0B888319
:10185000811121960D5F1F4FF2CF6AE370E0C8013E
:101860000E945F1A009741F7188281E001C080E072
:10187000DF91CF911F910F9108959F92AF92BF92E8
:10188000CF92DF92EF92FF920F931F93CF93DF934C
:10189000CDB7DEB7C954D1090FB6F894DEBF0FBE7D
:1018A000CDBF8C016B0188E0E4E1F1E0DE01AF5BCC
:1018B000BF4F01900D928A95E1F781E090E0D80149
:1018C00056969C938E9355977E01B1E4EB0EF11CD6
:1018D0005701E8E0AE0EB11CD7016D917D917D01FD
:1018E000D801ED91FC9102A4F3A5E02DC801099562
:1018F000D801ED91FC9100A4F1A5E02D28E93AE38F
:1019000040E4BE016F5F7F4FC8010995811104C09B
:10191000F801168A158A6BC062E370E080E090E0FF
:101920000E94AD11EA14FB04B9F6C114D10449F0C8
:10193000D801ED91FC910088F189E02DB601C80134
:10194000099580E1F8013496DF011D928A95E9F747
:101950005801912C2A969FAE2A97D801ED91FC91BF
:1019600000A0F1A1E02D692DC8010995D801ED91E4
:10197000FC9106A0F7A1E02D20E4AE014F5F5F4F80
:10198000BE01675B7F4FC8010995009749F16C0163
:10199000E12CF12CF60131978081803279F064E6F8
:1019A00070E080E090E00E94AD11B0E29B0EE4E0B8
:1019B000AE0EB11CF0E89F12CDCF12C0C6010E943E
:1019C0006F0BF501EE0DFF1D84838FEFE81AF80A07
:1019D000A3E0CA0ED11CB4E0EB16F104D9F6DFCFB8
:1019E00082E090E0F801968B858B138281E0C75BE3
:1019F000DF4F0FB6F894DEBF0FBECDBFDF91CF91A2
:101A00001F910F91FF90EF90DF90CF90BF90AF901C
:101A10009F9008950F931F93CF93DF93062FBA01E2
:101A200010E004501109DC01CD91DC910036110564
:101A300008F085C00C5C1F4FF8010C940F18E8A942
:101A4000F9A90995BC0176956795769567957CC04F
:101A5000EAA9FBA90995F3E08F9FB001112474C096
:101A6000ECA9FDA915C0EEA5FFA56BC0E8A9F9A9D1
:101A7000099564E670E016C0EAA9FBA90995869568
:101A8000282F30E0B901605471095EC0E8A9F9A9B6
:101A9000DF91CF911F910F910994E8A9F9A90995B8
:101AA00068EE73E00E94BA174FC0E8A9F9A909953A
:101AB00064E170E0F7CFEAA9FBA90995282F30E08F
:101AC000B9016D57710940C0EAA9FBA9099590E0D9
:101AD0008058910944E6489F9001499F300D112498
:101AE00037FF02C021583F4FB901660F672F661FAD
:101AF000770B2AC0E8A9F9A90995BC0180E090E01C
:101B000079568109910920E830E040E050E00E94D8
:101B1000F017B90119C0E8A9F9A909956AE070E0C0
:101B20000E94BA17685271090FC0E8A9F9A909956E
:101B30009C01A8ECB0E00E941518BC0105C0EAA900
:101B4000FBA90995682F70E0CB01DF91CF911F9120
:101B50000F910895FB012081822F992787FD909591
:101B6000C0970A9790F02D3281F06DE070E0CF01C0
:101B70000E945F1A009759F0FC013196DC01119622
:101B80002C912A3041F73196E6CFCF01089580E0BD
:101B900090E00895EF92FF920F931F93CF93DF93FE
:101BA000CDB7DEB7A0970FB6F894DEBF0FBECDBF9E
:101BB0007C01DC01ED91FC910288F389E02D08E9BC
:101BC0001AE320E2AE014F5F5F4F67EE71E00995C7
:101BD000882359F0BE016F5F7F4FC7010E94AA0D95
:101BE000009719F00E94251A03C060E070E0CB0155
:101BF000A0960FB6F894DEBF0FBECDBFDF91CF9198
:101C00001F910F91FF90EF900895EF92FF920F9325
:101C10001F93CF93DF93CDB7DEB7A0970FB6F8949D
:101C2000DEBF0FBECDBF7C01DC01ED91FC910288CF
:101C3000F389E02D08E91AE320E2AE014F5F5F4F20
:101C40006DEE71E009958823D1F0BE016F5F7F4F83
:101C5000C7010E94AA0D0097D1F00E94291A84584A
:101C60009F4CBC01882777FD8095982F0E94A7166E
:101C700020E030E04AEA53E40E943D1604C060E0F0
:101C800070E08AE794EC562F472F382F292F652FC5
:101C9000742F832F922FA0960FB6F894DEBF0FBE3D
:101CA000CDBFDF91CF911F910F91FF90EF900895DD
:101CB0008F929F92AF92BF92CF92DF92EF92FF925C
:101CC0000F931F93CF93DF93CDB7DEB7A0970FB6D7
:101CD000F894DEBF0FBECDBF7C014B015A016901F4
:101CE000DC01ED91FC910288F389E02D08E91AE30B
:101CF00020E2AE014F5F5F4F65EF71E00995811102
:101D000002C080E030C0BE016F5F7F4FC7010E94FC
:101D1000AA0D0097B1F37C01BFEFEB1AFB0A0E94FA
:101D2000291AF401918380836CE270E0C7010E945C
:101D30005F1A009731F37C01FFEFEF1AFF0AC7012A
:101D40000E94291AD5018D939C936CE270E0C70123
:101D50000E945F1A0097A9F201960E94291AF601C3
:101D60009183808381E0A0960FB6F894DEBF0FBE0A
:101D7000CDBFDF91CF911F910F91FF90EF90DF903A
:101D8000CF90BF90AF909F908F9008958F929F9229
:101D9000AF92BF92CF92DF92EF92FF920F931F9379
:101DA000CF93DF93CDB7DEB7A0970FB6F894DEBF21
:101DB0000FBECDBF7C014B015A016901DC01ED91E1
:101DC000FC910288F389E02D08E91AE320E2AE01D4
:101DD0004F5F5F4F6CEF71E00995811102C080E0A9
:101DE00030C0BE016F5F7F4FC7010E94AA0D0097F0
:101DF000B1F37C01BFEFEB1AFB0A0E94291AF40130
:101E0000918380836CE270E0C7010E945F1A0097A3
:101E100031F37C01FFEFEF1AFF0AC7010E94291A74
:101E2000D5018D939C936CE270E0C7010E945F1A0C
:101E30000097A9F201960E94291AF60191838083E6
:101E400081E0A0960FB6F894DEBF0FBECDBFDF9144
:101E5000CF911F910F91FF90EF90DF90CF90BF90A7
:101E6000AF909F908F9008950F931F93CF93DF9320
:101E7000CDB7DEB760970FB6F894DEBF0FBECDBF0B
:101E8000DC01ED91FC910288F389E02D08E91AE369
:101E900020E1AE014F5F5F4F64E072E0099560960C
:101EA0000FB6F894DEBF0FBECDBFDF91CF911F916B
:101EB0000F910895CF92DF92EF92FF920F931F93AD
:101EC000CF93DF93CDB7DEB7C054D1090FB6F894E6
:101ED000DEBF0FBECDBF8C017B016A01DC01ED913D
:101EE000FC9106A0F7A1E02D20E4AE014F5F5F4F0B
:101EF0000995009749F4C8010E94340FF8018381C5
:101F00008F5F838380E00AC0AC01D7016C91C80168
:101F10000E940A0DF6019183808381E0C05CDF4F4F
:101F20000FB6F894DEBF0FBECDBFDF91CF911F91EA
:101F30000F91FF90EF90DF90CF900895EF92FF9276
:101F40000F931F93CF93DF93CDB7DEB7A0970FB654
:101F5000F894DEBF0FBECDBF7C0126E040E056E91D
:101F600060E070E08EEA93E00E94C713C7010E9410
:101F7000340FD70154961C925497ED91FC9102882E
:101F8000F389E02D08EC10E020E2AE014F5F5F4FD7
:101F900068E072E0C70109958823B1F06DE072E056
:101FA000CE0101960E94711A009771F0FC01238501
:101FB00020538185880F8056982F990F990F980F7D
:101FC000290FD70154962C93A0960FB6F894DEBF34
:101FD0000FBECDBFDF91CF911F910F91FF90EF907A
:101FE0000895CF92DF92EF92FF92CF93DF93EC01AF
:101FF0006A017B0165E172E08EEA93E00E94381588
:102000002AE030E0B701A6018EEA93E00E94901525
:102010006DE08EEA93E00E943A1562E370E080E0A2
:1020200090E00E94AD118EEA93E00E94291426E010
:10203000B701A6018EEA93E00E94C713CE010E9469
:10204000340F81E0DF91CF91FF90EF90DF90CF9040
:1020500008954F925F926F927F929F92AF92BF923C
:10206000CF92DF92EF92FF920F931F93CF93DF9364
:102070005C01EB01E42E69010E947E112B013C0101
:10208000912CF12C81E0E81AF1088EEA93E00E948D
:10209000E412892B69F18EEA93E00E94FD1292E02E
:1020A000991510F48E33E9F1209701F1292D30E0D4
:1020B0002E153F0554F78E32A9F4A2E0A91590F42D
:1020C000AE01420F531FFA01319790819E3251F4B5
:1020D000319790819E3231F4912CF8E9CF2EFAE3BA
:1020E000DF2ED3CFFE01E20FF31F80839394CDCF79
:1020F0000E947E11641975098609970986012227B5
:1021000017FD2095322F061717072807390748F0C3
:10211000D501ED91FC9104A4F5A5E02DC50109952B
:10212000B4CF209719F0C90DD11D1882892DDF91E8
:10213000CF911F910F91FF90EF90DF90CF90BF90C4
:10214000AF909F907F906F905F904F9008950F9306
:102150001F93FC01718360835383428335832483FF
:10216000178306831F910F910895CF93DF93EC019E
:1021700088810E942D1228853985232B09F56A81D3
:102180007B8120E030E026173707D4F4EC81FD8115
:10219000A901440F551FE40FF51F40815181FC0137
:1021A000E41BF50BAF01F7FF03C0519541955109B1
:1021B000EE81FF81E417F5072CF42F5F3F4FE3CF4B
:1021C0002FEF3FEF99878887C901DF91CF9108955D
:1021D000FC011082118212820895FC016083418308
:1021E00022830895FC0120816181862F90E0A0E088
:1021F000B0E06627782F892F9A2F822B2281622BBD
:10220000089508960C94F210AF92BF92CF92DF928D
:10221000EF920F931F93CF93DF93EC016A01E62EA9
:1022200059018AE592E0FE01819391938F0166EE58
:1022300071E0CF010E940B1680E692E099838883BB
:10224000CE0108960E94E810C886D986EA86B501B4
:10225000C801DF91CF911F910F91EF90DF90CF9048
:10226000BF90AF900C9421161F920F920FB60F9251
:1022700011242F933F938F939F93AF93BF9380919C
:10228000A6039091A703A091A803B091A903309150
:10229000A50323E0230F2D3720F40196A11DB11DC6
:1022A00005C026E8230F0296A11DB11D2093A503AA
:1022B0008093A6039093A703A093A803B093A903C8
:1022C0008091AA039091AB03A091AC03B091AD03B0
:1022D0000196A11DB11D8093AA039093AB03A09317
:1022E000AC03B093AD03BF91AF919F918F913F919C
:1022F0002F910F900FBE0F901F9018952FB7F89445
:102300006091A6037091A7038091A8039091A903FF
:102310002FBF08953FB7F8948091AA039091AB0323
:10232000A091AC03B091AD0326B5A89B05C02F3F8B
:1023300019F00196A11DB11D3FBF6627782F892F87
:102340009A2F620F711D811D911D42E0660F771F4C
:10235000881F991F4A95D1F708958F929F92AF9247
:10236000BF92CF92DF92EF92FF926B017C010E94AD
:102370008A114B015C01C114D104E104F104F1F0B4
:102380000E9438160E948A11681979098A099B09E6
:10239000683E73408105910570F321E0C21AD108AF
:1023A000E108F10888EE880E83E0981EA11CB11C9C
:1023B000C114D104E104F10429F7DDCFFF90EF90BF
:1023C000DF90CF90BF90AF909F908F900895823014
:1023D000910538F0880F991F880F991F059701976D
:1023E000F1F70895789484B5826084BD84B58160E6
:1023F00084BD85B5826085BD85B5816085BDEEE60D
:10240000F0E0808181608083E1E8F0E010828081EB
:1024100082608083808181608083E0E8F0E0808159
:1024200081608083E1EBF0E0808184608083E0EB79
:10243000F0E0808181608083EAE7F0E08081846061
:1024400080838081826080838081816080838081BD
:10245000806880831092C10008958E3008F08E50FD
:1024600087702091130190E4299F90011124822B01
:1024700080937C0080917A00806480937A008091C0
:102480007A0086FDFCCF809178002091790090E061
:10249000922B0895833081F028F4813099F08230B6
:1024A000A1F008958730A9F08830B9F08430D1F4D4
:1024B000809180008F7D03C0809180008F77809312
:1024C0008000089584B58F7702C084B58F7D84BD68
:1024D00008958091B0008F7703C08091B0008F7D08
:1024E0008093B0000895CF93DF9390E0FC01E45C0B
:1024F000FE4F2491FC01E05BFE4F8491882349F15B
:1025000090E0880F991FFC01E259FE4FA591B4910C
:102510008C599E4FFC01C591D4919FB7611108C0A1
:10252000F8948C91209582238C93888182230AC011
:10253000623051F4F8948C91322F309583238C9330
:102540008881822B888304C0F8948C91822B8C9391
:102550009FBFDF91CF9108950F931F93CF93DF9388
:102560001F92CDB7DEB7282F30E0F901E85DFE4FAE
:102570008491F901E45CFE4F1491F901E05BFE4F98
:1025800004910023C9F0882321F069830E944A1234
:102590006981E02FF0E0EE0FFF1FEC59FE4FA5918F
:1025A000B4919FB7F8948C91611103C01095812369
:1025B00001C0812B8C939FBF0F90DF91CF911F9112
:1025C0000F9108950E94201AFC01818D228D90E0C8
:1025D000805C9F4F821B91098F7399270895FC019E
:1025E000918D828D981731F0828DE80FF11D858DC8
:1025F00090E008958FEF9FEF0895FC01918D828DFB
:10260000981761F0828DDF01A80FB11D5D968C9146
:10261000928D9F5F9F73928F90E008958FEF9FEF51
:10262000089583EA94E1892B49F080E090E0892BBA
:1026300029F00E94A31481110C9400000895FC015C
:10264000848DDF01A80FB11DA35ABF4F2C91848D3B
:1026500090E001968F739927848FA689B7892C9370
:10266000A089B1898C9180648C93938D848D98130B
:1026700006C00288F389E02D80818F7D80830895D4
:10268000CF93DF93EC01888D8823C9F0EA89FB8919
:10269000808185FD05C0A889B9898C9186FD0FC010
:1026A0000FB607FCF5CF808185FFF2CFA889B989E5
:1026B0008C9185FFEDCFCE010E941F13E7CFDF91F4
:1026C000CF910895CF92DF92FF920F931F93CF93F4
:1026D000DF931F92CDB7DEB76C0181E0D60158962B
:1026E0008C9358975B969C915B975C968C915C97CA
:1026F000981307C05096ED91FC915197808185FD0C
:102700002EC0F601038D10E00F5F1F4F0F731127CE
:10271000F02EF601848DF81211C00FB607FCF9CF28
:10272000D6015096ED91FC915197808185FFF1CFB4
:10273000C60169830E941F136981EBCF838DE80F67
:10274000F11DE35AFF4F6083D6015B960C935B97B4
:102750005296ED91FC915397808180620CC0D60116
:102760005696ED91FC91579760835096ED91FC91B0
:10277000519780818064808381E090E00F90DF91A9
:10278000CF911F910F91FF90DF90CF900895BF924E
:10279000CF92DF92EF92FF92CF93DF93EC016A0129
:1027A0007B01B22EE889F98982E08083411581EEB0
:1027B000580761057105A1F060E079E08DE390E0D4
:1027C000A70196010E94CE172150310941095109F4
:1027D0005695479537952795211580E1380798F04C
:1027E000E889F989108260E874E88EE190E0A70139
:1027F00096010E94CE172150310941095109569581
:10280000479537952795EC85FD853083EE85FF85C7
:102810002083188EEC89FD89B082EA89FB8980814A
:1028200080618083EA89FB89808188608083EA896E
:10283000FB89808180688083EA89FB8980818F7D24
:102840008083DF91CF91FF90EF90DF90CF90BF908A
:102850000895CF93DF93EC01E881F9810284F38539
:10286000E02D0995EA89FB8980818F7E8083EA8942
:10287000FB898081877F8083EA89FB8980818F77CC
:102880008083EA89FB8980818F7D80838A8D898F0F
:10289000DF91CF9108951F920F920FB60F921124DE
:1028A0002F938F939F93EF93FF93E091BE03F0914B
:1028B000BF038081E091C403F091C50382FD12C083
:1028C00090818091C7038F5F8F732091C803821717
:1028D00051F0E091C703F0E0E255FC4F958F8093F3
:1028E000C70301C08081FF91EF919F918F912F913C
:1028F0000F900FBE0F901F9018951F920F920FB65A
:102900000F9211242F933F934F935F936F937F9375
:102910008F939F93AF93BF93EF93FF938EEA93E0D0
:102920000E941F13FF91EF91BF91AF919F918F91E3
:102930007F916F915F914F913F912F910F900FBEBB
:102940000F901F9018958EEA93E00E94E41221E008
:10295000892B09F420E0822F08951092B103109280
:10296000B00388EE93E0A0E0B0E08093B2039093D0
:10297000B303A093B403B093B50386E692E09093BB
:10298000AF038093AE0385EC90E09093BB038093FC
:10299000BA0384EC90E09093BD038093BC0380EC79
:1029A00090E09093BF038093BE0381EC90E09093FE
:1029B000C1038093C00382EC90E09093C3038093A3
:1029C000C20386EC90E09093C5038093C4031092F9
:1029D000C7031092C8031092C9031092CA03089546
:1029E00008950E94F2110E94F0140E94AA01C1E110
:1029F000D3E10E9409022097E1F30E941113F9CF5D
:102A00000C942F18CF92DF92EF92FF920F931F93A7
:102A1000CF93DF937C016A01EB0100E010E00C151D
:102A20001D0571F06991D701ED91FC910190F08144
:102A3000E02DC7010995892B19F00F5F1F4FEFCFCC
:102A4000C801DF91CF911F910F91FF90EF90DF9020
:102A5000CF900895DC01ED91FC91DB0114964D912E
:102A60005C9115976D917C910280F381E02D099422
:102A70000C942C0BDC01ED91FC910190F081E02D88
:102A800009948F929F92AF92BF92DF92EF92FF9242
:102A90000F931F93CF93DF93CDB7DEB7A1970FB6F8
:102AA000F894DEBF0FBECDBF7C01F42FD52ECB0135
:102AB00019A2223008F42AE08E010F5D1F4F822EEA
:102AC000912CA12CB12C6F2F7D2DA50194010E947A
:102AD000CE17F22FD32ECA01015011096A3014F417
:102AE000E0E301C0E7E3E60FD801EC93232B242BAE
:102AF000252B49F7B801C7010E942C0BA1960FB6F0
:102B0000F894DEBF0FBECDBFDF91CF911F910F9123
:102B1000FF90EF90DF90BF90AF909F908F900895BF
:102B20002115310541F4DC01ED91FC910190F0811A
:102B3000E02D642F09940C944115FC018081918152
:102B40000C94C718CF93DF93EC018881998100978B
:102B500011F00E94C718198218821D821C821B82E4
:102B60001A82DF91CF9108950F931F93CF93DF9334
:102B7000EC018B016F5F7F4F888199810E9456190C
:102B8000009731F0998388831B830A8381E001C019
:102B900080E0DF91CF911F910F910895CF93DF9344
:102BA000EC0188819981892B29F08A819B81861784
:102BB000970760F4CE010E94B415882341F08C8100
:102BC0009D81892B19F4E881F981108281E0DF91E0
:102BD000CF910895EF92FF920F931F93CF93DF93BE
:102BE000EC017B018A01BA010E94CE15811104C05B
:102BF000CE010E94A21507C01D830C83B7018881F6
:102C000099810E946A1ACE01DF91CF911F910F9195
:102C1000FF90EF900895FC011182108213821282BE
:102C2000158214826115710559F0FB010190002095
:102C3000E9F7AF0141505109461B570B0C94EA15B7
:102C40000895CF93DF93EC01FB018617970761F09E
:102C5000608171816115710529F0448155810E945F
:102C6000EA1502C00E94A215CE01DF91CF9108950E
:102C70000895A8D008F481E008950CD0DEC0D6D025
:102C800040F0CDD030F021F45F3F19F0BFC05111BA
:102C900008C1C2C0E3D098F39923C9F35523B1F317
:102CA000951B550BBB27AA2762177307840738F0BB
:102CB0009F5F5F4F220F331F441FAA1FA9F333D01A
:102CC0000E2E3AF0E0E830D091505040E695001CCE
:102CD000CAF729D0FE2F27D0660F771F881FBB1F8A
:102CE000261737074807AB07B0E809F0BB0B802D64
:102CF000BF01FF2793585F4F2AF09E3F510568F0B0
:102D000085C0CFC05F3FECF3983EDCF386957795A6
:102D10006795B795F7959F5FC9F7880F911D9695B1
:102D2000879597F90895E1E0660F771F881FBB1F0D
:102D3000621773078407BA0720F0621B730B840BBA
:102D4000BA0BEE1F88F7E0950895E89409C097FB49
:102D50003EF490958095709561957F4F8F4F9F4F72
:102D60009923A9F0F92F96E9BB279395F6958795B6
:102D700077956795B795F111F8CFFAF4BB0F11F479
:102D800060FF1BC06F5F7F4F8F4F9F4F16C0882320
:102D900011F096E911C0772321F09EE8872F762F56
:102DA00005C0662371F096E8862F70E060E02AF097
:102DB0009A95660F771F881FDAF7880F9695879583
:102DC00097F90895990F0008550FAA0BE0E8FEEF58
:102DD00016161706E807F907C0F012161306E407DF
:102DE000F50798F0621B730B840B950B39F40A26D8
:102DF00061F0232B242B252B21F408950A2609F4B6
:102E0000A140A6958FEF811D811D089597F99F67B9
:102E100080E870E060E008959FEF80EC0895002462
:102E20000A941616170618060906089500240A942F
:102E300012161306140605060895092E0394000CB5
:102E400011F4882352F0BB0F40F4BF2B11F460FF44
:102E500004C06F5F7F4F8F4F9F4F089557FD90586D
:102E6000440F551F59F05F3F71F04795880F97FB4E
:102E7000991F61F09F3F79F0879508951216130608
:102E80001406551FF2CF4695F1DF08C01616170637
:102E90001806991FF1CF869571056105089408956C
:102EA000E894BB2766277727CB0197F908950BD0C5
:102EB000C4CFB5DF28F0BADF18F0952309F0A6CF0C
:102EC000ABCF1124EECFCADFA0F3959FD1F3950FBE
:102ED00050E0551F629FF001729FBB27F00DB11D9E
:102EE000639FAA27F00DB11DAA1F649F6627B00D2E
:102EF000A11D661F829F2227B00DA11D621F739F17
:102F0000B00DA11D621F839FA00D611D221F749F24
:102F10003327A00D611D231F849F600D211D822F6B
:102F2000762F6A2F11249F5750408AF0E1F08823B2
:102F30004AF0EE0FFF1FBB1F661F771F881F9150BF
:102F40005040A9F79E3F510570F060CFAACF5F3F78
:102F5000ECF3983EDCF3869577956795B795F795F2
:102F6000E7959F5FC1F7FE2B880F911D969587957A
:102F700097F90895AA1BBB1B51E107C0AA1FBB1FED
:102F8000A617B70710F0A61BB70B881F991F5A95F5
:102F9000A9F780959095BC01CD010895A1E21A2E64
:102FA000AA1BBB1BFD010DC0AA1FBB1FEE1FFF1FED
:102FB000A217B307E407F50720F0A21BB30BE40B3D
:102FC000F50B661F771F881F991F1A9469F7609584
:102FD0007095809590959B01AC01BD01CF0108953E
:102FE000052E97FB1EF400940E94071857FD07D08A
:102FF0000E94CE1707FC03D04EF40C94071850958E
:103000004095309521953F4F4F4F5F4F08959095D4
:103010008095709561957F4F8F4F9F4F0895EE0F6C
:10302000FF1F0590F491E02D0994A29FB001B39F7A
:10303000C001A39F700D811D1124911DB29F700DC1
:10304000811D1124911D08950E941518A59F900DB2
:10305000B49F900DA49F800D911D11240895CF93CE
:10306000DF938230910510F482E090E0E0914D040E
:10307000F0914E0420E030E0A0E0B0E0309739F16C
:103080004081518148175907B8F04817590771F422
:1030900082819381109729F013969C938E931297B7
:1030A0002CC090934E0480934D0427C02115310508
:1030B00031F04217530718F0A901DB0101C0EF01FD
:1030C0009A01BD01DF010280F381E02DD7CF2115E8
:1030D0003105F9F0281B390B2430310580F48A8141
:1030E0009B816115710521F0FB019383828304C0EC
:1030F00090934E0480934D04FE01329644C0FE012D
:10310000E20FF31F81939193225031093983288371
:103110003AC020914B0430914C04232B41F4209170
:1031200002013091030130934C0420934B04209111
:103130000001309101012115310541F42DB73EB751
:103140004091040150910501241B350BE0914B0483
:10315000F0914C04E217F307A0F42E1B3F0B281745
:10316000390778F0AC014E5F5F4F2417350748F000
:103170004E0F5F1F50934C0440934B0481939193E7
:1031800002C0E0E0F0E0CF01DF91CF910895CF934E
:10319000DF93009709F487C0FC01329713821282F3
:1031A000C0914D04D0914E04209781F4208131814B
:1031B000280F391F80914B0490914C04821793077C
:1031C00079F5F0934C04E0934B046DC0DE0120E0F0
:1031D00030E0AE17BF0750F412964D915C911397F3
:1031E0009D014115510509F1DA01F3CFB383A283A3
:1031F00040815181840F951F8A179B0771F48D912F
:103200009C911197840F951F02969183808312964B
:103210008D919C911397938382832115310529F415
:10322000F0934E04E0934D043EC0D9011396FC93F5
:10323000EE9312974D915D91A40FB51FEA17FB070E
:1032400079F480819181840F951F0296D90111969E
:103250009C938E938281938113969C938E93129765
:10326000E0E0F0E08A819B81009719F0FE01EC011B
:10327000F9CFCE01029628813981820F931F2091C8
:103280004B0430914C042817390769F4309729F41E
:1032900010924E0410924D0402C013821282D093F9
:1032A0004C04C0934B04DF91CF910895A0E0B0E0AF
:1032B000ECE5F9E10C94C51EEC01CB01209719F463
:1032C0000E942F18B8C0FE01E60FF71F9E01225082
:1032D0003109E217F30708F4ACC0D9010D911C9134
:1032E000119706171707B8F00530110508F49FC0AD
:1032F000A801445051094617570708F498C00250D6
:103300001109061B170B019311936D937C93CF0149
:103310000E94C7188CC05B01A01AB10A4E01800E32
:10332000911EA0914D04B0914E04612C712C60E06F
:1033300070E0109709F449C0A815B905C9F5ED90DA
:10334000FC901197670142E0C40ED11CCA14DB0443
:1033500078F147018A189B08640142E0C40ED11C31
:103360001296BC9012971396AC91B5E0CB16D1048F
:1033700040F0B282A38391828082D9018D939C9385
:1033800009C00E5F1F4F0E0D1F1DF9011183008331
:10339000EB2DFA2F6115710531F0DB011396FC93CB
:1033A000EE93129744C0F0934E04E0934D043FC057
:1033B0006D917C9111976616770608F43B01BD016B
:1033C00012960D90BC91A02DB4CF60914B047091DA
:1033D0004C0468157905E9F468167906D0F4409133
:1033E0000001509101014115510541F44DB75EB7FF
:1033F0006091040170910501461B570BE417F50716
:10340000C0F4F0934C04E0934B04F9019183808362
:103410000EC00E942F187C01009759F0A801BE0130
:103420000E944F1ACE010E94C718C70104C0CE01E6
:1034300002C080E090E0CDB7DEB7EEE00C94E11E74
:1034400081E090E0F8940C94F81E662777270C949E
:103450009D1CFC0188279927E89421912032E9F3EB
:10346000293010F02E30C8F32B3241F02D3239F4D0
:10347000689404C00E948B1A820F911D21912053E1
:103480002A30C0F31EF4909581959F4F08959111B5
:10349000B7C3803219F089508550D0F70895FB01E9
:1034A000DC0102C001900D9241505040D8F70895C0
:1034B000DC0101C06D9341505040E0F70895FC01DC
:1034C0008191861721F08823D9F79927089531979C
:1034D000CF010895FB01DC0101900D920020E1F77E
:1034E0000895FB0151915523A9F0BF01DC014D91D5
:1034F00045174111E1F759F4CD010190002049F041
:103500004D9140154111C9F3FB014111EFCF81E00D
:1035100090E0019708957AE0979F902D879F802DE6
:10352000910D11240895AEE0B0E0E9E9FAE10C94C0
:10353000CF1E0D891E8986E08C831A8309838FEF45
:103540009FE79E838D83AE01475E5F4F6F89788DC5
:10355000CE0101960E94B51AEF81F885E00FF11FA8
:1035600010822E96E4E00C94EB1EACE0B0E0EBEBA6
:10357000FAE10C94C11E7C016B018A01FC011782E7
:103580001682838181FFBDC1CE0101964C01F701F6
:103590009381F60193FD859193FF81916F018823BB
:1035A00009F4ABC1853239F493FD859193FF819184
:1035B0006F01853229F4B70190E00E94311EE7CFF8
:1035C000512C312C20E02032A0F48B3269F030F401
:1035D000803259F0833269F420612CC08D3239F089
:1035E000803339F4216026C02260246023C0286023
:1035F00021C027FD27C030ED380F3A3078F426FF80
:1036000006C0FAE05F9E300D1124532E13C08AE0ED
:10361000389E300D1124332E20620CC08E3221F4DE
:1036200026FD6BC1206406C08C3611F4206802C0F0
:10363000883641F4F60193FD859193FF81916F01E6
:103640008111C1CF982F9F7D9554933028F40C5F42
:103650001F4FFFE3F9830DC0833631F0833771F0DC
:10366000833509F05BC022C0F801808189830E5F39
:103670001F4F44244394512C540115C03801F2E0EB
:103680006F0E711CF801A080B18026FF03C0652D6C
:1036900070E002C06FEF7FEFC5012C870E94261EED
:1036A0002C0183012C852F77222E17C03801F2E0E0
:1036B0006F0E711CF801A080B18026FF03C0652D3C
:1036C00070E002C06FEF7FEFC5012C870E941B1EC8
:1036D0002C012C852068222E830123FC1BC0832D06
:1036E00090E048165906B0F4B70180E290E00E94DD
:1036F000311E3A94F4CFF50127FC859127FE819184
:103700005F01B70190E00E94311E31103A94F1E060
:103710004F1A51084114510471F7E5C0843611F075
:10372000893639F5F80127FF07C0608171818281F0
:1037300093810C5F1F4F08C060817181882777FDDE
:103740008095982F0E5F1F4F2F76B22E97FF09C0DE
:1037500090958095709561957F4F8F4F9F4F206812
:10376000B22E2AE030E0A4010E94631EA82EA81801
:1037700044C0853729F42F7EB22E2AE030E025C0E0
:10378000F22FF97FBF2E8F36C1F018F4883579F00B
:10379000B4C0803719F0883721F0AFC02F2F2061D7
:1037A000B22EB4FE0DC08B2D8460B82E09C024FF4C
:1037B0000AC09F2F9660B92E06C028E030E005C0F1
:1037C00020E130E002C020E132E0F801B7FE07C09E
:1037D00060817181828193810C5F1F4F06C060817F
:1037E000718180E090E00E5F1F4FA4010E94631E74
:1037F000A82EA818FB2DFF77BF2EB6FE0BC02B2DD1
:103800002E7FA51450F4B4FE0AC0B2FC08C02B2DC4
:103810002E7E05C07A2C2B2D03C07A2C01C0752C6E
:1038200024FF0DC0FE01EA0DF11D8081803311F4EB
:10383000297E09C022FF06C07394739404C0822FAE
:10384000867809F0739423FD13C020FF06C05A2C1C
:10385000731418F4530C5718732C731468F4B701CD
:1038600080E290E02C870E94311E73942C85F5CF66
:10387000731410F4371801C0312C24FF12C0B701A3
:1038800080E390E02C870E94311E2C8522FF17C018
:1038900021FF03C088E590E002C088E790E0B7010F
:1038A0000CC0822F867859F021FD02C080E201C051
:1038B0008BE227FD8DE2B70190E00E94311EA51436
:1038C00038F4B70180E390E00E94311E5A94F7CF9C
:1038D000AA94F401EA0DF11D8081B70190E00E94E5
:1038E000311EA110F5CF332009F451CEB70180E28B
:1038F00090E00E94311E3A94F6CFF70186819781BD
:1039000002C08FEF9FEF2C96E2E10C94DD1EF99937
:10391000FECF92BD81BDF89A992780B50895262FD4
:10392000F999FECF1FBA92BD81BD20BD0FB6F894A4
:10393000FA9AF99A0FBE01960895A0E0B0E0E3EA82
:10394000FCE10C94C71E8B016115710521F0DB01B0
:103950008C9311969C93EC015E01BFEFAB1ABB0AEE
:103960007501C8808C2D90E00E94471A892B11F0B8
:10397000E501F2CFEDE2CE1208C07E01F2E0EF0EDB
:10398000F11CC980DD24D39409C02BE2C21205C00A
:103990007E0142E0E40EF11CC980D12CE7012197A1
:1039A00043E050E060E871E0CE010E94031E892BE5
:1039B000C1F4239645E050E06BE771E0CE010E9430
:1039C000031E892B09F425960115110519F0D8015C
:1039D000CD93DC93D11006C160E070E080E89FE7F2
:1039E0000AC143E050E068E771E0CE010E94031E87
:1039F000892B59F40115110509F4F9C0B2E0EB0E59
:103A0000F11CF801F182E082F2C0F70160E070E0A1
:103A1000CB01C0E0D0E07F01A0EDAA2EAC0C29E0E4
:103A20002A1530F14D2D4260B42E2D2D2870D2FE76
:103A300004C0211125C0219623C021112197A5E0A2
:103A4000B0E09B01AC010E942418660F771F881F0D
:103A5000991F6A0D711D811D911D6839A9E97A07A9
:103A60008A07A9E19A0760F0BD2DB660BB2E08C099
:103A70002EEFA2120AC0D3FC50C04D2D4860B42EC8
:103A80003196D701CC90DB2CC6CF2C2D2F7D253441
:103A900009F043C0A081AD3241F4BD2DB061DB2EF1
:103AA0007F0122E0E20EF11C0CC07F01AB3231F04D
:103AB0004FEFE41AF40A21E030E006C0A2E0EA0E7B
:103AC000F11CA18122E030E0A053AA3018F0E21AE4
:103AD000F30A23C0F70120E030E02038BCE03B07C8
:103AE0005CF4A901440F551F440F551F240F351FC7
:103AF000220F331F2A0F311DAF014F5F5F4F7A0135
:103B0000A081A053AA3010F4FA01E7CFD4FE03C07D
:103B1000319521953109C20FD31FD1FE09C001157E
:103B2000110531F0E1E0EE1AF108D801ED92FC92B6
:103B30000E94A5162D2D2370233019F04B015C0136
:103B400006C04B015C01B7FAB094B7F8B09420E01E
:103B500030E0A901C501B4010E943916882309F497
:103B60003EC0D7FF06C0D195C195D10907E911E044
:103B700002C00FEA11E06801B8E1CB1AD10890E267
:103B8000E92EF12CCE15DF0574F0F8012591359161
:103B900045915491C501B4010E9457174B015C0136
:103BA000CE19DF09EFCF04501109F594E7940C15F5
:103BB0001D0541F78A2D880F8B2D881F8F3F49F0F7
:103BC00020E030E0A901C501B4010E94391681113D
:103BD00006C082E290E09093500480934F04C501A8
:103BE000B40109C060E070E080E89FEF04C060E0CD
:103BF00070E080EC9FE7CDB7DEB7ECE00C94E31EFD
:103C0000992788270895FB01DC014150504088F036
:103C10008D9181341CF08B350CF4805E659161349C
:103C20001CF06B350CF4605E861B611171F3990B0F
:103C30000895881BFCCFFC01059061507040011075
:103C4000D8F7809590958E0F9F1F0895FC016150C5
:103C5000704001900110D8F7809590958E0F9F1FAE
:103C600008950F931F93CF93DF93182F092FEB0124
:103C70008B8181FD03C08FEF9FEF20C082FF10C0BA
:103C80004E815F812C813D81421753077CF4E8818E
:103C9000F9819F012F5F3F4F39832883108306C02E
:103CA000E885F985812F0995892B29F72E813F8198
:103CB0002F5F3F4F3F832E83812F902FDF91CF9136
:103CC0001F910F910895FA01AA27283051F1203150
:103CD00081F1E8946F936E7F6E5F7F4F8F4F9F4FA0
:103CE000AF4FB1E03ED0B4E03CD0670F781F891FE2
:103CF0009A1FA11D680F791F8A1F911DA11D6A0FB0
:103D0000711D811D911DA11D20D009F468943F9162
:103D10002AE0269F11243019305D3193DEF6CF0161
:103D20000895462F4770405D4193B3E00FD0C9F727
:103D3000F6CF462F4F70405D4A3318F0495D31FD94
:103D40004052419302D0A9F7EACFB4E0A6959795E7
:103D5000879577956795BA95C9F7009761057105BD
:103D600008959B01AC010A2E069457954795379507
:103D70002795BA95C9F7620F731F841F951FA01D61
:103D800008952F923F924F925F926F927F928F92FF
:103D90009F92AF92BF92CF92DF92EF92FF920F93DA
:103DA0001F93CF93DF93CDB7DEB7CA1BDB0B0FB6E4
:103DB000F894DEBF0FBECDBF09942A8839884888A1
:103DC0005F846E847D848C849B84AA84B984C88437
:103DD000DF80EE80FD800C811B81AA81B981CE0F2E
:103DE000D11D0FB6F894DEBF0FBECDBFED01089513
:103DF00011E0CAEBD1E004C0FE010E941118229626
:0A3E0000CC3BD107C9F7F894FFCFBF
:103E0A00000051048000BF03D90347030002B8022F
:103E1A00F1030101D001D501DB01E10157656C63B2
:103E2A006F6D6500426C756500526564005265618C
:103E3A006C20576869746500477265656E00507535
:103E4A0072706C65004F72616E67650059656C6CC3
:103E5A006F77004675656C204C6576656C0052502C
:103E6A004D005472697000496E666F005370656543
:103E7A006400456E67696E652054656D70000000C8
:103E8A0000003A040D04E203EA03FD030C040000F7
:103E9A0000004707021530340D0041544C500D0004
:103EAA0025303258253032580D00415453503030A5
:103EBA000D004154535025640D004F4B00343120FE
:103ECA0000303930320D00303A2034392030320097
:103EDA0041545A0D00415445300D0041544C310DA6
:103EEA0000303130300D00415452560D00415454C7
:103EFA00454D500D00415441434C0D004154475922
:103F0A00524F0D0041540D004154490D004F424497
:103F1A0055415254004154425231200000000000E1
:103F2A009E0F3D0C080BF10F20095609100AAE0925
:103F3A00AA0A25097F09CA0D000C050E580EC60EDD
:103F4A00D4095A0F0F0BB10B2910420B24099B0BF2
:103F5A006C0BA80BAB0B00000000E2120000000083
:103F6A0001110000000062130215E412FD12EF12A3
:023F7A004013F2
:00000001FF
