:100000000C9473000C949B000C949B000C949E0524
:100010000C949E050C949E050C949B000C949B00E4
:100020000C949B000C949B000C949B000C949B00E4
:100030000C949B000C949B000C949B000C949B00D4
:100040000C94810F0C949B000C9476120C94A812C3
:100050000C949B000C949B000C949B000C949B00B4
:100060000C949B000C949B0005A84CCDB2D44EB9C7
:100070003836A9020C50B9918688083CA6AAAA2A4B
:10008000BE000000803F00000008000201000003E5
:100090000407000000000000000001020408102016
:1000A000408001020408102001020408102004040A
:1000B0000404040404040202020202020303030310
:1000C00003030000000023002600290000000000B8
:1000D000250028002B0000000000240027002A0033
:1000E000F601D812A90411241FBECFEFD8E0DEBF5D
:1000F000CDBF12E0A0E0B1E0E4EEF5E302C0059070
:100100000D92A63EB107D9F724E0A6EEB2E001C0F9
:100110001D92A635B207E1F710E0C4EED0E004C0AE
:100120002297FE010E94F616C03ED107C9F70E9431
:100130001C130C94E51A0C940000CF93DF93EC0190
:1001400086E393E00E94BD0740E060E086E393E031
:100150000E94C40786E08C9FB0018D9F700D112412
:100160006A517D4F86E393E00E946B1341E060E0AB
:1001700086E393E00E94C407C230D105A1F03CF4AD
:10018000209771F0219731F5E091150314C0C43028
:10019000D10579F05CF02597E9F4E09116030BC0E6
:1001A000E091140308C0E0911A0305C0E091180320
:1001B00002C0E0911703F0E0EE0FFF1FE45EFC4F7A
:1001C000608171816E5F7F4F86E393E0DF91CF9115
:1001D0000C946B13DF91CF910895FC01EC5EFC4F02
:1001E00080818F5F8D3010F4808308951082089590
:1001F0008230910599F02CF4009751F0019759F055
:10020000089584309105C1F084F00597C1F00895F8
:1002100080E090E016C081E090E013C086E090E0BE
:100220000E94ED0087E090E00CC084E090E00E9426
:10023000ED0085E090E005C083E090E002C082E040
:1002400090E00C94ED000F931F93CF93DF9304E1A4
:1002500013E0C0E0D0E0CE010E946B1AF8018D30AF
:1002600010F4808301C0108221960F5F1F4FC830A9
:10027000D10589F7DF91CF911F910F9108950F93C9
:100280001F93CF93DF9326E040E855E260E070E0F3
:1002900083EB93E00E94141220E042E060E186E3E9
:1002A00093E00E94DE0765E171E086E393E00E943F
:1002B00079138EE493E00E94B6081AE0C0E0D0E023
:1002C000012F212F412FBE018EE493E00E942D0AC1
:1002D0002196C830D105A1F78EE493E00E9413095E
:1002E0006CE370E080E090E00E94FA0F165F14303B
:1002F00029F70E94230180916203909163030E9479
:10030000CB0D64EF71E080E090E0DF91CF911F9121
:100310000F910C94FA0F0F931F93CF93DF9304E187
:1003200013E0C0E0D0E0F80161918F01CE010E949E
:10033000731A2196C830D105B1F7DF91CF911F9183
:100340000F910895CF93DF938AE093E00E94B50A5E
:10035000EC01CF3F8FEFD80751F0CE010E94F8009B
:10036000CE010E949D00DF91CF910C948B01DF9113
:10037000CF9108950F931F93CF93DF9304E113E080
:10038000C0E0D0E00E94A201D801ED918D01F0E023
:10039000EE0FFF1FE45EFC4F80819181DC01ED9147
:1003A000FC9160910601709107010190F081E02DB0
:1003B00009959B01AC01BE018EE493E00E945F0AA7
:1003C0002196C830D105F1F68EE493E00E9413091E
:1003D0008091060190910701019690930701809307
:1003E0000601DF91CF911F910F9108956F927F9237
:1003F0008F929F92AF92BF92CF92EF92FF920F9304
:100400001F93CF93DF93CDB7DEB72C970FB6F89439
:10041000DEBF0FBECDBF8FE190E00E942B138C0199
:1004200020E043E065E00E946A06109365030093B4
:10043000640382E090E00E942B138C0160916403BE
:10044000709165030E94FB0C109363030093620399
:1004500023E042E068E070E08EE493E00E94080A46
:100460002CE0C22E3BE0E32E0AE029E048E067E002
:1004700086E393E00E947C082FEF40E060E0CE012D
:1004800007960E94B40C6DE171E0CE0101960E94C6
:10049000F0138BE090E00E942B138C014F81588564
:1004A00069859E012F5F3F4F0E94CB0C10931D0367
:1004B00000931C03CE0101960E94821320E040E0CD
:1004C0006FEFCE0107960E94B40C62E271E0CE019C
:1004D00001960E94F0138BE090E00E942B138C0198
:1004E0004F81588569859E012F5F3F4F0E94CB0C3D
:1004F00010931F0300931E03CE0101960E948213E6
:100500002FEF4FEF6FEFCE0107960E94B40C6BE216
:1005100071E0CE0101960E94F0138BE090E00E9402
:100520002B138C014F81588569859E012F5F3F4FAA
:100530000E94CB0C1093210300932003CE0101965F
:100540000E9482132BE94FEF6FEFCE0107960E94B6
:10055000B40C66E271E0CE0101960E94F0138BE0CC
:1005600090E00E942B138C014F81588569859E0174
:100570002F5F3F4F0E94CB0C109323030093220365
:10058000CE0101960E94821320E04FEF60E0CE0181
:1005900007960E94B40C61E371E0CE0101960E94BF
:1005A000F0138BE090E00E942B138C014F81588553
:1005B00069859E012F5F3F4F0E94CB0C109325034E
:1005C00000932403CE0101960E9482132FEF40E096
:1005D00060EACE0107960E94B40C67E371E0CE0199
:1005E00001960E94F0138BE090E00E942B138C0187
:1005F0004F81588569859E012F5F3F4F0E94CB0C2C
:100600001093270300932603CE0101960E948213C4
:1006100020E044E66FEFCE0107960E94B40C6EE333
:1006200071E0CE0101960E94F0138BE090E00E94F1
:100630002B138C014F81588569859E012F5F3F4F99
:100640000E94CB0C1093290300932803CE0101963E
:100650000E94821320E04FEF6FEFCE0107960E94B9
:10066000B40C65E471E0CE0101960E94F0138BE0BA
:1006700090E00E942B138C014F81588569859E0163
:100680002F5F3F4F0E94CB0C10932B0300932A0344
:10069000CE0101960E9482136CE471E0CE010196B6
:1006A0000E94F0132FEF4FEF6FEFCE010A960E94DA
:1006B000B40C20E040E06FEFCE0107960E94B40C2E
:1006C00084E190E00E942B133C01AF80B884C98480
:1006D000EA84FB840C85609162037091630381E17D
:1006E0008F9384E98F93812C912C9E012F5F3F4F34
:1006F00040E050E0C3010E94320C70922D036092E2
:100700002C03CE0101960E94821360E571E0CE01B8
:1007100001960E94F0132FEF4FEF6FEFCE010A9674
:100720000E94B40C20E040E06FEFCE0107960E94DB
:10073000B40C84E190E00E942B133C01AF80B8849C
:10074000C984EA84FB840C85609162037091630321
:100750001F9280E68F939E012F5F3F4F41E050E054
:10076000C3010E94320C70922F0360922E03CE01BF
:1007700001960E94821366E571E0CE0101960E9407
:10078000F0132FEF40E060E0CE010A960E94B40C17
:1007900020E040E06FEFCE0107960E94B40C84E1A8
:1007A00090E00E942B133C01AF80B884C984EA8496
:1007B000FB840C8560916203709163031F9287ED47
:1007C0008F9348ED842E99249A949E012F5F3F4F7A
:1007D00042E050E0C3010E94320C709231036092FB
:1007E0003003CE0101960E94821362E671E0CE01D1
:1007F00001960E94F0132FEF4FEF6FEFCE010A9694
:100800000E94B40C20E040E06FEFCE0107960E94FA
:10081000B40C84E190E00E942B133C01AF80B884BB
:10082000C984EA84FB840C85609162037091630340
:100830001F9214E61F93812C912C9E012F5F3F4F36
:1008400043E050E00E94320C709233036092320316
:10085000CE0101960E9482136EE671E0CE010196F0
:100860000E94F0132FEF4FEF6FEFCE010A960E9418
:10087000B40C20E040E06FEFCE0107960E94B40C6C
:1008800084E190E00E942B133C01AF80B884C984BE
:10089000EA84FB840C8560916203709163031F926C
:1008A0001F939E012F5F3F4F44E050E00E94320CA7
:1008B0007092350360923403CE0101960E94821338
:1008C00002E010E028E031E046E050E060E070E057
:1008D0008AE093E00E94A70A69E771E086EE92E061
:1008E0000E94F0136CE471E08CEE92E00E94F01331
:1008F00064E871E082EF92E00E94F01369E871E031
:1009000088EF92E00E94F01360E571E08EEF92E0D4
:100910000E94F01366E571E084E093E00E94F0131A
:100920000FB6F894DEBF0FBECDBF2C960FB6F8946D
:10093000DEBF0FBECDBFDF91CF911F910F91FF9012
:10094000EF90CF90BF90AF909F908F907F906F90DF
:100950000895CF93DF93CAE0D3E02697CE010E949B
:10096000821382E0C63ED807C1F78EE493E0DF91A0
:10097000CF910C94A2082091A8033091A9032817C5
:100980003907B9F49091660380916703981789F04D
:10099000E0916603F0E0E859FC4F80812091660306
:1009A00030E02F5F3F4F2F7333272093660390E093
:1009B00008958FEF9FEF08951F93CF93DF93DC018E
:1009C0005C968D919C915D97009749F481E090E051
:1009D00013969C938E93129780E090E03BC05196C3
:1009E000ED91FC91529750962C915097322F309563
:1009F0001FB75E964C915E9741FB772770F941FDDA
:100A00006095F8944081772311F0422B01C0432375
:100A10004083EC012197F1F748E0508160FF02C06C
:100A2000522B01C053235083EC012197F1F76695B7
:100A3000415099F78081772311F0832301C0822BE5
:100A400080831FBF5C968D919C915D970197F1F714
:100A500081E090E0DF91CF911F910895089520915A
:100A6000A8033091A9032817390771F49091660300
:100A700080916703981741F0E0916603F0E0E85930
:100A8000FC4F808190E008958FEF9FEF08952091B3
:100A9000A8033091A9032817390771F480916703DF
:100AA0002091660390E0805C9F4F821B910960E477
:100AB00070E00E949F16089580E090E00895E09114
:100AC000A803F091A903E817F90769F4A389B48989
:100AD0009C918589809589238C931092A90310920B
:100AE000A80381E0089580E00895CF93DF93EC019F
:100AF0008A8D9B8D892BF1F08091A8039091A90399
:100B00008C179D07B9F0009711F00E945F058E8D3C
:100B10008E7F8E8F1092670310926603D093A90385
:100B2000C093A803EB89FC8980819D89892B8083F0
:100B300081E001C080E0DF91CF9108951F920F9274
:100B40000FB60F9211242F933F934F935F936F93A0
:100B50007F938F939F93AF93BF93EF93FF93E09116
:100B6000A803F091A903309709F451C0868DA6859A
:100B7000B785958581FF04C08C91892329F447C0EE
:100B80008C91892309F043C0A389B4899C918589FC
:100B9000809589238C93868997890197F1F7208D19
:100BA000318DA685B785758558E040E0C90101976C
:100BB000F1F7842F90E095958795482F6C916723E6
:100BC00009F04068515091F7868D81FD40958091E4
:100BD000670390E001968F73992720916603281789
:100BE00049F0A0916703B0E0A859BC4F4C938093A3
:100BF000670303C0868D8160868F828D938D0197F8
:100C0000F1F7A389B4898C919589892B8C93FF91F5
:100C1000EF91BF91AF919F918F917F916F915F9174
:100C20004F913F912F910F900FBE0F901F901895ED
:100C30001F93CF93DF93EC01162F6E8D6695617035
:100C400081E06827812F0E94F91061E0812F0E94C6
:100C5000C010812F90E0FC01E656FF4FE491E88B35
:100C6000FC01E255FF4FE491F0E0EE0FFF1FE4536B
:100C7000FF4F859194919A8B898BDF91CF911F9132
:100C800008951F93CF93DF93EC01162F60E0812F1F
:100C90000E94C0108E8D81FD04C061E0812F0E94F2
:100CA000F9101C87812F90E0FC01E656FF4FE4917C
:100CB000ED87FC01E255FF4FE491F0E0EE0FFF1FDE
:100CC000EE53FF4F859194919F878E87DF91CF914F
:100CD0001F910895FF920F931F93CF93DF93EC0121
:100CE000F62E522F1B821A8208EE13E020E030E02D
:100CF0000C831D832E833F8382E991E0998388834F
:100D00001F8A1E8A198E188E1B8E1A8E1D8E1C8E9F
:100D10008E8D8E7F50FB81F98E8F642FCE010E94C5
:100D200018066F2DCE01DF91CF911F910F91FF908B
:100D30000C944106CF93DF93EC019A01AB011B8E1B
:100D40001A8E198E188E1F8A1E8A60E079E08DE354
:100D500090E00E94D516C9012430310520F0B90178
:100D60006350710902C061E070E07D8F6C8FEC858B
:100D7000E63108F068C0B901769567956431710570
:100D800018F06351710902C061E070E07F8B6E8BD7
:100D9000069718F0C901059702C081E090E0998F8D
:100DA000888FC901880F991F820F931F9695879589
:100DB000969587958D30910510F00C9702C081E0D3
:100DC00090E09B8F8A8F20916800E83050F091E08E
:100DD000EE3008F490E081E001C0880F9A95EAF7C0
:100DE00001C084E0822B809368002C85283038F085
:100DF0002E3040F0263148F48CE690E008C08DE6B5
:100E000090E005C08BE690E002C080E090E09C8B13
:100E10008B8B283030F481E001C0880F2A95EAF7E7
:100E20000DC0822F90E02E3010F4089701C00E976D
:100E300091E001C0990F8A95EAF7892F8D8B8C8DEF
:100E40009D8D0197F1F7CE01DF91CF910C9475053F
:100E5000CF93DF93EC0160E08E810E94F91081E076
:100E600090E00E94341061E08E810E94F91081E0D0
:100E700090E00E94341060E08E810E94F91084E6B8
:100E800090E0DF91CF910C943410EF92FF920F938A
:100E90001F93CF93DF938C01C0E0D0E0E62EF12CBE
:100EA000B7010C2E02C0759567950A94E2F7617040
:100EB000F801EC0FFD1F87810E94F9102196C430C4
:100EC000D10571F7C801DF91CF911F910F91FF906C
:100ED000EF900C942807EF92FF920F931F93CF93FC
:100EE000DF938C01C0E0D0E0E62EF12CB7010C2E90
:100EF00002C0759567950A94E2F76170F801EC0FEE
:100F0000FD1F87810E94F9102196C830D10571F725
:100F1000C801DF91CF911F910F91FF90EF900C943A
:100F200028071F93CF93DF93EC01162F642F8C813A
:100F30000E94F9108D818F3F19F060E00E94F91036
:100F40008F85612F84FF06C0CE01DF91CF911F9165
:100F50000C946B0770E084E0759567958A95E1F7CE
:100F6000CE010E944507612FCE01DF91CF911F91E5
:100F70000C94450740E00C94910761E00E94BA0789
:100F800080ED97E00C943410443008F043E0FC010D
:100F90002389421710F04FEF420FFC01E40FF11DBF
:100FA0002489260F2068622F0C94BA07FC016089FF
:100FB000262F2460208B6C600C94BA070F931F932C
:100FC000CF93DF93EC01423018F08F8588608F87D4
:100FD0004B8B1C8A80E48D8B6E8B70E0605C7F4F46
:100FE0006F8B222329F0413019F48F8584608F871D
:100FF00061E08C810E94C0108D818F3F19F061E00B
:101000000E94C01061E08E810E94C01000E010E0DC
:101010008F8584FF03C088E090E002C084E090E008
:101020000817190754F4FE01E00FF11F61E08781F2
:101030000E94C0100F5F1F4FEBCF80E593EC0E9422
:10104000341060E08C810E94F91060E08E810E9473
:10105000F9108D818F3F19F060E00E94F9106F85C3
:1010600064FD1DC063E0CE010E94450784E991E163
:101070000E94341063E0CE010E94450784E991E1AB
:101080000E94341063E0CE010E94450786E990E09B
:101090000E94341062E0CE010E94450716C06062D3
:1010A000CE010E94BA0784E991E10E9434106F8555
:1010B0006062CE010E94BA0786E990E00E94341077
:1010C0006F856062CE010E94BA076F856062CE01B3
:1010D0000E94BA0784E0888BCE010E94D607CE0119
:1010E0000E94BD0782E0898B66E0CE01DF91CF913F
:1010F0001F910F910C94BA07CF92EF920F93FC01BE
:101100001382128282EA91E09183808364838FEF5D
:101110008583468327830087E186C28613861486EB
:1011200015861686178620E041E060E1CF010F9119
:10113000EF90CF900C94DE0741E00E94910781E090
:1011400090E00895CF93DF93EC018885998500970F
:1011500011F00E9492178D8187FD05C060E0DF913C
:10116000CF910C94C010DF91CF910895CF93DF936E
:10117000EC018D8187FD07C061E00E94C01060E036
:101180008D810E94F91081E08883DF91CF910895CD
:10119000EF92FF920F931F93CF93DF93EC017B01AC
:1011A00088859985009711F00E9492178701000F9A
:1011B000111F0E0D1F1D1C830B83C8010E94FA1600
:1011C00099878887009741F0A80160E070E00E944D
:1011D000351AFA82E98204C01C821B821A821982A3
:1011E000DF91CF911F910F91FF90EF900895FC0137
:1011F000668360FF04C081E08287138611C062FFAE
:1012000006C081E0828782E0838714860895128673
:1012100063FF04C082E0838781E003C081E08387AD
:1012200082E084870895CF92DF92EF92FF920F932E
:101230001F93CF93DF93CDB7DEB729970FB6F894FE
:10124000DEBF0FBECDBF8C01DC0118968D919C9145
:101250001997892B09F49BC00E94D70FF801C58408
:10126000D684E784F0886C197D098E099F09623362
:1012700071058105910580F3F894838194819A83A7
:101280008983A085B1857D01EFEFEE1AFE0A8C916E
:101290008987D80116969C91169751960D90BC910E
:1012A000A02DF801838991FF2EC09C91982B9887DF
:1012B0009C91809589238F838F818E8388E08D8395
:1012C00058856F8149853D812E8189819A81F701F9
:1012D0005C9347FD252F3A952C93262F39F0441F18
:1012E00000C000006C93000000C0F2CF38E04191D4
:1012F0006C930000019761F7F801B28BA18B4987CD
:101300003D832E8338C09C91982B98879C91809523
:1013100089238F838F818C8388E08B8358856F81AD
:1013200049853B812C8189819A81F7015C9347FD36
:10133000252F00C000C02C9300C000C000C000C01A
:1013400000C06C930000262F3A9541F0441F000026
:1013500000C000C000C000C000C0E8CF38E041912C
:1013600000C06C9300C0019709F7F801B28BA18B04
:1013700049873B832C839A83898378940E94D70F73
:10138000D8011D966D937D938D939C9350972996CC
:101390000FB6F894DEBF0FBECDBFDF91CF911F9186
:1013A0000F91FF90EF90DF90CF9008951F93CF9310
:1013B000DF93EC01162F8881882331F08D8187FD22
:1013C00003C060E00E94C0101D838881882341F023
:1013D00061E0812F0E94C01060E0812F0E94F9100F
:1013E000812F90E0FC01E255FF4FE491F0E0EE0F19
:1013F000FF1FE453FF4F259134913A8B298BFC0159
:10140000E656FF4F84918B8BDF91CF911F9108950A
:101410000F931F93CF93DF9300D0CDB7DEB78C012E
:10142000FC01108217821186108615861686178693
:10143000108A2A8349830E94C8084981642FC80101
:101440000E94D6092A81622FC8010F900F90DF9168
:10145000CF911F910F910C94F7080F931F93FC01EC
:10146000818192816817790738F58781882361F037
:10147000489FA0011124452F289F90011124232F5C
:10148000089F80011124012FDB01AA0FBB1FA60FAB
:10149000B71F808591858A0F9B1F3285DC01A30FC2
:1014A000B11D4C933385DC01A30FB11D2C93248512
:1014B000FC01E20FF11D00831F910F910895CF925F
:1014C000DF92EF92FF920F931F93CF93DF93FC0174
:1014D000818192816817790788F5CA01AA27BB27FD
:1014E000082FC32ED42EE52EFF241C2DD22FC7810A
:1014F000CC2361F08C9FC0011124092FCC9E600188
:1015000011241D2D2C9F90011124D32F9B01220FFC
:10151000331F260F371F80859185820F931F2285E9
:10152000DC01A20FB11D0C932385DC01A20FB11DBC
:101530001C932485FC01E20FF11DD083DF91CF9134
:101540001F910F91FF90EF90DF90CF9008950F9330
:101550001F93FC017183608353834283358324830B
:10156000178306831F910F910895CF93DF93EC01AA
:1015700088810E947A1028853985232B09F56A8194
:101580007B8120E030E026173707D4F4EC81FD8121
:10159000A901440F551FE40FF51F40815181FC0143
:1015A000E41BF50BAF01F7FF03C0519541955109BD
:1015B000EE81FF81E417F5072CF42F5F3F4FE3CF57
:1015C0002FEF3FEF99878887C901DF91CF91089569
:1015D0002F923F924F926F927F928F92CF92DF9293
:1015E000EF92FF920F931F93CF93DF93EC011A01B9
:1015F000462E3801822E0E94AF0CCE0103960E9427
:10160000AF0C288239824A826B827C828D82FF8273
:10161000EE82D986C886DF91CF911F910F91FF90FE
:10162000EF90DF90CF908F907F906F904F903F9092
:101630002F900895FC0186819781681779073CF007
:1016400020853185CB01261737070CF4C901089591
:10165000AF92BF92CF92DF92EF92FF920F931F93C0
:10166000CF93DF938C01C62FD42FB9010E941A0BA0
:10167000F801A680B7808A199B09BC01882777FDED
:101680008095982F0E9419156B017C01F8016085E7
:1016900071856A197B09882777FD8095982F0E94AC
:1016A00019159B01AC01C701B6010E947E1426E505
:1016B0003EE049E450E40E94A51520E030E040E01F
:1016C0005FE30E94A5150E9408166B017C016D2F37
:1016D00070E06C1B7109882777FD8095982F0E9418
:1016E00019159B01AC01C701B6010E94A5150E9406
:1016F000E6148C2F860FDF91CF911F910F91FF90F1
:10170000EF90DF90CF90BF90AF900895CF92DF928F
:10171000EF92FF920F931F93CF93DF9300D01F920E
:10172000CDB7DEB78C017B019B01FC014581628155
:101730000E94280BC82E9701F80144816181C801DD
:101740000E94280BD82E9701F80143816081C801BF
:101750000E94280B2C2D4D2D682FCE0101960E9442
:10176000B40CCE0101960E94B90C0F900F900F900F
:10177000DF91CF911F910F91FF90EF90DF90CF906D
:1017800008950F931F93CF93DF9300D01F92CDB78F
:10179000DEB78C01FC01868597856817790709F407
:1017A00055C0F801778766871A8219821B82828565
:1017B00093858230910529F16CF40097C9F0019767
:1017C000B9F5BE016D5F7F4FF801808591850E945C
:1017D000250F28C083309105E9F0049749F5BE0133
:1017E0006D5F7F4FF801808591850E944E0F1AC072
:1017F000BE016F5F7F4FF801808591850E94F00EDA
:1018000015C0BE016F5F7F4FF801808591850E94F2
:10181000C30E0CC0BE016D5F7F4FF80180859185BE
:101820000E94900E2B8130E03A83298381110DC0F4
:1018300069817A81F801848595850E94860BF8017B
:10184000608B718B828B938B05C0F80160897189E5
:10185000828993890F900F900F90DF91CF911F9104
:101860000F9108952F923F924F926F927F928F9295
:101870009F92AF92BF92CF92DF92EF92FF920F931F
:101880001F93CF93DF93CDB7DEB729970FB6F894A8
:10189000DEBF0FBECDBF3C017D836C83E982FA823F
:1018A0000B8315014C2C74018AEA91E0F3018193BA
:1018B00091938F0164EC71E0CF01288739874E83C3
:1018C0005F830E94F01380EB91E0F30191838083AA
:1018D0008C819D81918780874E815F81538742876C
:1018E00028853985B901C8010E94061489809A802B
:1018F000AB808AE090E00E942B139D838C83CD8C7B
:10190000DE8C242D81016A2DA4010E94E80A8C81BD
:101910009D81F3019587848717861686CE010196EF
:101920000E94B90CF301608B718B828B938B29968B
:101930000FB6F894DEBF0FBECDBFDF91CF911F91E0
:101940000F91FF90EF90DF90CF90BF90AF909F905E
:101950008F907F906F904F903F902F900895FC0153
:101960001082118212820895FC01608341832283D8
:101970000895FC0120816181862F90E0A0E0B0E015
:101980006627782F892F9A2F822B2281622B089528
:1019900008960C94B90CAF92BF92CF92DF92EF925F
:1019A0000F931F93CF93DF93EC016A01E62E590149
:1019B0008AEA91E0FE01819391938F0164EC71E0DA
:1019C000CF010E94F01386EB91E099838883CE01CA
:1019D00008960E94AF0CC886D986EA86B501C80170
:1019E000DF91CF911F910F91EF90DF90CF90BF903B
:1019F000AF900C940614FC01718360830895CF931B
:101A0000DF93EC0188819981DC01ED91FC910680E6
:101A1000F781E02D099597FFF5CFDF91CF910895DC
:101A20004F925F926F927F928F929F92AF92BF92EE
:101A3000CF92DF92EF92FF920F931F93CF93DF939A
:101A400000D0CDB7DEB74C018A01690169837A8382
:101A50000E94FF0C69817A81D4018D919C910E9432
:101A600079136DE0F401808191810E947B130E94C3
:101A7000CB0F2B013C01F8E24F0EF3E25F1E611C1D
:101A8000711CE12CF12CEC14FD0438F40E94CB0FF6
:101A90006415750586059705F0F0F4018081918144
:101AA000EC14FD0460F068EB71E00E9479136CE2C5
:101AB00071E080E090E00E94FA0F82E059C068EB8C
:101AC00071E00E9479136CE271E080E090E00E9486
:101AD000FA0F81E04DC0D4018D919C91DC01ED9114
:101AE000FC910480F581E02D0995892B61F2580164
:101AF000AE0CBF1CD4018D919C91DC01ED91FC9149
:101B00000680F781E02D09958E3351F4F50110829E
:101B100065EC71E0C8010E94511A892B21F506C0BD
:101B2000D5018C93BFEFEB1AFB0AADCF67ED71E0E7
:101B3000C8010E94511A892BC1F44CE050E06FEDAE
:101B400071E0C8010E94431A892B89F48CE0F801E6
:101B5000E80FF11D9081992321F03C9790838F5FCE
:101B6000F6CF108204C084E003C085E001C080E0AD
:101B70000F900F90DF91CF911F910F91FF90EF90F9
:101B8000DF90CF90BF90AF909F908F907F906F909D
:101B90005F904F9008950F931F93CF93DF93CDB72E
:101BA000DEB764970FB6F894DEBF0FBECDBF8C01D1
:101BB00040E855E260E070E0FC01808191810E9484
:101BC0009A0624E130E0AE014F5F5F4F6CEE71E0AA
:101BD000C8010E94100D24E130E0AE014F5F5F4F5D
:101BE00062EF71E0C8010E94100D64960FB6F89480
:101BF000DEBF0FBECDBFDF91CF911F910F91089532
:101C0000AF92BF92CF92DF92EF92FF920F931F930A
:101C1000CF93DF93CDB7DEB7CB54D1090FB6F8948D
:101C2000DEBF0FBECDBF5A01690125E0EAEFF1E04A
:101C3000DE01A95BBF4F01900D922A95E1F7FB01F0
:101C4000208122962FAF2297218123962FAF2397B1
:101C500020E224962FAF2497F601208125962FAFFE
:101C60002597218126962FAF269727961FAE279777
:101C700020E430E0AE014F5F5F4FBE016F5B7F4FEE
:101C80000E94100D81113AC09981F501808198134D
:101C900034C09A818181981330C09C81F601808183
:101CA00098132BC09D818181981327C05E01F8E0B5
:101CB000AF0EB11C6801E00EF11ECE14DF04D9F0A6
:101CC000F501319780812A968FAF2A97F50180819F
:101CD0002B968FAF2B9740E150E060E070E0CE0193
:101CE000895B9F4F0E94EB18F60161936F01F3E04F
:101CF000AF0EB11CE2CF80E001C083E0C55BDF4FD7
:101D00000FB6F894DEBF0FBECDBFDF91CF911F910C
:101D10000F91FF90EF90DF90CF90BF90AF9008951C
:101D2000CF92DF92EF92FF920F931F93CF93DF93A7
:101D30001F92CDB7DEB76B01EE24E394F12C8E0138
:101D40000F5F1F4F2FEF31E042E052E065E072E09D
:101D50000E94000E482F81110BC0298134E6239F79
:101D6000C00111246FEF70E00E949F16F60160839E
:101D7000842F0F90DF91CF911F910F91FF90EF90E3
:101D8000DF90CF900895CF92DF92EF92FF920F9362
:101D90001F93CF93DF931F92CDB7DEB76B01EE2475
:101DA000E394F12C8E010F5F1F4F28E032E042E0F8
:101DB00052E065E072E00E94000E811107C02981A7
:101DC00030E028523109F601318320830F90DF91F2
:101DD000CF911F910F91FF90EF90DF90CF900895DA
:101DE000CF92DF92EF92FF920F931F93CF93DF93E7
:101DF00000D0CDB7DEB76B01A2E0EA2EF12C8E0148
:101E00000F5F1F4F2DE132E042E052E065E072E0EB
:101E10000E94000E81110EC0298130E0322F22274E
:101E20009A81290F311D3595279535952795F6010E
:101E3000318320830F900F90DF91CF911F910F91ED
:101E4000FF90EF90DF90CF900895CF92DF92EF92C6
:101E5000FF920F931F93CF93DF931F92CDB7DEB7FF
:101E60006B01EE24E394F12C8E010F5F1F4F20E2F3
:101E700032E042E052E065E072E00E94000E811123
:101E800003C09981F60190830F90DF91CF911F914C
:101E90000F91FF90EF90DF90CF900895CF92DF9257
:101EA000EF92FF920F931F93CF93DF931F92CDB7C3
:101EB000DEB76B01EE24E394F12C8E010F5F1F4F10
:101EC0002CE232E042E052E065E072E00E94000E57
:101ED000482F81110BC0298134E6239FC0011124B2
:101EE0006FEF70E00E949F16F6016083842F0F90C1
:101EF000DF91CF911F910F91FF90EF90DF90CF90E6
:101F000008951F920F920FB60F9211242F933F93B3
:101F10008F939F93AF93BF938091AB039091AC034A
:101F2000A091AD03B091AE033091AA0323E0230F3B
:101F30002D3720F40196A11DB11D05C026E8230F01
:101F40000296A11DB11D2093AA038093AB03909329
:101F5000AC03A093AD03B093AE038091AF03909117
:101F6000B003A091B103B091B2030196A11DB11DC0
:101F70008093AF039093B003A093B103B093B203E7
:101F8000BF91AF919F918F913F912F910F900FBE75
:101F90000F901F9018952FB7F8946091AB03709134
:101FA000AC038091AD039091AE032FBF08953FB76E
:101FB000F8948091AF039091B003A091B103B091D8
:101FC000B20326B5A89B05C02F3F19F00196A11DAD
:101FD000B11D3FBF6627782F892F9A2F620F711D81
:101FE000811D911D42E0660F771F881F991F4A953A
:101FF000D1F708958F929F92AF92BF92CF92DF92C6
:10200000EF92FF926B017C010E94D70F4B015C01A4
:10201000C114D104E104F104F1F00E941D140E94E6
:10202000D70F681979098A099B09683E73408105B1
:10203000910570F321E0C21AD108E108F10888EE99
:10204000880E83E0981EA11CB11CC114D104E104C8
:10205000F10429F7DDCFFF90EF90DF90CF90BF9094
:10206000AF909F908F9008958230910538F0880F3F
:10207000991F880F991F05970197F1F70895789494
:1020800084B5826084BD84B5816084BD85B582607D
:1020900085BD85B5816085BDEEE6F0E0808181601B
:1020A0008083E1E8F0E0108280818260808380811B
:1020B00081608083E0E8F0E0808181608083E1EBF3
:1020C000F0E0808184608083E0EBF0E080818160DB
:1020D0008083EAE7F0E08081846080838081826091
:1020E000808380818160808380818068808310927A
:1020F000C10008958E3008F08E5087702091140131
:1021000090E4299F90011124822B80937C00809180
:102110007A00806480937A0080917A0086FDFCCFFB
:10212000809178002091790090E0922B089583307F
:1021300081F028F4813099F08230A1F00895873041
:10214000A9F08830B9F08430D1F4809180008F7D7F
:1021500003C0809180008F7780938000089584B5BC
:102160008F7702C084B58F7D84BD08958091B000C3
:102170008F7703C08091B0008F7D8093B000089569
:10218000CF93DF9390E0FC01E656FF4F2491FC01D2
:10219000E255FF4F8491882349F190E0880F991F01
:1021A000FC01EA52FF4FA591B49184539F4FFC016B
:1021B000C591D4919FB7611108C0F8948C91209576
:1021C00082238C93888182230AC0623051F4F89470
:1021D0008C91322F309583238C938881822B888336
:1021E00004C0F8948C91822B8C939FBFDF91CF9188
:1021F00008950F931F93CF93DF931F92CDB7DEB750
:10220000282F30E0F901EA57FF4F8491F901E65693
:10221000FF4F1491F901E255FF4F04910023C9F0DB
:10222000882321F069830E9497106981E02FF0E0F4
:10223000EE0FFF1FE453FF4FA591B4919FB7F894A1
:102240008C91611103C01095812301C0812B8C9367
:102250009FBF0F90DF91CF911F910F9108950E9422
:102260001F1AFC01818D228D90E0805C9F4F821BA4
:1022700091098F7399270895FC01918D828D98178C
:1022800031F0828DE80FF11D858D90E008958FEF7C
:102290009FEF0895FC01918D828D981761F0828DDA
:1022A000DF01A80FB11D5D968C91928D9F5F9F738A
:1022B000928F90E008958FEF9FEF08958EEC92E15A
:1022C000892B49F080E090E0892B29F00E94CE1202
:1022D00081110C9400000895FC01848DDF01A80F8A
:1022E000B11DA35ABF4F2C91848D90E001968F733E
:1022F0009927848FA689B7892C93A089B1898C915D
:1023000080648C93938D848D981306C00288F38922
:10231000E02D80818F7D80830895CF93DF93EC0142
:10232000888D8823C9F0EA89FB89808185FD05C0F5
:10233000A889B9898C9186FD0FC00FB607FCF5CF2F
:10234000808185FFF2CFA889B9898C9185FFEDCF77
:10235000CE010E946C11E7CFDF91CF910895CF920B
:10236000DF92FF920F931F93CF93DF931F92CDB70E
:10237000DEB76C0181E0D60158968C9358975B9636
:102380009C915B975C968C915C97981307C05096D4
:10239000ED91FC915197808185FD2EC0F601038D52
:1023A00010E00F5F1F4F0F731127F02EF601848D81
:1023B000F81211C00FB607FCF9CFD6015096ED9177
:1023C000FC915197808185FFF1CFC60169830E94FE
:1023D0006C116981EBCF838DE80FF11DE35AFF4F3C
:1023E0006083D6015B960C935B975296ED91FC91BE
:1023F0005397808180620CC0D6015696ED91FC9176
:10240000579760835096ED91FC915197808180643D
:10241000808381E090E00F90DF91CF911F910F9129
:10242000FF90DF90CF900895BF92CF92DF92EF920E
:10243000FF92CF93DF93EC016A017B01B22EE88912
:10244000F98982E08083411581EE580761057105A5
:10245000A1F060E079E08DE390E0A70196010E9491
:10246000B3162150310941095109569547953795C1
:102470002795211580E1380798F0E889F9891082BD
:1024800060E874E88EE190E0A70196010E94B3161F
:10249000215031094109510956954795379527959E
:1024A000EC85FD853083EE85FF852083188EEC89D1
:1024B000FD89B082EA89FB89808180618083EA8915
:1024C000FB89808188608083EA89FB8980818068BC
:1024D0008083EA89FB8980818F7D8083DF91CF9122
:1024E000FF90EF90DF90CF90BF9008951F920F92D2
:1024F0000FB60F9211242F938F939F93EF93FF9317
:10250000E091C303F091C4038081E091C903F0918D
:10251000CA0382FD12C090818091CC038F5F8F73BC
:102520002091CD03821751F0E091CC03F0E0ED54FF
:10253000FC4F958F8093CC0301C08081FF91EF9178
:102540009F918F912F910F900FBE0F901F90189514
:102550001F920F920FB60F9211242F933F934F9318
:102560005F936F937F938F939F93AF93BF93EF93FB
:10257000FF9383EB93E00E946C11FF91EF91BF9169
:10258000AF919F918F917F916F915F914F913F910B
:102590002F910F900FBE0F901F90189583EB93E033
:1025A0000E94311121E0892B09F420E0822F089547
:1025B0001092B6031092B50388EE93E0A0E0B0E06D
:1025C0008093B7039093B803A093B903B093BA0371
:1025D0008AED92E09093B4038093B30385EC90E08E
:1025E0009093C0038093BF0384EC90E09093C20368
:1025F0008093C10380EC90E09093C4038093C30365
:1026000081EC90E09093C6038093C50382EC90E048
:102610009093C8038093C70386EC90E09093CA031D
:102620008093C9031092CC031092CD031092CE0375
:102630001092CF03089508950E943F100E941B132B
:102640000E943F01CEE5D1E10E94BA012097E1F35B
:102650000E945E11F9CF0C94FA16CF92DF92EF929E
:10266000FF920F931F93CF93DF937C016A01EB01DD
:1026700000E010E00C151D0571F06991D701ED9196
:10268000FC910190F081E02DC7010995892B19F08B
:102690000F5F1F4FEFCFC801DF91CF911F910F91B7
:1026A000FF90EF90DF90CF9008956115710581F054
:1026B000DB010D900020E9F7AD0141505109461BA7
:1026C000570BDC01ED91FC910280F381E02D099420
:1026D00080E090E00895DC01ED91FC91DB0114961F
:1026E0004D915C9115976D917C910280F381E02D65
:1026F00009940C945513DC01ED91FC910190F0814B
:10270000E02D0994FC01808191810C949217CF9364
:10271000DF93EC0188819981009711F00E94921754
:10272000198218821D821C821B821A82DF91CF912E
:1027300008950F931F93CF93DF93EC018B016F5F8D
:102740007F4F888199810E942118009731F09983E9
:1027500088831B830A8381E001C080E0DF91CF91F1
:102760001F910F910895CF93DF93EC018881998198
:10277000892B29F08A819B818617970760F4CE0107
:102780000E949913882341F08C819D81892B19F433
:10279000E881F981108281E0DF91CF910895EF9275
:1027A000FF920F931F93CF93DF93EC017B018A017C
:1027B000BA010E94B313811104C0CE010E94871395
:1027C00007C01D830C83B701888199810E943C1A40
:1027D000CE01DF91CF911F910F91FF90EF9008955F
:1027E000FC011182108213821282158214826115FB
:1027F000710559F0FB0101900020E9F7AF0141504C
:102800005109461B570B0C94CF130895CF93DF93B8
:10281000EC01FB018617970761F0608171816115FA
:10282000710529F0448155810E94CF1302C00E9496
:102830008713CE01DF91CF91089508953ED130F0F6
:1028400043D120F031F49F3F11F41EF433C10EF454
:10285000E095E7FB29C1E92F4FD180F3BA17620752
:1028600073078407950718F071F49EF567C10EF49D
:10287000E0950B2EBA2FA02D0B01B90190010C0190
:10288000CA01A0011124FF27591B99F0593F50F4A8
:10289000503E68F11A16F040A22F232F342F442700
:1028A000585FF3CF469537952795A795F0405395F8
:1028B000C9F77EF41F16BA0B620B730B840BBAF0C8
:1028C0009150A1F0FF0FBB1F661F771F881FC2F733
:1028D0000EC0BA0F621F731F841F48F48795779547
:1028E0006795B795F7959E3F08F0B3CF9395880FFE
:1028F00008F09927EE0F9795879508950CD0EBC0B7
:10290000E3D040F0DAD030F021F45F3F19F0CCC0D2
:10291000511115C1CFC0F0D098F39923C9F35523B5
:10292000B1F3951B550BBB27AA27621773078407C2
:1029300038F09F5F5F4F220F331F441FAA1FA9F378
:1029400033D00E2E3AF0E0E830D091505040E6956A
:10295000001CCAF729D0FE2F27D0660F771F881FCB
:10296000BB1F261737074807AB07B0E809F0BB0BBA
:10297000802DBF01FF2793585F4F2AF09E3F5105DE
:1029800068F092C0DCC05F3FECF3983EDCF38695C4
:1029900077956795B795F7959F5FC9F7880F911D54
:1029A0009695879597F90895E1E0660F771F881F40
:1029B000BB1F621773078407BA0720F0621B730BF3
:1029C000840BBA0BEE1F88F7E095089504D0689445
:1029D000B111B5C0089598D088F09F5790F0B92FE5
:1029E0009927B751A0F0D1F0660F771F881F991F64
:1029F0001AF0BA95C9F712C0B13081F09FD0B1E09A
:102A000008959CC0672F782F8827B85F39F0B93FA9
:102A1000CCF3869577956795B395D9F73EF4909565
:102A20008095709561957F4F8F4F9F4F0895E894E3
:102A300009C097FB3EF490958095709561957F4F06
:102A40008F4F9F4F9923A9F0F92F96E9BB279395B4
:102A5000F695879577956795B795F111F8CFFAF4C4
:102A6000BB0F11F460FF1BC06F5F7F4F8F4F9F4FF5
:102A700016C0882311F096E911C0772321F09EE853
:102A8000872F762F05C0662371F096E8862F70E0B9
:102A900060E02AF09A95660F771F881FDAF7880F93
:102AA0009695879597F9089597F99F6780E870E064
:102AB00060E008959FEF80EC089500240A941616B4
:102AC000170618060906089500240A94121613061C
:102AD000140605060895092E0394000C11F48823AA
:102AE00052F0BB0F40F4BF2B11F460FF04C06F5FC6
:102AF0007F4F8F4F9F4F089557FD9058440F551F9C
:102B000059F05F3F71F04795880F97FB991F61F06F
:102B10009F3F79F087950895121613061406551FE6
:102B2000F2CF4695F1DF08C0161617061806991F52
:102B3000F1CF86957105610508940895E894BB2747
:102B400066277727CB0197F908950BD0C4CFB5DF5F
:102B500028F0BADF18F0952309F0A6CFABCF1124E7
:102B6000EECFCADFA0F3959FD1F3950F50E0551F2C
:102B7000629FF001729FBB27F00DB11D639FAA27D2
:102B8000F00DB11DAA1F649F6627B00DA11D661F21
:102B9000829F2227B00DA11D621F739FB00DA11D42
:102BA000621F839FA00D611D221F749F3327A00DFC
:102BB000611D231F849F600D211D822F762F6A2F98
:102BC00011249F5750408AF0E1F088234AF0EE0F1D
:102BD000FF1FBB1F661F771F881F91505040A9F72A
:102BE0009E3F510570F060CFAACF5F3FECF3983E57
:102BF000DCF3869577956795B795F795E7959F5F91
:102C0000C1F7FE2B880F911D9695879597F908952A
:102C10009F9305D00F9007FCEE5F28C04BCF74DF69
:102C2000E8F3E894E0E0BB279F57F0F02AED3FE09F
:102C300049EC06C0EE0FBB0F661F771F881F28F0F8
:102C4000B23A62077307840728F0B25A620B730B1B
:102C5000840BE3959A9572F7803830F49A95BB0F00
:102C6000661F771F881FD2F7904813C0EF93E0FFCD
:102C700006C0A2EA2AED3FE049EC5FEBECDD2BDF7A
:102C80000F90039401FC9058E8E6F0E00EC09F3FDF
:102C900031F0915020F4879577956795B795880F17
:102CA000911D9695879597F908959F938F937F939C
:102CB0006F93FF93EF939B01AC0147DFEF91FF917F
:102CC00005D02F913F914F915F913FCFDF93CF93ED
:102CD0001F930F93FF92EF92DF927B018C01689418
:102CE00005C0DA2EEF013DDFFE01E894A5912591A4
:102CF000359145915591AEF3EF01ADDDFE019701A0
:102D0000A801DA9479F7DF90EF90FF900F911F916F
:102D1000CF91DF910895AA1BBB1B51E107C0AA1FE9
:102D2000BB1FA617B70710F0A61BB70B881F991F6C
:102D30005A95A9F780959095BC01CD01089597FB10
:102D4000072E16F4009407D077FD09D00E948B1649
:102D500007FC05D03EF4909581959F4F089570959E
:102D600061957F4F0895A1E21A2EAA1BBB1BFD019E
:102D70000DC0AA1FBB1FEE1FFF1FA217B307E4075A
:102D8000F50720F0A21BB30BE40BF50B661F771FB2
:102D9000881F991F1A9469F7609570958095909592
:102DA0009B01AC01BD01CF010895052E97FB1EF4D8
:102DB00000940E94EC1657FD07D00E94B31607FC42
:102DC00003D04EF40C94EC16509540953095219517
:102DD0003F4F4F4F5F4F0895909580957095619547
:102DE0007F4F8F4F9F4F0895EE0FFF1F0590F49177
:102DF000E02D0994CF93DF938230910510F482E0A7
:102E000090E0E0915204F091530420E030E0A0E023
:102E1000B0E0309739F14081518148175907B8F037
:102E20004817590771F482819381109729F01396FE
:102E30009C938E9312972CC09093530480935204CA
:102E400027C02115310531F04217530718F0A901A9
:102E5000DB0101C0EF019A01BD01DF010280F381B6
:102E6000E02DD7CF21153105F9F0281B390B24307F
:102E7000310580F48A819B816115710521F0FB0188
:102E80009383828304C09093530480935204FE0181
:102E9000329644C0FE01E20FF31F819391932250BA
:102EA0003109398328833AC020915004309151046C
:102EB000232B41F4209102013091030130935104FE
:102EC000209350042091000130910101211531051A
:102ED00041F42DB73EB74091040150910501241BE8
:102EE000350BE0915004F0915104E217F307A0F480
:102EF0002E1B3F0B2817390778F0AC014E5F5F4F50
:102F00002417350748F04E0F5F1F5093510440932C
:102F100050048193919302C0E0E0F0E0CF01DF9193
:102F2000CF910895CF93DF93009709F487C0FC01F8
:102F3000329713821282C0915204D0915304209789
:102F400081F420813181280F391F809150049091A4
:102F500051048217930779F5F0935104E0935004DC
:102F60006DC0DE0120E030E0AE17BF0750F41296CE
:102F70004D915C9113979D014115510509F1DA01BD
:102F8000F3CFB383A28340815181840F951F8A17A9
:102F90009B0771F48D919C911197840F951F029658
:102FA0009183808312968D919C9113979383828352
:102FB0002115310529F4F0935304E09352043EC0E7
:102FC000D9011396FC93EE9312974D915D91A40F46
:102FD000B51FEA17FB0779F480819181840F951F53
:102FE0000296D90111969C938E93828193811396B8
:102FF0009C938E931297E0E0F0E08A819B8100978A
:1030000019F0FE01EC01F9CFCE0102962881398139
:10301000820F931F209150043091510428173907D3
:1030200069F4309729F4109253041092520402C0AC
:1030300013821282D0935104C0935004DF91CF9138
:103040000895A0E0B0E0E7E2F8E10C94A31AEC01E7
:10305000CB01209719F40E94FA16B8C0FE01E60FC2
:10306000F71F9E0122503109E217F30708F4ACC0A4
:10307000D9010D911C91119706171707B8F005306B
:10308000110508F49FC0A80144505109461757077D
:1030900008F498C002501109061B170B01931193F5
:1030A0006D937C93CF010E9492178CC05B01A01A94
:1030B000B10A4E01800E911EA0915204B0915304AA
:1030C000612C712C60E070E0109709F449C0A815DC
:1030D000B905C9F5ED90FC901197670142E0C40E67
:1030E000D11CCA14DB0478F147018A189B086401DB
:1030F00042E0C40ED11C1296BC9012971396AC916C
:10310000B5E0CB16D10440F0B282A38391828082D5
:10311000D9018D939C9309C00E5F1F4F0E0D1F1D8B
:10312000F90111830083EB2DFA2F6115710531F040
:10313000DB011396FC93EE93129744C0F093530473
:10314000E09352043FC06D917C911197661677060B
:1031500008F43B01BD0112960D90BC91A02DB4CF97
:10316000609150047091510468157905E9F468166E
:103170007906D0F4409100015091010141155105AB
:1031800041F44DB75EB76091040170910501461B93
:10319000570BE417F507C0F4F0935104E093500483
:1031A000F901918380830EC00E94FA167C0100977A
:1031B00059F0A801BE010E942C1ACE010E9492175C
:1031C000C70104C0CE0102C080E090E0CDB7DEB7F9
:1031D000EEE00C94BF1A2F923F925F926F927F9213
:1031E0008F929F92AF92BF92CF92DF92EF92FF9217
:1031F0000F931F93CF93DF938B01EA016115710544
:1032000021F0DB018C9311969C93209739F09E015D
:10321000225031092332310508F0FBC07C016701DF
:10322000BFEFCB1ADB0A5601F7016080862D90E0D4
:103230000E94241A892B11F07601F1CFFDE26F1262
:103240000AC0570182E0A80EB11CD70111966C90FC
:10325000772473940BC0BBE26B1207C05701E2E006
:10326000AE0EB11CD70111966C90712CCE018F7EE1
:10327000892B89F4B0E36B1222C0F50180818F7D28
:10328000883541F56180F2E0AF0EB11C872D826078
:10329000782EC0E1D0E0C830D105F1F04CF4C23056
:1032A000D10511F5C12CD12CE12CB0E4FB2E2FC09F
:1032B000CA30D10531F0C031D10521F115C02097B8
:1032C00051F7CAE0D0E0ACECCA2EDC2CEC2CACE020
:1032D000FA2E1DC02097F9F6C8E0D0E0C12CD12C01
:1032E000E12CF0E1FF2E13C060E070E080E090E898
:1032F0009E01442737FD4095542F0E94B316690163
:103300007A0105C0C12CD12CE12CE8E0FE2EF5019C
:1033100060E020E030E0A9014E01AA2497FCA094CF
:10332000BA2C1F0170ED572E560CA9E0A51570F4AC
:103330008FEB860D8A3118F499EC592E06C08FE96F
:10334000860D8A3130F589EA582E560C852D90E08D
:103350008C179D07F4F467FD18C0C216D306E40667
:10336000F50680F0C501B4010E94841A9B01AC01EE
:10337000250D311D411D511D213031054105B0E89C
:103380005B0710F06FEF01C061E03196D1016C90E6
:10339000C8CF872D81700115110571F0662329F0C2
:1033A0003197D801ED93FC9307C071FE19C0329795
:1033B000D801ED93FC9314C067FF12C0882329F055
:1033C00020E030E040E050E804C02FEF3FEF4FEF47
:1033D0005FE782E290E0909355048093540416C016
:1033E000882341F050954095309521953F4F4F4FA0
:1033F0005F4F0CC057FF0AC082E290E090935504E3
:10340000809354042FEF3FEF4FEF5FE7B901CA01FC
:1034100004C060E070E080E090E0DF91CF911F9108
:103420000F91FF90EF90DF90CF90BF90AF909F9063
:103430008F907F906F905F903F902F90089581E0E4
:1034400090E0F8940C94E51A91115BC0803219F069
:1034500089508550D0F70895FB01DC0102C001902E
:103460000D9241505040D8F70895DC0101C06D9392
:1034700041505040E0F70895FB01DC0101900D92AE
:103480000020E1F70895FB01DC014150504030F08D
:103490008D910190801919F40020B9F7881B990BC0
:1034A0000895FB0151915523A9F0BF01DC014D9115
:1034B00045174111E1F759F4CD010190002049F081
:1034C0004D9140154111C9F3FB014111EFCF81E04E
:1034D00090E001970895F999FECF92BD81BDF89AC9
:1034E000992780B50895262FF999FECF1FBA92BD6E
:1034F00081BD20BD0FB6F894FA9AF99A0FBE0196D5
:103500000895992788270895DB018F939F930E9440
:10351000941ABF91AF91A29F800D911DA39F900D12
:10352000B29F900D112408950E94D61AA59F900D68
:10353000B49F900DA49F800D911D112408952F928A
:103540003F924F925F926F927F928F929F92AF9233
:10355000BF92CF92DF92EF92FF920F931F93CF9380
:10356000DF93CDB7DEB7CA1BDB0B0FB6F894DEBF17
:103570000FBECDBF09942A88398848885F846E843D
:103580007D848C849B84AA84B984C884DF80EE8087
:10359000FD800C811B81AA81B981CE0FD11D0FB690
:1035A000F894DEBF0FBECDBFED010895A29FB0011C
:1035B000B39FC001A39F700D811D1124911DB29F67
:1035C000700D811D1124911D089510E0C4EED0E00E
:1035D00004C0FE010E94F6162296C63ED107C9F726
:0435E000F894FFCF8D
:1035E4000000560480000100BF03D9034703000212
:1035F400B802F1030157656C636F6D6500426C7529
:103604006500526564005265616C20576869746591
:1036140000477265656E00507572706C65004F727C
:10362400616E67650059656C6C6F770052504D0090
:10363400537065656400456E67696E652054656DF9
:103644007000456E67696E65204C6F616400546854
:10365400726F74746C652025004675656C204C652A
:1036640076656C005472697000496E666F000000E4
:103674000000DC042D134705BB042F052E050000B4
:1036840000009C082D13000000002F110000000012
:10369400C10B00000000C80C5858585858585858C6
:1036A400580D0D0D00554E41424C4520544F2043BA
:1036B4004F4E4E454354004E4F2044415441005315
:1036C4004541524348494E472E2E2E004154204531
:1036D40030004154205350203000307830300030D6
:1036E40034003431003031003035003036003037AA
:1036F400003038003039003041003042003043009F
:103704003044003045003046003130003131003162
:103714003400313500313600313700313800313969
:103724000031410031420031460032310032320072
:103734003233003234003235003236003237003250
:103744003800323900324100324200324300324400
:10375400003245003246003330003331003332004A
:10376400333300333400333500333600333700331A
:1037740038003339003341003342003343003344CB
:10378400003345003346003432003433003434000F
:1037940034350034360034370034380034390034DA
:1037A4004100344200344300314500415449474EFE
:1037B40000415452560000000000AF112D13311186
:0637C4004A113C118D11B9
:00000001FF
