:100000000C94DE000C9406010C9406010C9406017D
:100010000C9406010C9406010C9406010C94060144
:100020000C9406010C9406010C9406010C94060134
:100030000C9406010C9406010C9406010C94060124
:100040000C94A5110C9406010C94BC140C94EE14A1
:100050000C9406010C9406010C9406010C94060104
:100060000C94EC030C940601790C760CAA0CAA0CE7
:10007000AA0CAA0C6E0CE50C650CE50C820C760C37
:100080007C0C790CE50CE50CE50CE50CE50CE50CBD
:10009000E50CE50CE50CE50CE50CE50CE50C8C0C31
:1000A000E50C8C0CE50CE50CE50CE50CE50CE50C21
:1000B000E50CE50CE50CE50C790CAA0C790C790C37
:1000C000E50C8C0C650CE50CE50CE50CE50CE50C81
:1000D000E50CE50CE50CE50CD10CD10CD10CD10CE8
:1000E000E50CE50C930C790CDB0C790C760C790C97
:1000F000790C790C790C790C790C8C0C8C0CE50C46
:10010000E50CE50C790CE50CE50CE50CE50CE50CD3
:10011000E50C8C0CE50C790C760CC00C9B0CE50CFA
:10012000E50CA10CA10C8C0C0000000800020100E1
:1001300000030407000000000000000001020408A2
:100140001020408001020408102001020408102041
:10015000040404040404040402020202020203036D
:100160000303030300000000250028002B0000000B
:100170000000240027002A004E414E494E495459A0
:10018000494E46CDCCCC3D0AD7233C17B7D1387762
:10019000CC2B329595E6241FB14F0A000020410078
:1001A00000C84200401C4620BCBE4CCA1B0E5AAEC2
:1001B000C59D74001902BF031E15160311241FBE2E
:1001C000CFEFD8E0DEBFCDBF12E0A0E0B1E0E8EEB7
:1001D000FEE302C005900D92A236B107D9F724E0E4
:1001E000A2E6B2E001C01D92AF32B207E1F711E022
:1001F000CAEBD1E004C02297FE010E949618C43BCE
:10020000D107C9F70E9462150C94671F0C94000077
:100210000F931F93CF93DF9320E042E060E188E9E2
:1002200092E00E94CF056CE271E088E992E00E94C2
:10023000A91580912201882341F180EB92E00E9470
:10024000A70602E111E0C0E0D0E0D801ED91FD91F8
:100250008D01EE0FFF1FE057FD4F80819181DC0182
:10026000ED91FC910190F081E02D09959B01AC018D
:10027000BE0180EB92E00E941E082196C830D10595
:1002800021F780EB92E00E94040780919602909102
:100290009702DC01ED91FC910190F081E02D099530
:1002A0008091960290919702DC01ED91FC91028081
:1002B000F381E02D60E070E00995882389F3DF91F8
:1002C000CF911F910F910895CF93DF93EC0188E9AF
:1002D00092E00E94AE0540E060E088E992E00E9472
:1002E000B50586E08C9FB0018D9F700D11246E596D
:1002F0007D4F88E992E00E949B1541E060E088E92B
:1003000092E00E94B505FE01EE0FFF1FEE5EFE4F6C
:100310000190F081E02DEE0FFF1FE057FD4F60814F
:1003200071816E5F7F4F88E992E0DF91CF910C94ED
:100330009B15FC01EE0FFF1FEE5EFE4F8081918149
:100340000196833091051CF4918380830895118276
:10035000108208958230910599F02CF4009751F0A5
:10036000019759F0089584309105C1F084F0059704
:10037000C1F0089580E090E016C081E090E013C0E5
:1003800086E090E00E94990187E090E00CC084E054
:1003900090E00E94990185E090E005C083E090E044
:1003A00002C082E090E00C9499010F931F93CF93C9
:1003B000DF9386E892E00E94FB0FEC01CF3F8FEFC6
:1003C000D80731F0CE010E94AA01CE010E9464013B
:1003D00080912201882341F102E111E0C0E0D0E0E8
:1003E000D801ED91FD918D01EE0FFF1FE057FD4FFC
:1003F00080819181DC01ED91FC910190F081E02DF3
:1004000009959B01AC01BE0180EB92E00E941E08A1
:100410002196C830D10521F780EB92E0DF91CF9192
:100420001F910F910C940407DF91CF911F910F91B1
:1004300008956F927F928F929F92AF92BF92CF92C8
:10044000EF92FF920F931F93CF93DF93CDB7DEB759
:100450002C970FB6F894DEBF0FBECDBF23E046E069
:1004600068E070E080EB92E00E94F9075CE0C52E46
:100470006BE0E62E0AE029E048E067E088E992E0D8
:100480000E946D0687E190E00E947115FC018AE0F0
:1004900092E09183808381E082831382168A158A99
:1004A000F0939702E09396022FEF40E060E0CE01D8
:1004B00007960E945E1164E371E0CE0101960E94EE
:1004C0007C168BE090E00E9471157C014F8158856D
:1004D00069859E012F5F3F4F0E947511F092910236
:1004E000E0929002CE0101960E940E1620E040E0BC
:1004F0006FEFCE0107960E945E1169E371E0CE01B5
:1005000001960E947C168BE090E00E9471157C01A0
:100510004F81588569859E012F5F3F4F0E9475115D
:10052000F0929302E0929202CE0101960E940E1682
:100530006DE371E0CE0101960E947C162FEF4FEF24
:100540006FEFCE010A960E945E1122E342E36FEF45
:10055000CE0107960E945E118DE090E00E94711519
:100560003C01AF80B884C984EA84FB840C85609127
:100570009602709197028BE18F9388E58F93812C7F
:10058000912C9E012F5F3F4F4CE0C3010E94F01061
:100590007092950260929402CE0101960E940E160E
:1005A00002E010E026E031E046E050E060E070E07C
:1005B00086E892E00E94ED0F61E471E082E692E04D
:1005C0000E947C166DE371E088E692E00E947C1642
:1005D0006DE471E08EE692E00E947C1663E571E0C6
:1005E00084E792E00E947C166EE571E08AE792E073
:1005F0000E947C1663E671E080E892E00E947C161F
:100600000F900F902C960FB6F894DEBF0FBECDBFA3
:10061000DF91CF911F910F91FF90EF90CF90BF90FE
:10062000AF909F908F907F906F900895CF93DF93BE
:10063000C6E8D2E02697CE010E940E1682E0C236AE
:10064000D807C1F780EB92E0DF91CF910C9493062D
:100650008091F30290E02091F402821B91090895A9
:100660002091F4028091F302281750F4E22FF0E079
:10067000EB50FD4F808190E02F5F2093F4020895AE
:100680008FEF9FEF0895E091F4028091F302E81755
:1006900030F4F0E0EB50FD4F808190E008958FEF53
:1006A0009FEF08950895CF92DF92EF92FF920F93FC
:1006B0001F93CF93DF937C01CB018A012091D0025D
:1006C000222389F0EB016B01C40ED51ECC15DD058C
:1006D00069F06991D701ED91FC910190F081E02DD5
:1006E000C7010995F3CF642F0E94C303C801DF91AE
:1006F000CF911F910F91FF90EF90DF90CF900895D1
:10070000CF93DF931F92CDB7DEB769832091D002DC
:100710002223D1F02091D102203240F021E030E0BC
:10072000FC013383228380E090E015C08091D202E7
:10073000E82FF0E0ED52FD4F998190838F5F809319
:10074000D2028093D10205C061E0CE0101960E94E1
:10075000C30381E090E00F90DF91CF910895FC01F9
:100760001382128248EE53E060E070E044835583C8
:10077000668377838CE691E091838083089584EC8F
:1007800092E00C94AF03613298F4209182032430FC
:1007900089F460933703FC0189E393E0DC012A2F9D
:1007A000281B261718F421912D93F9CF80E0089586
:1007B00081E0089582E0089585ED8093BC008091EA
:1007C000BC0084FDFCCF10928203089585EC8093D9
:1007D000BC001092820308951F920F920FB60F92E1
:1007E00011242F933F934F935F936F937F938F9336
:1007F0009F93AF93BF93EF93FF938091B900887F4E
:10080000803609F49EC078F5883209F45DC090F412
:10081000803109F456C038F4882309F4F5C08830D3
:1008200009F44FC0F5C0883109F44EC0803209F494
:100830005FC0EEC0803409F46AC058F4803309F414
:1008400057C0883309F0E4C0809315030E94E60383
:10085000DFC0803509F44FC0883509F45DC08834A5
:1008600009F0D6C0D3C0883909F4C4C0A8F48837C9
:1008700009F467C038F4883609F463C0803709F496
:1008800060C0C6C0883809F4B5C0803909F45FC0BB
:10089000803809F0BDC05BC0803B09F483C038F4E8
:1008A000803A09F466C0883A09F47CC0B1C0803C43
:1008B00009F4A4C0883C09F4A1C0883B09F487C0AE
:1008C000A7C08091810310C090915A038091590371
:1008D000981770F5E0915A0381E08E0F80935A03C8
:1008E000F0E0E55AFC4F80818093BB0085EC83C02B
:1008F000809315038BC0E0915A0381E08E0F8093A3
:100900005A038091BB00F0E0E55AFC4F8083909140
:100910005A03809159036BC0E0915A0381E08E0F16
:1009200080935A038091BB00F0E0E55AFC4F80832E
:100930008091800381116AC081E080937F0384EA03
:100940005EC083E08093820310921603CFCF809124
:100950001603803208F04EC0E091160381E08E0F3E
:10096000809316038091BB00F0E0E95EFC4F80832A
:10097000BDCF0E94E60380911603803230F4E091EF
:100980001603F0E0E95EFC4F10826091160370E000
:10099000E0917B03F0917C0387E193E0099510924D
:1009A000160336C084E080938203109238031092BD
:1009B0003703E0917D03F0917E0309958091370321
:1009C000811105C081E08093370310923903E091D3
:1009D000380381E08E0F80933803F0E0E75CFC4F32
:1009E00080818093BB0090913803809137039817E2
:1009F00008F47CCF85E88093BC000AC085EC809326
:100A0000BC001092820304C0109215030E94DC0304
:100A1000FF91EF91BF91AF919F918F917F916F91D6
:100A20005F914F913F912F910F900FBE0F901F90AC
:100A30001895CF93DF93EC0160E08E810E941D1327
:100A400081E090E00E94581261E08E810E941D13A7
:100A500081E090E00E94581260E08E810E941D1398
:100A600084E690E0DF91CF910C945812EF92FF92C0
:100A70000F931F93CF93DF938C01C0E0D0E0E62E5D
:100A8000F12CB7010C2E02C0759567950A94E2F718
:100A90006170F801EC0FFD1F87810E941D132196E4
:100AA000C430D10571F7C801DF91CF911F910F912B
:100AB000FF90EF900C941905EF92FF920F931F9304
:100AC000CF93DF938C01C0E0D0E0E62EF12CB7018C
:100AD0000C2E02C0759567950A94E2F76170F801D3
:100AE000EC0FFD1F87810E941D132196C830D10590
:100AF00071F7C801DF91CF911F910F91FF90EF9097
:100B00000C9419051F93CF93DF93EC01162F642FDC
:100B10008C810E941D138D818F3F19F060E00E942F
:100B20001D138F85612F84FF06C0CE01DF91CF9109
:100B30001F910C945C0570E084E0759567958A952B
:100B4000E1F7CE010E943605612FCE01DF91CF91F2
:100B50001F910C94360540E00C94820561E00E94E0
:100B6000AB0580ED97E00C945812443008F043E058
:100B7000FC012389421710F04FEF420FFC01E40FF4
:100B8000F11D2489260F2068622F0C94AB05FC010F
:100B90006089262F2460208B6C600C94AB050F932A
:100BA0001F93CF93DF93EC01423018F08F8588605C
:100BB0008F874B8B1C8A80E48D8B6E8B70E0605C22
:100BC0007F4F6F8B222329F0413019F48F85846089
:100BD0008F8761E08C810E94E4128D818F3F19F034
:100BE00061E00E94E41261E08E810E94E41200E064
:100BF00010E08F8584FF03C088E090E002C084E0AD
:100C000090E00817190754F4FE01E00FF11F61E0AE
:100C100087810E94E4120F5F1F4FEBCF80E593ECBA
:100C20000E94581260E08C810E941D1360E08E814A
:100C30000E941D138D818F3F19F060E00E941D13EB
:100C40006F8564FD1DC063E0CE010E94360584E916
:100C500091E10E94581263E0CE010E94360584E9BA
:100C600091E10E94581263E0CE010E94360586E9A8
:100C700090E00E94581262E0CE010E94360516C034
:100C80006062CE010E94AB0584E991E10E94581296
:100C90006F856062CE010E94AB0586E990E00E94FC
:100CA00058126F856062CE010E94AB056F8560624D
:100CB000CE010E94AB0584E0888BCE010E94C7055F
:100CC000CE010E94AE0582E0898B66E0CE01DF9105
:100CD000CF911F910F910C94AB05CF92EF920F9390
:100CE000FC01138212828CE791E0918380836483FC
:100CF0008FEF8583468327830087E186C28613862C
:100D0000148615861686178620E041E060E1CF0143
:100D10000F91EF90CF900C94CF0541E00E94820597
:100D200081E090E00895CF93DF93EC018885998569
:100D3000009711F00E944C198D8187FD05C060E07D
:100D4000DF91CF910C94E412DF91CF910895CF936E
:100D5000DF93EC018D8187FD07C061E00E94E41202
:100D600060E08D810E941D1381E08883DF91CF9127
:100D70000895EF92FF920F931F93CF93DF93EC01AF
:100D80007B0188859985009711F00E944C19870195
:100D9000000F111F0E0D1F1D1C830B83C8010E9425
:100DA000B41899878887009741F0A80160E070E047
:100DB0000E94DD1AFA82E98204C01C821B821A8218
:100DC0001982DF91CF911F910F91FF90EF900895BD
:100DD000FC01668360FF04C081E08287138611C036
:100DE00062FF06C081E0828782E0838714860895CF
:100DF000128663FF04C082E0838781E003C081E044
:100E0000838782E084870895CF92DF92EF92FF92EA
:100E10000F931F93CF93DF93CDB7DEB729970FB60C
:100E2000F894DEBF0FBECDBF8C01DC0118968D910A
:100E30009C911997892B09F49BC00E94FB11F80122
:100E4000C584D684E784F0886C197D098E099F09D2
:100E5000623371058105910580F3F8948381948153
:100E60009A838983A085B1857D01EFEFEE1AFE0A92
:100E70008C918987D80116969C91169751960D9062
:100E8000BC91A02DF801838991FF2EC09C91982BD5
:100E900098879C91809589238F838F818E8388E0AA
:100EA0008D8358856F8149853D812E8189819A8105
:100EB000F7015C9347FD252F3A952C93262F39F0A7
:100EC000441F00C000006C93000000C0F2CF38E067
:100ED00041916C930000019761F7F801B28BA18BEF
:100EE00049873D832E8338C09C91982B98879C918D
:100EF000809589238F838F818C8388E08B835885AD
:100F00006F8149853B812C8189819A81F7015C93AE
:100F100047FD252F00C000C02C9300C000C000C0BA
:100F200000C000C06C930000262F3A9541F0441F8A
:100F3000000000C000C000C000C000C0E8CF38E022
:100F4000419100C06C9300C0019709F7F801B28B82
:100F5000A18B49873B832C839A83898378940E9451
:100F6000FB11D8011D966D937D938D939C935097A3
:100F700029960FB6F894DEBF0FBECDBFDF91CF919B
:100F80001F910F91FF90EF90DF90CF9008951F93E6
:100F9000CF93DF93EC01162F8881882331F08D8168
:100FA00087FD03C060E00E94E4121D8388818823CE
:100FB00041F061E0812F0E94E41260E0812F0E94E5
:100FC0001D13812F90E0FC01E05BFE4FE491F0E007
:100FD000EE0FFF1FEC59FE4F259134913A8B298B70
:100FE000FC01E45CFE4F84918B8BDF91CF911F91CC
:100FF00008950F931F93CF93DF9300D0CDB7DEB743
:101000008C01FC01108217821186108615861686C7
:101010001786108A2A8349830E94B9064981642F62
:10102000C8010E94C7072A81622FC8010F900F9044
:10103000DF91CF911F910F910C94E806CF92DF9230
:10104000EF92FF920F931F93CF93DF93FC01818167
:1010500092816817790788F5CA01AA27BB27082F4C
:10106000C32ED42EE52EFF241C2DD22FC781CC23D6
:1010700061F08C9FC0011124092FCC9E60011124C6
:101080001D2D2C9F90011124D32F9B01220F331F64
:10109000260F371F80859185820F931F2285DC01E3
:1010A000A20FB11D0C932385DC01A20FB11D1C936F
:1010B0002485FC01E20FF11DD083DF91CF911F91B8
:1010C0000F91FF90EF90DF90CF900895FC018589FC
:1010D000968908950895CF92DF92EF92FF920F9331
:1010E0001F93CF93DF931F92CDB7DEB76C017A01C8
:1010F000DC01ED91FC9102A4F3A5E02D2983099573
:10110000D601ED91FC9104A4F5A5E02DC601099549
:10111000D601ED91FC9100A4F1A5E02D9801498143
:10112000B701C6010F90DF91CF911F910F91FF90F2
:10113000EF90DF90CF9009940F931F93CF93DF939D
:1011400000D01F92CDB7DEB78C016983D801ED9135
:10115000FC9100A0F1A1E02DC8014A835B830995B1
:10116000D801ED91FC9102A0F3A1E02D4A815B81B1
:10117000BE016F5F7F4FC80109950F900F900F90D0
:10118000DF91CF911F910F9108950F931F93CF93EC
:10119000DF93CDB7DEB7A0970FB6F894DEBF0FBED2
:1011A000CDBF8C01DC01ED91FC9102A4F3A5E02DF3
:1011B00060E871E00995D801ED91FC9100A4F1A5DA
:1011C000E02D28EE33E040E2BE016F5F7F4FC801A3
:1011D0000995A0960FB6F894DEBF0FBECDBFDF9184
:1011E000CF911F910F9108950F931F93CF93DF938A
:1011F000CDB7DEB7A0970FB6F894DEBF0FBECDBF58
:10120000DC01ED91FC910288F389E02D08E91AE3F5
:1012100020E2AE014F5F5F4F64E871E00995A09650
:101220000FB6F894DEBF0FBECDBFDF91CF911F91F7
:101230000F910895EF92FF920F931F93CF93DF9337
:10124000CDB7DEB728970FB6F894DEBF0FBECDBF7F
:101250008C011F926F93DC0112968C911F928F93D9
:101260008AE891E09F938F93FE0131967F01FF9270
:10127000EF930E94181BD801ED91FC9102A4F3A5F5
:10128000E02DB701C80109950FB6F894DEBF0FBE77
:10129000CDBF28960FB6F894DEBF0FBECDBFDF914D
:1012A000CF911F910F91FF90EF9008955F926F92F1
:1012B0007F928F929F92AF92BF92CF92DF92EF92E6
:1012C000FF920F931F93CF93DF93CDB7DEB7C35831
:1012D000D1090FB6F894DEBF0FBECDBF7C01772ECB
:1012E000842E522E632E962EC62ED72E8E010F5F81
:1012F0001F4FB8018AE8A82E81E0B82E8C2D8919DD
:10130000881558F5D6018D916D011F928F93F701C5
:1013100082811F928F93BF92AF921F930F93CE57EC
:10132000DF4F6883C258D040CD57DF4F7883C35812
:10133000D0400E94181B080F191F0FB6F894DEBF8B
:101340000FBECDBFCD57DF4F7881C358D040CE57A9
:10135000DF4F6881C258D040D1CFD701ED91FC91C9
:1013600002A4F3A5E02DC7010995C52CD62C092DA3
:10137000172DB12C802F89198815D0F4F80181918F
:101380008F01CF57DF4F8883C158D040D701ED91EF
:10139000FC9102A0F3A1E02DA601BE016F577F4F83
:1013A000C70109958111B394B2E0CB0ED11CE2CFF5
:1013B0008B2DCD57DF4F0FB6F894DEBF0FBECDBFDC
:1013C000DF91CF911F910F91FF90EF90DF90CF9021
:1013D000BF90AF909F908F907F906F905F90089597
:1013E000EF92FF920F931F93CF93DF93CDB7DEB7AA
:1013F000A0970FB6F894DEBF0FBECDBF8C01CE0113
:1014000001967C016115710559F4D801ED91FC91AB
:1014100002A4F3A5E02D64E971E0C801099519C0A3
:101420007F936F938CE991E09F938F93FF92EF925C
:101430000E94181BD801ED91FC9102A4F3A5E02DA8
:10144000B701C80109950F900F900F900F900F9062
:101450000F90D801ED91FC9100A4F1A5E02D28E9B1
:101460003AE340E2B701C8010995882341F064EAF4
:1014700071E0C7010E94F61A21E0892B09F420E0EF
:10148000822FA0960FB6F894DEBF0FBECDBFDF91BE
:10149000CF911F910F91FF90EF900895FC01168A54
:1014A000158A8CE893E00C949A146F37C8F4EFEF28
:1014B000E60F4E2F477020E830E002C035952795A3
:1014C0004A95E2F7F0E033E0F595E7953A95E1F7D4
:1014D000E80FF91F9481922381E019F480E00895C8
:1014E00081E008956115710581F0DB010D90002008
:1014F000E9F7AD0141505109461B570BDC01ED9155
:10150000FC910280F381E02D099480E090E0089541
:101510008CE893E00C94720AFC01219130E080E0A9
:1015200090E02223F1F03430E4F44FEB420F4630E8
:1015300010F427500CC04FE9420F463010F42752E8
:1015400006C0203261F040ED420F4A3050F444E0D2
:10155000880F991F4A95E1F72F70822B3F5F2191E9
:10156000E0CF0895CB010C948C0AFC01208181818D
:101570009FEB920F963010F427500AC09FE9920F0C
:10158000963010F4275204C090ED920F9A30B8F4C0
:101590009FEB980F963010F487500AC09FE9980F80
:1015A000963010F4875204C090ED980F9A3038F4BA
:1015B0008F70F0E12F9F90011124822B089580E01D
:1015C0000895CB010E94B50A24E6829FC001112430
:1015D0006FEF70E00E942B18862F0895CB010C94BA
:1015E000B50ACB010E94B50A90E0889708959F92B2
:1015F000AF92BF92CF92DF92EF92FF920F931F9321
:10160000CF93DF937C016B015A01922ED701ED91AC
:10161000FC9100A4F1A5E02D28EE33E0492DB501A1
:10162000C7010995882321F1CA2DDB2D67EA71E0F6
:10163000CE010E94F61A8C01009741F3E80123962F
:10164000CE010E94B50AD6019C91911101C08C93E4
:10165000F60190818913EACFD70113961C92E80115
:101660002596F8018581803209F7C801069602C0E7
:1016700080E090E0DF91CF911F910F91FF90EF906C
:10168000DF90CF90BF90AF909F9008950F931F93DE
:10169000CF93DF93EB01242FDC01ED91FC910288C5
:1016A000F389E02D08E91AE3AB016BEA71E00995D3
:1016B000882319F161EB71E0CE010E94F61A0097C0
:1016C000E1F00A968C010F5F1F4FF8018081803294
:1016D00051F4C80101960E94B50A888381112196B0
:1016E0000D5F1F4FF2CF6AE370E0C8010E94E41A59
:1016F000009741F7188281E001C080E0DF91CF912F
:101700001F910F9108959F92AF92BF92CF92DF9257
:10171000EF92FF920F931F93CF93DF93CDB7DEB776
:10172000C954D1090FB6F894DEBF0FBECDBF8C01EE
:101730006B0188E0E4E2F1E0DE01AF5BBF4F0190B6
:101740000D928A95E1F781E090E0D80156969C933E
:101750008E9355977E01B1E4EB0EF11C5701E8E042
:10176000AE0EB11CD7016D917D917D01D801ED9137
:10177000FC9102A4F3A5E02DC8010995D801ED91D3
:10178000FC9100A4F1A5E02D28E93AE340E4BE0174
:101790006F5F7F4FC8010995811104C0F801168A57
:1017A000158A6BC062E370E080E090E00E941E1238
:1017B000EA14FB04B9F6C114D10449F0D801ED9143
:1017C000FC910088F189E02DB601C801099580E1FE
:1017D000F8013496DF011D928A95E9F75801912CA2
:1017E0002A969FAE2A97D801ED91FC9100A0F1A115
:1017F000E02D692DC8010995D801ED91FC9106A055
:10180000F7A1E02D20E4AE014F5F5F4FBE01675BA3
:101810007F4FC8010995009749F16C01E12CF12C2B
:10182000F60131978081803279F064E670E080E0E3
:1018300090E00E941E12B0E29B0EE4E0AE0EB11CDE
:10184000F0E89F12CDCF12C0C6010E94B50AF50183
:10185000EE0DFF1D84838FEFE81AF80AA3E0CA0E8D
:10186000D11CB4E0EB16F104D9F6DFCF82E090E0B2
:10187000F801968B858B138281E0C75BDF4F0FB633
:10188000F894DEBF0FBECDBFDF91CF911F910F91B6
:10189000FF90EF90DF90CF90BF90AF909F90089512
:1018A0000F931F93CF93DF93062FBA0110E00450DC
:1018B0001109DC01CD91DC910036110508F085C0DD
:1018C0000C5C1F4FF8010C949418E8A9F9A909952C
:1018D000BC0176956795769567957CC0EAA9FBA9CA
:1018E0000995F3E08F9FB001112474C0ECA9FDA904
:1018F00015C0EEA5FFA56BC0E8A9F9A9099564E696
:1019000070E016C0EAA9FBA909958695282F30E05A
:10191000B901605471095EC0E8A9F9A9DF91CF91BE
:101920001F910F910994E8A9F9A9099568EE73E050
:101930000E942B184FC0E8A9F9A9099564E170E04D
:10194000F7CFEAA9FBA90995282F30E0B9016D5717
:10195000710940C0EAA9FBA9099590E08058910956
:1019600044E6489F9001499F300D112437FF02C083
:1019700021583F4FB901660F672F661F770B2AC0AA
:10198000E8A9F9A90995BC0180E090E079568109A0
:10199000910920E830E040E050E00E947518B9015C
:1019A00019C0E8A9F9A909956AE070E00E942B180E
:1019B000685271090FC0E8A9F9A909959C01A8EC22
:1019C000B0E00E949A18BC0105C0EAA9FBA90995DC
:1019D000682F70E0CB01DF91CF911F910F91089597
:1019E000FB012081822F992787FD9095C0970A9748
:1019F00090F02D3281F06DE070E0CF010E94E41A8A
:101A0000009759F0FC013196DC0111962C912A3097
:101A100041F73196E6CFCF01089580E090E0089538
:101A2000EF92FF920F931F93CF93DF93CDB7DEB763
:101A3000A0970FB6F894DEBF0FBECDBF7C01DC01CE
:101A4000ED91FC910288F389E02D08E91AE320E288
:101A5000AE014F5F5F4F61ED71E00995882359F04A
:101A6000BE016F5F7F4FC7010E94F00C009719F015
:101A70000E94AA1A03C060E070E0CB01A0960FB6E6
:101A8000F894DEBF0FBECDBFDF91CF911F910F91B4
:101A9000FF90EF900895EF92FF920F931F93CF93D3
:101AA000DF93CDB7DEB7A0970FB6F894DEBF0FBEB9
:101AB000CDBF7C01DC01ED91FC910288F389E02D22
:101AC00008E91AE320E2AE014F5F5F4F67ED71E076
:101AD00009958823D1F0BE016F5F7F4FC7010E9437
:101AE000F00C0097D1F00E94AE1A84589F4CBC01B4
:101AF000882777FD8095982F0E94181720E030E006
:101B00004AEA53E40E94AE1604C060E070E08AE73F
:101B100094EC562F472F382F292F652F742F832FA2
:101B2000922FA0960FB6F894DEBF0FBECDBFDF9107
:101B3000CF911F910F91FF90EF9008958F929F92F8
:101B4000AF92BF92CF92DF92EF92FF920F931F93CB
:101B5000CF93DF93CDB7DEB7A0970FB6F894DEBF73
:101B60000FBECDBF7C014B015A016901DC01ED9133
:101B7000FC910288F389E02D08E91AE320E2AE0126
:101B80004F5F5F4F6FED71E00995811102C080E0FA
:101B900030C0BE016F5F7F4FC7010E94F00C0097FD
:101BA000B1F37C01BFEFEB1AFB0A0E94AE1AF401FD
:101BB000918380836CE270E0C7010E94E41A009771
:101BC00031F37C01FFEFEF1AFF0AC7010E94AE1A42
:101BD000D5018D939C936CE270E0C7010E94E41ADA
:101BE0000097A9F201960E94AE1AF60191838083B4
:101BF00081E0A0960FB6F894DEBF0FBECDBFDF9197
:101C0000CF911F910F91FF90EF90DF90CF90BF90F9
:101C1000AF909F908F9008958F929F92AF92BF92B6
:101C2000CF92DF92EF92FF920F931F93CF93DF93A8
:101C3000CDB7DEB7A0970FB6F894DEBF0FBECDBF0D
:101C40007C014B015A016901DC01ED91FC91028894
:101C5000F389E02D08E91AE320E2AE014F5F5F4F00
:101C600066EE71E00995811102C080E030C0BE01CE
:101C70006F5F7F4FC7010E94F00C0097B1F37C01AA
:101C8000BFEFEB1AFB0A0E94AE1AF4019183808326
:101C90006CE270E0C7010E94E41A009731F37C0106
:101CA000FFEFEF1AFF0AC7010E94AE1AD5018D930C
:101CB0009C936CE270E0C7010E94E41A0097A9F2BD
:101CC00001960E94AE1AF6019183808381E0A0966E
:101CD0000FB6F894DEBF0FBECDBFDF91CF911F913D
:101CE0000F91FF90EF90DF90CF90BF90AF909F90BB
:101CF0008F9008950F931F93CF93DF93CDB7DEB7E7
:101D000060970FB6F894DEBF0FBECDBFDC01ED913A
:101D1000FC910288F389E02D08E91AE320E1AE0185
:101D20004F5F5F4F6EEE71E0099560960FB6F894C5
:101D3000DEBF0FBECDBFDF91CF911F910F910895F0
:101D4000CF92DF92EF92FF920F931F93CF93DF9387
:101D5000CDB7DEB7C054D1090FB6F894DEBF0FBEC1
:101D6000CDBF8C017B016A01DC01ED91FC9106A0E5
:101D7000F7A1E02D20E4AE014F5F5F4F099500977A
:101D800049F4C8010E947A0EF80183818F5F838332
:101D900080E00AC0AC01D7016C91C8010E94500CD0
:101DA000F6019183808381E0C05CDF4F0FB6F89429
:101DB000DEBF0FBECDBFDF91CF911F910F91FF907E
:101DC000EF90DF90CF900895EF92FF920F931F93C3
:101DD000CF93DF93CDB7DEB7A0970FB6F894DEBFF1
:101DE0000FBECDBF7C0126E040E056E960E070E028
:101DF0008CE893E00E943814C7010E947A0ED70144
:101E000054961C925497ED91FC910288F389E02D31
:101E100008EC10E020E2AE014F5F5F4F62EF71E02F
:101E2000C70109958823B1F067EF71E0CE010196F3
:101E30000E94F61A009771F0FC01238520538185DA
:101E4000880F8056982F990F990F980F290FD70157
:101E500054962C93A0960FB6F894DEBF0FBECDBF5C
:101E6000DF91CF911F910F91FF90EF900895CF9246
:101E7000DF92EF92FF92CF93DF93EC016A017B0137
:101E80006FEF71E08CE893E00E94A9152AE030E042
:101E9000B701A6018CE893E00E9401166DE08CE882
:101EA00093E00E94AB1562E370E080E090E00E9456
:101EB0001E128CE893E00E949A1426E0B701A60156
:101EC0008CE893E00E943814CE010E947A0E81E0E3
:101ED000DF91CF91FF90EF90DF90CF9008954F92D8
:101EE0005F926F927F929F92AF92BF92CF92DF925A
:101EF000EF92FF920F931F93CF93DF935C01EB015F
:101F0000E42E69010E94EF112B013C01912CF12C70
:101F100081E0E81AF1088CE893E00E945513892BC0
:101F200069F18CE893E00E946E1392E0991510F429
:101F30008E33E9F1209701F1292D30E02E153F0570
:101F400054F78E32A9F4A2E0A91590F4AE01420F25
:101F5000531FFA01319790819E3251F4319790814D
:101F60009E3231F4912CF8E9CF2EFAE3DF2ED3CF55
:101F7000FE01E20FF31F80839394CDCF0E94EF11F7
:101F800064197509860997098601222717FD20958E
:101F9000322F061717072807390748F0D501ED91AA
:101FA000FC9104A4F5A5E02DC5010995B4CF2097B7
:101FB00019F0C90DD11D1882892DDF91CF911F9184
:101FC0000F91FF90EF90DF90CF90BF90AF909F90D8
:101FD0007F906F905F904F9008950F931F93FC0137
:101FE00071836083538342833583248317830683FD
:101FF0001F910F910895CF93DF93EC0188810E9488
:102000009E1228853985232B09F56A817B8120E082
:1020100030E026173707D4F4EC81FD81A901440F85
:10202000551FE40FF51F40815181FC01E41BF50BA6
:10203000AF01F7FF03C0519541955109EE81FF8132
:10204000E417F5072CF42F5F3F4FE3CF2FEF3FEF5F
:1020500099878887C901DF91CF9108952F923F9288
:102060004F926F927F928F92CF92DF92EF92FF9278
:102070000F931F93CF93DF93EC011A01462E380183
:10208000822E0E945911CE0103960E945911288276
:1020900039824A826B827C828D82FF82EE82D9866F
:1020A000C886DF91CF911F910F91FF90EF90DF9045
:1020B000CF908F907F906F904F903F902F9008958A
:1020C000FC0186819781681779073CF0208531856E
:1020D000CB01261737070CF4C9010895CF93FC01F3
:1020E000C62FA681B781461B2A1B3B0B60857185D5
:1020F0006A1B7B0BC9010E943F188C2F469F800DE5
:102100001124CF910895CF92DF92EF92FF920F9317
:102110001F93CF93DF9300D01F92CDB7DEB78C0112
:102120000E9460107C019C01F80145816281C80118
:102130000E946E10C82E9701F80144816181C80188
:102140000E946E10D82E9701F80143816081C8016A
:102150000E946E102C2D4D2D682FCE0101960E94ED
:102160005E11CE0101960E9463110F900F900F90A7
:10217000DF91CF911F910F91FF90EF90DF90CF9063
:1021800008950F931F93CF93DF9300D0CDB7DEB7A1
:102190008C01DC0118968D919C911997DC01ED91D1
:1021A000FC910284F385E02DAE014F5F5F4FD801B3
:1021B0001A966C910995F80123853485882331F0AE
:1021C00069817A81C9010E94831003C0C9010E94FC
:1021D00063110F900F90DF91CF911F910F91089590
:1021E0002F923F924F926F927F928F929F92AF92D7
:1021F000BF92CF92DF92EF92FF920F931F93CF93F4
:10220000DF93CDB7DEB727970FB6F894DEBF0FBECA
:10221000CDBF3C017A836983D42E1701402EAB8257
:10222000BC82CD82740184E492E0F30181939193A6
:102230008F0160ED71E0CF012E833F830E947C16F9
:102240008AE492E0F3019183808389819A81918766
:102250008087D2862E813F81B901C8010E949216E3
:102260008AE090E00E9471155C01CB8CDC8C0B81C4
:102270001C812D81642DA1010E942E10F301B486D2
:10228000A38627960FB6F894DEBF0FBECDBFDF91B1
:10229000CF911F910F91FF90EF90DF90CF90BF9063
:1022A000AF909F908F907F906F904F903F902F9026
:1022B0000895FC011082118212820895FC0160834E
:1022C000418322830895FC0120816181862F90E063
:1022D000A0E0B0E06627782F892F9A2F822B2281E9
:1022E000622B089508960C946311AF92BF92CF921F
:1022F000DF92EF920F931F93CF93DF93EC016A016C
:10230000E62E590184E492E0FE01819391938F01BE
:1023100060ED71E0CF010E947C1680E592E0998328
:102320008883CE0108960E945911C886D986EA860C
:10233000B501C801DF91CF911F910F91EF90DF9010
:10234000CF90BF90AF900C9492161F920F920FB641
:102350000F9211242F933F938F939F93AF93BF932B
:102360008091840390918503A0918603B0918703A7
:102370003091830323E0230F2D3720F40196A11D14
:10238000B11D05C026E8230F0296A11DB11D2093A3
:1023900083038093840390938503A0938603B09373
:1023A00087038091880390918903A0918A03B0915B
:1023B0008B030196A11DB11D80938803909389031F
:1023C000A0938A03B0938B03BF91AF919F918F919C
:1023D0003F912F910F900FBE0F901F9018952FB720
:1023E000F8946091840370918503809186039091A5
:1023F00087032FBF08953FB7F89480918803909189
:102400008903A0918A03B0918B0326B5A89B05C0D0
:102410002F3F19F00196A11DB11D3FBF6627782FF0
:10242000892F9A2F620F711D811D911D42E0660F49
:10243000771F881F991F4A95D1F708958F929F9211
:10244000AF92BF92CF92DF92EF92FF926B017C012D
:102450000E94FB114B015C01C114D104E104F104A1
:10246000F1F00E94A9160E94FB11681979098A09E6
:102470009B09683E73408105910570F321E0C21A03
:10248000D108E108F10888EE880E83E0981EA11CAF
:10249000B11CC114D104E104F10429F7DDCFFF9090
:1024A000EF90DF90CF90BF90AF909F908F90089566
:1024B0008230910538F0880F991F880F991F059772
:1024C0000197F1F70895789484B5826084BD84B54E
:1024D000816084BD85B5826085BD85B5816085BD1F
:1024E000EEE6F0E0808181608083E1E8F0E0108238
:1024F000808182608083808181608083E0E8F0E079
:10250000808181608083E1EBF0E080818460808362
:10251000E0EBF0E0808181608083EAE7F0E0808199
:1025200084608083808182608083808181608083F9
:102530008081806880831092C10008958E3008F0F9
:102540008E5087702091230190E4299F90011124DF
:10255000822B80937C0080917A00806480937A0043
:1025600080917A0086FDFCCF8091780020917900DF
:1025700090E0922B0895833081F028F4813099F017
:102580008230A1F008958730A9F08830B9F0843006
:10259000D1F4809180008F7D03C0809180008F777F
:1025A00080938000089584B58F7702C084B58F7DB5
:1025B00084BD08958091B0008F7703C08091B000F2
:1025C0008F7D8093B0000895CF93DF9390E0FC015E
:1025D000E45CFE4F2491FC01E05BFE4F8491882374
:1025E00049F190E0880F991FFC01E259FE4FA59137
:1025F000B4918C599E4FFC01C591D4919FB7611144
:1026000008C0F8948C91209582238C938881822332
:102610000AC0623051F4F8948C91322F30958323A4
:102620008C938881822B888304C0F8948C91822BB0
:102630008C939FBFDF91CF9108950F931F93CF93FA
:10264000DF931F92CDB7DEB7282F30E0F901E85DA8
:10265000FE4F8491F901E45CFE4F1491F901E05BB7
:10266000FE4F04910023C9F0882321F069830E9462
:10267000BB126981E02FF0E0EE0FFF1FEC59FE4F17
:10268000A591B4919FB7F8948C91611103C01095F6
:10269000812301C0812B8C939FBF0F90DF91CF913D
:1026A0001F910F9108950E94A51AFC01818D228D22
:1026B00090E0805C9F4F821B91098F73992708954A
:1026C000FC01918D828D981731F0828DE80FF11DFC
:1026D000858D90E008958FEF9FEF0895FC01918D17
:1026E000828D981761F0828DDF01A80FB11D5D9674
:1026F0008C91928D9F5F9F73928F90E008958FEFE2
:102700009FEF089584E195E1892B49F080E090E006
:10271000892B29F00E94141581110C940000089552
:10272000FC01848DDF01A80FB11DA35ABF4F2C916E
:10273000848D90E001968F739927848FA689B7893D
:102740002C93A089B1898C9180648C93938D848D16
:10275000981306C00288F389E02D80818F7D8083E5
:102760000895CF93DF93EC01888D8823C9F0EA891F
:10277000FB89808185FD05C0A889B9898C9186FD7A
:102780000FC00FB607FCF5CF808185FFF2CFA88977
:10279000B9898C9185FFEDCFCE010E949013E7CFD0
:1027A000DF91CF910895CF92DF92FF920F931F9305
:1027B000CF93DF931F92CDB7DEB76C0181E0D601D6
:1027C00058968C9358975B969C915B975C968C91EE
:1027D0005C97981307C05096ED91FC9151978081BA
:1027E00085FD2EC0F601038D10E00F5F1F4F0F73A4
:1027F0001127F02EF601848DF81211C00FB607FCD8
:10280000F9CFD6015096ED91FC915197808185FFCB
:10281000F1CFC60169830E9490136981EBCF838D4C
:10282000E80FF11DE35AFF4F6083D6015B960C93CE
:102830005B975296ED91FC915397808180620CC01A
:10284000D6015696ED91FC91579760835096ED9185
:10285000FC91519780818064808381E090E00F90AB
:10286000DF91CF911F910F91FF90DF90CF9008954E
:10287000BF92CF92DF92EF92FF92CF93DF93EC0162
:102880006A017B01B22EE889F98982E080834115D3
:1028900081EE580761057105A1F060E079E08DE3F4
:1028A00090E0A70196010E94531821503109410977
:1028B00051095695479537952795211580E1380799
:1028C00098F0E889F989108260E874E88EE190E078
:1028D000A70196010E94531821503109410951095D
:1028E0005695479537952795EC85FD853083EE8580
:1028F000FF852083188EEC89FD89B082EA89FB89E7
:10290000808180618083EA89FB89808188608083FF
:10291000EA89FB89808180688083EA89FB898081DC
:102920008F7D8083DF91CF91FF90EF90DF90CF90EC
:10293000BF900895CF93DF93EC01E881F981028481
:10294000F385E02D0995EA89FB8980818F7E80835C
:10295000EA89FB898081877F8083EA89FB8980817E
:102960008F778083EA89FB8980818F7D80838A8D40
:10297000898FDF91CF9108951F920F920FB60F921A
:1029800011242F938F939F93EF93FF93E0919C03D8
:10299000F0919D038081E091A203F091A30382FD59
:1029A00012C090818091A5038F5F8F732091A60341
:1029B000821751F0E091A503F0E0E457FC4F958FAA
:1029C0008093A50301C08081FF91EF919F918F912A
:1029D0002F910F900FBE0F901F9018951F920F927E
:1029E0000FB60F9211242F933F934F935F936F93E2
:1029F0007F938F939F93AF93BF93EF93FF938CE855
:102A000093E00E949013FF91EF91BF91AF919F913E
:102A10008F917F916F915F914F913F912F910F9087
:102A20000FBE0F901F9018958CE893E00E945513ED
:102A300021E0892B09F420E0822F089510928F0362
:102A400010928E0388EE93E0A0E0B0E080939003B4
:102A500090939103A0939203B093930386E592E041
:102A600090938D0380938C0385EC90E09093990371
:102A70008093980384EC90E090939B0380939A0357
:102A800080EC90E090939D0380939C0381EC90E018
:102A900090939F0380939E0382EC90E09093A10318
:102AA0008093A00386EC90E09093A3038093A2030D
:102AB0001092A5031092A6031092A7031092A803E8
:102AC000089508950E9463120E9461150E940801F2
:102AD000C2E8D3E10E94D5012097E1F30E9482135E
:102AE000F9CF0C94B418CF92DF92EF92FF920F932C
:102AF0001F93CF93DF937C016A01EB0100E010E0AC
:102B00000C151D0571F06991D701ED91FC910190B3
:102B1000F081E02DC7010995892B19F00F5F1F4F38
:102B2000EFCFC801DF91CF911F910F91FF90EF90F0
:102B3000DF90CF900895DC01ED91FC91DB011496BC
:102B40004D915C9115976D917C910280F381E02D00
:102B500009940C94720ADC01ED91FC910190F081D2
:102B6000E02D09948F929F92AF92BF92DF92EF92E5
:102B7000FF920F931F93CF93DF93CDB7DEB7A1974B
:102B80000FB6F894DEBF0FBECDBF7C01F42FD52E5B
:102B9000CB0119A2223008F42AE08E010F5D1F4FED
:102BA000822E912CA12CB12C6F2F7D2DA50194018B
:102BB0000E945318F22FD32ECA01015011096A3016
:102BC00014F4E0E301C0E7E3E60FD801EC93232B14
:102BD000242B252B49F7B801C7010E94720AA19640
:102BE0000FB6F894DEBF0FBECDBFDF91CF911F911E
:102BF0000F91FF90EF90DF90BF90AF909F908F90DC
:102C000008952115310541F4DC01ED91FC9101900D
:102C1000F081E02D642F09940C94B215FC018081A1
:102C200091810C944C19CF93DF93EC0188819981A9
:102C3000009711F00E944C19198218821D821C8283
:102C40001B821A82DF91CF9108950F931F93CF9328
:102C5000DF93EC018B016F5F7F4F888199810E9428
:102C6000DB19009731F0998388831B830A8381E005
:102C700001C080E0DF91CF911F910F910895CF9314
:102C8000DF93EC0188819981892B29F08A819B81CE
:102C90008617970760F4CE010E942516882341F01D
:102CA0008C819D81892B19F4E881F981108281E062
:102CB000DF91CF910895EF92FF920F931F93CF93DF
:102CC000DF93EC017B018A01BA010E943F1681115A
:102CD00004C0CE010E94131607C01D830C83B701E8
:102CE000888199810E94EF1ACE01DF91CF911F91C7
:102CF0000F91FF90EF900895FC01118210821382D2
:102D00001282158214826115710559F0FB01019040
:102D10000020E9F7AF0141505109461B570B0C94B5
:102D20005B160895CF93DF93EC01FB01861797079D
:102D300061F0608171816115710529F044815581CF
:102D40000E945B1602C00E941316CE01DF91CF9144
:102D500008950895A8D008F481E008950CD0DEC04D
:102D6000D6D040F0CDD030F021F45F3F19F0BFC095
:102D7000511108C1C2C0E3D098F39923C9F3552378
:102D8000B1F3951B550BBB27AA276217730784075E
:102D900038F09F5F5F4F220F331F441FAA1FA9F314
:102DA00033D00E2E3AF0E0E830D091505040E69506
:102DB000001CCAF729D0FE2F27D0660F771F881F67
:102DC000BB1F261737074807AB07B0E809F0BB0B56
:102DD000802DBF01FF2793585F4F2AF09E3F51057A
:102DE00068F085C0CFC05F3FECF3983EDCF386957A
:102DF00077956795B795F7959F5FC9F7880F911DF0
:102E00009695879597F90895E1E0660F771F881FDB
:102E1000BB1F621773078407BA0720F0621B730B8E
:102E2000840BBA0BEE1F88F7E0950895E89409C06B
:102E300097FB3EF490958095709561957F4F8F4FED
:102E40009F4F9923A9F0F92F96E9BB279395F69503
:102E5000879577956795B795F111F8CFFAF4BB0F81
:102E600011F460FF1BC06F5F7F4F8F4F9F4F16C0E5
:102E7000882311F096E911C0772321F09EE8872F6F
:102E8000762F05C0662371F096E8862F70E060E02B
:102E90002AF09A95660F771F881FDAF7880F9695A4
:102EA000879597F90895990F0008550FAA0BE0E848
:102EB000FEEF16161706E807F907C0F012161306FC
:102EC000E407F50798F0621B730B840B950B39F43C
:102ED0000A2661F0232B242B252B21F408950A26A2
:102EE00009F4A140A6958FEF811D811D089597F9E2
:102EF0009F6780E870E060E008959FEF80EC0895A0
:102F000000240A94161617061806090608950024C8
:102F10000A9412161306140605060895092E039442
:102F2000000C11F4882352F0BB0F40F4BF2B11F4B6
:102F300060FF04C06F5F7F4F8F4F9F4F089557FD15
:102F40009058440F551F59F05F3F71F04795880F17
:102F500097FB991F61F09F3F79F0879508951216AE
:102F600013061406551FF2CF4695F1DF08C016165A
:102F700017061806991FF1CF86957105610508940B
:102F80000895E894BB2766277727CB0197F9089522
:102F90000BD0C4CFB5DF28F0BADF18F0952309F0C5
:102FA000A6CFABCF1124EECFCADFA0F3959FD1F30C
:102FB000950F50E0551F629FF001729FBB27F00DE7
:102FC000B11D639FAA27F00DB11DAA1F649F66273C
:102FD000B00DA11D661F829F2227B00DA11D621F8B
:102FE000739FB00DA11D621F839FA00D611D221F45
:102FF000749F3327A00D611D231F849F600D211D29
:10300000822F762F6A2F11249F5750408AF0E1F0CB
:1030100088234AF0EE0FFF1FBB1F661F771F881F14
:1030200091505040A9F79E3F510570F060CFAACF54
:103030005F3FECF3983EDCF3869577956795B795FF
:10304000F795E7959F5FC1F7FE2B880F911D969529
:10305000879597F90895AA1BBB1B51E107C0AA1FCA
:10306000BB1FA617B70710F0A61BB70B881F991F29
:103070005A95A9F780959095BC01CD01089597FBCD
:10308000072E16F4009407D077FD09D00E942B1864
:1030900007FC05D03EF4909581959F4F089570955B
:1030A00061957F4F0895A1E21A2EAA1BBB1BFD015B
:1030B0000DC0AA1FBB1FEE1FFF1FA217B307E40717
:1030C000F50720F0A21BB30BE40BF50B661F771F6F
:1030D000881F991F1A9469F760957095809590954F
:1030E0009B01AC01BD01CF010895052E97FB1EF495
:1030F00000940E948C1857FD07D00E94531807FCBB
:1031000003D04EF40C948C18509540953095219531
:103110003F4F4F4F5F4F0895909580957095619503
:103120007F4F8F4F9F4F0895EE0FFF1F0590F49133
:10313000E02D0994A29FB001B39FC001A39F700D21
:10314000811D1124911DB29F700D811D1124911DAF
:1031500008950E949A18A59F900DB49F900DA49F6A
:10316000800D911D11240895CF93DF938230910536
:1031700010F482E090E0E0912B04F0912C0420E028
:1031800030E0A0E0B0E0309739F14081518148173C
:103190005907B8F04817590771F482819381109745
:1031A00029F013969C938E9312972CC090932C0425
:1031B00080932B0427C02115310531F042175307A6
:1031C00018F0A901DB0101C0EF019A01BD01DF0187
:1031D0000280F381E02DD7CF21153105F9F0281BAE
:1031E000390B2430310580F48A819B81611571058A
:1031F00021F0FB019383828304C090932C0480937D
:103200002B04FE01329644C0FE01E20FF31F8193AE
:10321000919322503109398328833AC0209129049F
:1032200030912A04232B41F42091020130910301B3
:1032300030932A0420932904209100013091010148
:103240002115310541F42DB73EB74091040150914D
:103250000501241B350BE0912904F0912A04E217A3
:10326000F307A0F42E1B3F0B2817390778F0AC01A9
:103270004E5F5F4F2417350748F04E0F5F1F509386
:103280002A04409329048193919302C0E0E0F0E086
:10329000CF01DF91CF910895CF93DF93009709F489
:1032A00087C0FC01329713821282C0912B04D09107
:1032B0002C04209781F420813181280F391F8091BF
:1032C000290490912A048217930779F5F0932A0430
:1032D000E09329046DC0DE0120E030E0AE17BF07A7
:1032E00050F412964D915C9113979D014115510533
:1032F00009F1DA01F3CFB383A28340815181840FB6
:10330000951F8A179B0771F48D919C911197840FDB
:10331000951F02969183808312968D919C911397AD
:10332000938382832115310529F4F0932C04E093D3
:103330002B043EC0D9011396FC93EE9312974D9146
:103340005D91A40FB51FEA17FB0779F48081918185
:10335000840F951F0296D90111969C938E938281BA
:10336000938113969C938E931297E0E0F0E08A810C
:103370009B81009719F0FE01EC01F9CFCE01029676
:1033800028813981820F931F2091290430912A04CA
:103390002817390769F4309729F410922C041092F9
:1033A0002B0402C013821282D0932A04C0932904F2
:1033B000DF91CF910895A0E0B0E0E1EEF9E10C9447
:1033C000341FEC01CB01209719F40E94B418B8C047
:1033D000FE01E60FF71F9E0122503109E217F307A5
:1033E00008F4ACC0D9010D911C911197061717076D
:1033F000B8F00530110508F49FC0A80144505109E8
:103400004617570708F498C002501109061B170BFE
:10341000019311936D937C93CF010E944C198CC042
:103420005B01A01AB10A4E01800E911EA0912B04DF
:10343000B0912C04612C712C60E070E0109709F4BD
:1034400049C0A815B905C9F5ED90FC901197670121
:1034500042E0C40ED11CCA14DB0478F147018A187B
:103460009B08640142E0C40ED11C1296BC901297D6
:103470001396AC91B5E0CB16D10440F0B282A38391
:1034800091828082D9018D939C9309C00E5F1F4F5A
:103490000E0D1F1DF90111830083EB2DFA2F61150D
:1034A000710531F0DB011396FC93EE93129744C043
:1034B000F0932C04E0932B043FC06D917C91119705
:1034C0006616770608F43B01BD0112960D90BC917B
:1034D000A02DB4CF6091290470912A046815790554
:1034E000E9F468167906D0F4409100015091010189
:1034F0004115510541F44DB75EB7609104017091DB
:103500000501461B570BE417F507C0F4F0932A0496
:10351000E0932904F901918380830EC00E94B418BE
:103520007C01009759F0A801BE010E94D41ACE0177
:103530000E944C19C70104C0CE0102C080E090E097
:10354000CDB7DEB7EEE00C94501F81E090E0F89428
:103550000C94671F662777270C940C1DFC018827A5
:103560009927E89421912032E9F3293010F02E3088
:10357000C8F32B3241F02D3239F4689404C00E9414
:10358000101B820F911D219120532A30C0F31EF48D
:10359000909581959F4F08959111A1C3803219F0A4
:1035A00089508550D0F70895FB01DC0102C00190DD
:1035B0000D9241505040D8F70895DC0101C06D9341
:1035C00041505040E0F70895FC018191861721F0A9
:1035D0008823D9F7992708953197CF010895FB01E2
:1035E000DC0101900D920020E1F70895FB0151915B
:1035F0005523A9F0BF01DC014D9145174111E1F7B9
:1036000059F4CD010190002049F04D914015411130
:10361000C9F3FB014111EFCF81E090E001970895DC
:103620007AE0979F902D879F802D910D112408950A
:10363000AEE0B0E0EEE1FBE10C943E1F0D891E8987
:1036400086E08C831A8309838FEF9FE79E838D83A7
:10365000AE01475E5F4F6F89788DCE0101960E9463
:103660003A1BEF81F885E00FF11F10822E96E4E0FF
:103670000C945A1FACE0B0E0E0E4FBE10C94301F86
:103680007C016B018A01FC0117821682838181FF14
:10369000BDC1CE0101964C01F7019381F60193FD66
:1036A000859193FF81916F01882309F4ABC1853225
:1036B00039F493FD859193FF81916F01853229F44F
:1036C000B70190E00E94A01EE7CF512C312C20E0E2
:1036D0002032A0F48B3269F030F4803259F083321A
:1036E00069F420612CC08D3239F0803339F42160C7
:1036F00026C02260246023C0286021C027FD27C087
:1037000030ED380F3A3078F426FF06C0FAE05F9EBD
:10371000300D1124532E13C08AE0389E300D112431
:10372000332E20620CC08E3221F426FD6BC1206442
:1037300006C08C3611F4206802C0883641F4F601C8
:1037400093FD859193FF81916F018111C1CF982FD6
:103750009F7D9554933028F40C5F1F4FFFE3F9834E
:103760000DC0833631F0833771F0833509F05BC0CB
:1037700022C0F801808189830E5F1F4F4424439447
:10378000512C540115C03801F2E06F0E711CF80184
:10379000A080B18026FF03C0652D70E002C06FEFEE
:1037A0007FEFC5012C870E94951E2C0183012C857B
:1037B0002F77222E17C03801F2E06F0E711CF8012E
:1037C000A080B18026FF03C0652D70E002C06FEFBE
:1037D0007FEFC5012C870E948A1E2C012C85206852
:1037E000222E830123FC1BC0832D90E0481659062E
:1037F000B0F4B70180E290E00E94A01E3A94F4CFAA
:10380000F50127FC859127FE81915F01B70190E0CA
:103810000E94A01E31103A94F1E04F1A5108411451
:10382000510471F7E5C0843611F0893639F5F80195
:1038300027FF07C060817181828193810C5F1F4FD8
:1038400008C060817181882777FD8095982F0E5F71
:103850001F4F2F76B22E97FF09C0909580957095D7
:1038600061957F4F8F4F9F4F2068B22E2AE030E046
:10387000A4010E94D21EA82EA81844C0853729F49E
:103880002F7EB22E2AE030E025C0F22FF97FBF2E26
:103890008F36C1F018F4883579F0B4C0803719F04C
:1038A000883721F0AFC02F2F2061B22EB4FE0DC09B
:1038B0008B2D8460B82E09C024FF0AC09F2F96600C
:1038C000B92E06C028E030E005C020E130E002C09B
:1038D00020E132E0F801B7FE07C06081718182818A
:1038E00093810C5F1F4F06C06081718180E090E082
:1038F0000E5F1F4FA4010E94D21EA82EA818FB2DF8
:10390000FF77BF2EB6FE0BC02B2D2E7FA51450F4D3
:10391000B4FE0AC0B2FC08C02B2D2E7E05C07A2C46
:103920002B2D03C07A2C01C0752C24FF0DC0FE0185
:10393000EA0DF11D8081803311F4297E09C022FF38
:1039400006C07394739404C0822F867809F0739430
:1039500023FD13C020FF06C05A2C731418F4530C17
:103960005718732C731468F4B70180E290E02C8729
:103970000E94A01E73942C85F5CF731410F4371891
:1039800001C0312C24FF12C0B70180E390E02C87E6
:103990000E94A01E2C8522FF17C021FF03C088E5CE
:1039A00090E002C088E790E0B7010CC0822F8678D3
:1039B00059F021FD02C080E201C08BE227FD8DE2BB
:1039C000B70190E00E94A01EA51438F4B70180E36F
:1039D00090E00E94A01E5A94F7CFAA94F401EA0D39
:1039E000F11D8081B70190E00E94A01EA110F5CFCB
:1039F000332009F451CEB70180E290E00E94A01E6E
:103A00003A94F6CFF7018681978102C08FEF9FEF3E
:103A10002C96E2E10C944C1FA0E0B0E0E2E1FDE165
:103A20000C94361F8B016115710521F0DB018C931D
:103A300011969C93EC015E01BFEFAB1ABB0A7501B6
:103A4000C8808C2D90E00E94CC1A892B11F0E501E2
:103A5000F2CFEDE2CE1208C07E01F2E0EF0EF11CD3
:103A6000C980DD24D39409C02BE2C21205C07E01B7
:103A700042E0E40EF11CC980D12CE701219743E01C
:103A800050E060E871E0CE010E94721E892BC1F403
:103A9000239645E050E06BE771E0CE010E94721E74
:103AA000892B09F425960115110519F0D801CD933C
:103AB000DC93D11006C160E070E080E89FE70AC1A6
:103AC00043E050E068E771E0CE010E94721E892B4E
:103AD00059F40115110509F4F9C0B2E0EB0EF11C1F
:103AE000F801F182E082F2C0F70160E070E0CB0102
:103AF000C0E0D0E07F01A0EDAA2EAC0C29E02A1591
:103B000030F14D2D4260B42E2D2D2870D2FE04C010
:103B1000211125C0219623C021112197A5E0B0E0F5
:103B20009B01AC010E94A918660F771F881F991F7F
:103B30006A0D711D811D911D6839A9E97A078A07EF
:103B4000A9E19A0760F0BD2DB660BB2E08C02EEF2C
:103B5000A2120AC0D3FC50C04D2D4860B42E31963D
:103B6000D701CC90DB2CC6CF2C2D2F7D253409F02E
:103B700043C0A081AD3241F4BD2DB061DB2E7F0189
:103B800022E0E20EF11C0CC07F01AB3231F04FEFAE
:103B9000E41AF40A21E030E006C0A2E0EA0EF11CCB
:103BA000A18122E030E0A053AA3018F0E21AF30A13
:103BB00023C0F70120E030E02038BCE03B075CF494
:103BC000A901440F551F440F551F240F351F220F05
:103BD000331F2A0F311DAF014F5F5F4F7A01A08164
:103BE000A053AA3010F4FA01E7CFD4FE03C03195F8
:103BF00021953109C20FD31FD1FE09C0011511054E
:103C000031F0E1E0EE1AF108D801ED92FC920E9449
:103C100016172D2D2370233019F04B015C0106C0BF
:103C20004B015C01B7FAB094B7F8B09420E030E0F3
:103C3000A901C501B4010E94AA16882309F43EC057
:103C4000D7FF06C0D195C195D10907E911E002C09F
:103C50000FEA11E06801B8E1CB1AD10890E2E92E31
:103C6000F12CCE15DF0574F0F801259135914591C1
:103C70005491C501B4010E94C8174B015C01CE19D3
:103C8000DF09EFCF04501109F594E7940C151D05D9
:103C900041F78A2D880F8B2D881F8F3F49F020E038
:103CA00030E0A901C501B4010E94AA16811106C025
:103CB00082E290E090932E0480932D04C501B4011C
:103CC00009C060E070E080E89FEF04C060E070E051
:103CD00080EC9FE7CDB7DEB7ECE00C94521F99273C
:103CE00088270895FB01DC014150504088F08D91F8
:103CF00081341CF08B350CF4805E659161341CF0CE
:103D00006B350CF4605E861B611171F3990B08959D
:103D1000881BFCCFFC010590615070400110D8F762
:103D2000809590958E0F9F1F0895FC016150704003
:103D300001900110D8F7809590958E0F9F1F0895E0
:103D40000F931F93CF93DF93182F092FEB018B81D4
:103D500081FD03C08FEF9FEF20C082FF10C04E8116
:103D60005F812C813D81421753077CF4E881F98102
:103D70009F012F5F3F4F39832883108306C0E8855A
:103D8000F985812F0995892B29F72E813F812F5F96
:103D90003F4F3F832E83812F902FDF91CF911F9133
:103DA0000F910895FA01AA27283051F1203181F1AD
:103DB000E8946F936E7F6E5F7F4F8F4F9F4FAF4F33
:103DC000B1E03ED0B4E03CD0670F781F891F9A1F46
:103DD000A11D680F791F8A1F911DA11D6A0F711DFA
:103DE000811D911DA11D20D009F468943F912AE006
:103DF000269F11243019305D3193DEF6CF010895EE
:103E0000462F4770405D4193B3E00FD0C9F7F6CF1E
:103E1000462F4F70405D4A3318F0495D31FD4052E6
:103E2000419302D0A9F7EACFB4E0A695979587957C
:103E300077956795BA95C9F700976105710508955B
:103E40009B01AC010A2E0694579547953795279507
:103E5000BA95C9F7620F731F841F951FA01D08959F
:103E60002F923F924F925F926F927F928F929F928A
:103E7000AF92BF92CF92DF92EF92FF920F931F9378
:103E8000CF93DF93CDB7DEB7CA1BDB0B0FB6F89429
:103E9000DEBF0FBECDBF09942A88398848885F8469
:103EA0006E847D848C849B84AA84B984C884DF80DA
:103EB000EE80FD800C811B81AA81B981CE0FD11DBE
:103EC0000FB6F894DEBF0FBECDBFED01089511E02F
:103ED000CAEBD1E004C0FE010E9496182296CC3BAA
:083EE000D107C9F7F894FFCFE8
:103EE80000002F048000BF03D90347030002B80273
:103EF800F1030100000001000000000000000000C4
:103F080000000101BA01BF01C501CB0157656C630F
:103F18006F6D6500426C7565005265640052504DC6
:103F280000456E67696E652054656D700053706555
:103F38006564004675656C204C6576656C00547246
:103F4800697000496E666F0000000000800353032B
:103F58002803300343035203000000008D06731545
:103F680030340D0041544C500D0025303258253066
:103F780032580D004154535030300D0041545350C5
:103F880025640D004F4B0034312000303930320D9C
:103F980000303A2034392030320041545A0D004163
:103FA8005445300D0041544C310D00303130300D46
:103FB80000415452560D00415454454D500D004196
:103FC8005441434C0D0041544759524F0D00415440
:103FD8000D004154490D004F42445541525400418F
:103FE80054425231200000000000E40E830B4E0AB8
:103FF800370F66089C085609F408F0096B08C508CD
:10400800100D460B4B0D9E0D0C0E1A09A00E550AED
:10401800F70A6F0F880A6A08E10AB20AEE0AF10A7B
:1040280000000000531300000000C1100000000051
:10403800721100000000D313731555136E1360132B
:02404800B113B2
:00000001FF
