:100000000C945F000C9487000C9487000C9487007C
:100010000C9487000C9487000C9487000C94870044
:100020000C9487000C9487000C9487000C94870034
:100030000C9487000C9487000C9487000C94870024
:100040000C9404040C9487000C94BD060C94EF06E9
:100050000C9487000C9487000C9487000C94870004
:100060000C9487000C948700000000080002010037
:100070000003040700000000000000000102040863
:100080001020408001020408102001020408102002
:10009000040404040404040402020202020203032E
:1000A0000303030300000000250028002B000000CC
:1000B0000000240027002A0055011F0763011124B6
:1000C0001FBECFEFD8E0DEBFCDBF11E0A0E0B1E0B2
:1000D000E2EFF4E102C005900D92AA38B107D9F71A
:1000E00022E0AAE8B1E001C01D92A138B207E1F711
:1000F00010E0CCEBD0E004C02297FE010E943A0948
:10010000C83BD107C9F70E9463070C946C0A0C9492
:1001100000000F93CF93DF9300D0CDB7DEB740ED53
:1001200057E060E070E080EA91E00E944F0320E039
:1001300032EC41E050E060EE71E080EA91E00E9434
:10014000620380EA91E00E944C0366E071E08091D6
:10015000D1019091D2010E94B0076AE070E080E086
:1001600090E00E947D0441E060E080EA91E00E941E
:10017000CD03CE0101960E94FE038AE891E00E9421
:100180007B0100E020E04FEF60E070E08AE891E062
:100190000E94F20220E04FEF61E070E08AE891E017
:1001A0000E94F2020FEF20E040E062E070E08AE897
:1001B00091E00E94F20220E040E063E070E08AE813
:1001C00091E00E94F2022FEF4FEF64E070E08AE8C6
:1001D00091E00E94F2022FEF4FEF65E070E08AE8B5
:1001E00091E00E94F2022FEF4FEF66E070E08AE8A4
:1001F00091E00E94F2022FEF4FEF67E070E08AE893
:1002000091E00E94F2028AE891E00E94D8010F90EA
:100210000F90DF91CF910F9108950F9300E020E0B0
:100220004FEF60E070E08AE891E00E94F20220E087
:100230004FEF61E070E08AE891E00E94F2020FEF78
:1002400020E040E062E070E08AE891E00E94F20283
:1002500020E040E063E070E08AE891E00E94F20272
:100260002FEF4FEF64E070E08AE891E00E94F20225
:100270002FEF4FEF65E070E08AE891E00E94F20214
:100280002FEF4FEF66E070E08AE891E00E94F20203
:100290002FEF4FEF67E070E08AE891E00E94F202F2
:1002A0008AE891E00F910C94D8016DE070E08EE93E
:1002B00091E00E94E80323E046E068E070E08AE80D
:1002C00091E00C94CD028AE891E00C946701CF9301
:1002D000DF93EC0188859985009711F00E94D6097B
:1002E0008D8187FD05C060E0DF91CF910C940905F9
:1002F000DF91CF910895CF93DF93EC018D8187FD3E
:1003000007C061E00E94090560E08D810E944205FE
:1003100081E08883DF91CF910895EF92FF920F9350
:100320001F93CF93DF93EC017B018885998500971C
:1003300011F00E94D6098701000F111F0E0D1F1D1D
:100340001C830B83C8010E943E0999878887009708
:1003500041F0A80160E070E00E94650AFA82E9823B
:1003600004C01C821B821A821982DF91CF911F91D7
:100370000F91FF90EF900895FC01668360FF04C029
:1003800081E08287138611C062FF06C081E0828708
:1003900082E0838714860895128663FF04C082E09A
:1003A000838781E003C081E0838782E084870895AA
:1003B000CF92DF92EF92FF920F931F93CF93DF9331
:1003C000CDB7DEB729970FB6F894DEBF0FBECDBF0D
:1003D0008C01DC0118968D919C911997892B09F459
:1003E0009BC00E945A04F801C584D684E784F08833
:1003F0006C197D098E099F0962337105810591058C
:1004000080F3F894838194819A838983A085B18550
:100410007D01EFEFEE1AFE0A8C918987D8011696BE
:100420009C91169751960D90BC91A02DF80183894F
:1004300091FF2EC09C91982B98879C918095892341
:100440008F838F818E8388E08D8358856F81498566
:100450003D812E8189819A81F7015C9347FD252F8B
:100460003A952C93262F39F0441F00C000006C935E
:10047000000000C0F2CF38E041916C93000001977A
:1004800061F7F801B28BA18B49873D832E8338C079
:100490009C91982B98879C91809589238F838F813D
:1004A0008C8388E08B8358856F8149853B812C81C3
:1004B00089819A81F7015C9347FD252F00C000C018
:1004C0002C9300C000C000C000C000C06C930000AE
:1004D000262F3A9541F0441F000000C000C000C024
:1004E00000C000C0E8CF38E0419100C06C9300C06C
:1004F000019709F7F801B28BA18B49873B832C83C5
:100500009A83898378940E945A04D8011D966D932A
:100510007D938D939C93509729960FB6F894DEBFE8
:100520000FBECDBFDF91CF911F910F91FF90EF9044
:10053000DF90CF9008951F93CF93DF93EC01162F98
:100540008881882331F08D8187FD03C060E00E949F
:1005500009051D838881882341F061E0812F0E9475
:10056000090560E0812F0E944205812F90E0FC0187
:10057000E057FF4FE491F0E0EE0FFF1FEC55FF4F07
:10058000259134913A8B298BFC01E458FF4F8491DB
:100590008B8BDF91CF911F9108950F931F93CF9372
:1005A000DF9300D0CDB7DEB78C01FC01108217823B
:1005B00011861086158616861786108A2A83498327
:1005C0000E948D014981642FC8010E949B022A81EB
:1005D000622FC8010F900F90DF91CF911F910F9163
:1005E0000C94BC010F931F93FC01818192816817C9
:1005F000790738F58781882361F0489FA00111248D
:10060000452F289F90011124232F089F800111243A
:10061000012FDB01AA0FBB1FA60FB71F8085918595
:100620008A0F9B1F3285DC01A30FB11D4C933385CC
:10063000DC01A30FB11D2C932485FC01E20FF11DF9
:1006400000831F910F9108950F931F93CF93DF9312
:10065000EC01662359F00E944E0469837A838B83F0
:100660009C83DF91CF911F910F9108950E944E04BA
:1006700009811A812B813C81601B710B820B930BCA
:10068000623371058105910530F763E070E080E029
:1006900090E00E947D04EACF60E00C942403FC010A
:1006A00013AA14AA15AA16AA1182128213821482FE
:1006B000411551056105710521F0CB01BA010C947A
:1006C0007D040895FB01BA01A901DC01D296FC93D7
:1006D000EE93D19726E0CF010C945B061F93CF9346
:1006E000DF93EC01162F68E171E089A99AA90E94B5
:1006F000B0074AE050E0612F89A99AA90E94180822
:100700006FE171E089A99AA90E94B00762E370E0E5
:1007100080E090E0DF91CF911F910C947D041F93B6
:10072000CF93DF93EC01162F8D81882389F189A95E
:100730009AA9DC01ED91FC910480F581E02D0995E9
:10074000892BA9F307C02637310519F12835310562
:1007500009F41D8289A99AA9DC01ED91FC9104801C
:10076000F581E02D09951816190694F489A99AA91E
:10077000DC01ED91FC910680F781E02D09959C014B
:10078000332723363105F9F6612FCE010E946E031F
:1007900083E6DF91CF911F9108950F931F93CF931D
:1007A000DF931F92CDB7DEB78C01662349F081E05D
:1007B000F801858360E0C80149830E948F03498165
:1007C000F80145830F90DF91CF911F910F9108950C
:1007D000FC01862F6083718361E00C94090581E040
:1007E000089584E00895CB01BA010E948A0823E3AA
:1007F00033E343E250E40E942008089524E731E007
:10080000FC013183208308951F920F920FB60F923F
:1008100011242F933F938F939F93AF93BF93809116
:10082000D8019091D901A091DA01B091DB0130910A
:10083000D70123E0230F2D3720F40196A11DB11D10
:1008400005C026E8230F0296A11DB11D2093D701F4
:100850008093D8019093D901A093DA01B093DB0182
:100860008091DC019091DD01A091DE01B091DF016A
:100870000196A11DB11D8093DC019093DD01A09331
:10088000DE01B093DF01BF91AF919F918F913F91B6
:100890002F910F900FBE0F901F9018952FB7F894BF
:1008A0006091D8017091D9018091DA019091DB01BA
:1008B0002FBF08953FB7F8948091DC019091DD013E
:1008C000A091DE01B091DF0126B5A89B05C02F3FA6
:1008D00019F00196A11DB11D3FBF6627782F892F02
:1008E0009A2F620F711D811D911D42E0660F771FC7
:1008F000881F991F4A95D1F70895CF92DF92EF9202
:10090000FF92CF93DF936B017C010E945A04EB01AD
:10091000C114D104E104F10489F00E941F080E946F
:100920005A046C1B7D0B683E734090F381E0C81A3B
:10093000D108E108F108C851DC4FEACFDF91CF912F
:10094000FF90EF90DF90CF900895789484B5826007
:1009500084BD84B5816084BD85B5826085BD85B563
:10096000816085BDEEE6F0E0808181608083E1E812
:10097000F0E010828081826080838081816080834A
:10098000E0E8F0E0808181608083E1EBF0E080814D
:1009900084608083E0EBF0E0808181608083EAE71F
:1009A000F0E08081846080838081826080838081A8
:1009B000816080838081806880831092C100089567
:1009C000833081F028F4813099F08230A1F00895CD
:1009D0008730A9F08830B9F08430D1F4809180005C
:1009E0008F7D03C0809180008F7780938000089571
:1009F00084B58F7702C084B58F7D84BD08958091C2
:100A0000B0008F7703C08091B0008F7D8093B000DD
:100A10000895CF93DF9390E0FC01E458FF4F2491B9
:100A2000FC01E057FF4F8491882349F190E0880F43
:100A3000991FFC01E255FF4FA591B4918C559F4F32
:100A4000FC01C591D4919FB7611108C0F8948C91B5
:100A5000209582238C93888182230AC0623051F4CE
:100A6000F8948C91322F309583238C938881822B3C
:100A7000888304C0F8948C91822B8C939FBFDF9164
:100A8000CF9108950F931F93CF93DF931F92CDB70C
:100A9000DEB7282F30E0F901E859FF4F8491F901C2
:100AA000E458FF4F1491F901E057FF4F04910023E0
:100AB000C9F0882321F069830E94E0046981E02F56
:100AC000F0E0EE0FFF1FEC55FF4FA591B4919FB7DB
:100AD000F8948C91611103C01095812301C0812B82
:100AE0008C939FBF0F90DF91CF911F910F9108952D
:100AF000FC01818D228D90E0805C9F4F821B9109CB
:100B00008F7399270895FC01918D828D981731F08C
:100B1000828DE80FF11D858D90E008958FEF9FEF96
:100B20000895FC01918D828D981761F0828DDF010F
:100B3000A80FB11D5D968C91928D9F5F9F73928FD0
:100B400090E008958FEF9FEF089585E197E0892B5E
:100B500049F080E090E0892B29F00E94150781116F
:100B60000C9400000895FC01848DDF01A80FB11DD5
:100B7000A35ABF4F2C91848D90E001968F739927D3
:100B8000848FA689B7892C93A089B1898C918064C0
:100B90008C93938D848D981306C00288F389E02D81
:100BA00080818F7D80830895CF93DF93EC01888DC2
:100BB0008823C9F0EA89FB89808185FD05C0A88961
:100BC000B9898C9186FD0FC00FB607FCF5CF8081E7
:100BD00085FFF2CFA889B9898C9185FFEDCFCE0131
:100BE0000E94B305E7CFDF91CF910895CF92DF92B6
:100BF000FF920F931F93CF93DF931F92CDB7DEB772
:100C00006C0181E0D60158968C9358975B969C9125
:100C10005B975C968C915C97981307C05096ED910A
:100C2000FC915197808185FD2EC0F601038D10E067
:100C30000F5F1F4F0F731127F02EF601848DF812EE
:100C400011C00FB607FCF9CFD6015096ED91FC917B
:100C50005197808185FFF1CFC60169830E94B3055A
:100C60006981EBCF838DE80FF11DE35AFF4F60835D
:100C7000D6015B960C935B975296ED91FC9153973E
:100C8000808180620CC0D6015696ED91FC915797F9
:100C900060835096ED91FC915197808180648083B0
:100CA00081E090E00F90DF91CF911F910F91FF9025
:100CB000DF90CF900895BF92CF92DF92EF92FF9294
:100CC000CF93DF93EC016A017B01B22EE889F989A9
:100CD00082E08083411581EE580761057105A1F01E
:100CE00060E079E08DE390E0A70196010E9416098B
:100CF0002150310941095109569547953795279556
:100D0000211580E1380798F0E889F989108260E8B8
:100D100074E88EE190E0A70196010E941609215027
:100D20003109410951095695479537952795EC8525
:100D3000FD853083EE85FF852083188EEC89FD8943
:100D4000B082EA89FB89808180618083EA89FB899E
:100D5000808188608083EA89FB89808180688083C4
:100D6000EA89FB8980818F7D8083DF91CF91FF901D
:100D7000EF90DF90CF90BF9008951F920F920FB623
:100D80000F9211242F938F939F93EF93FF93E091F2
:100D9000F001F091F1018081E091F601F091F7010D
:100DA00082FD12C090818091F9018F5F8F73209135
:100DB000FA01821751F0E091F901F0E0E052FE4FA4
:100DC000958F8093F90101C08081FF91EF919F91F0
:100DD0008F912F910F900FBE0F901F9018951F921B
:100DE0000F920FB60F9211242F933F934F935F935F
:100DF0006F937F938F939F93AF93BF93EF93FF93E3
:100E000080EE91E00E94B305FF91EF91BF91AF9109
:100E10009F918F917F916F915F914F913F912F9112
:100E20000F900FBE0F901F90189580EE91E00E94DA
:100E3000780521E0892B09F420E0822F0895109293
:100E4000E3011092E20188EE93E0A0E0B0E080932D
:100E5000E4019093E501A093E601B093E7018EE7EA
:100E600091E09093E1018093E00185EC90E0909314
:100E7000ED018093EC0184EC90E09093EF0180937E
:100E8000EE0180EC90E09093F1018093F00181EC11
:100E900090E09093F3018093F20182EC90E09093C4
:100EA000F5018093F40186EC90E09093F701809334
:100EB000F6011092F9011092FA011092FB011092C2
:100EC000FC01089508950E94A5040E9462070E94F3
:100ED0008900C5EAD5E00E940D012097E1F30E9448
:100EE000A505F9CFCF92DF92EF92FF920F931F9358
:100EF000CF93DF936C017A01EB01E60EF71E00E061
:100F000010E0CE15DF0561F06991D601ED91FC91FD
:100F10000190F081E02DC6010995080F191FF1CF4E
:100F2000C801DF91CF911F910F91FF90EF90DF905B
:100F3000CF9008956115710581F0DB010D900020BF
:100F4000E9F7AD0141505109461B570BDC01ED910A
:100F5000FC910280F381E02D099480E090E00895F7
:100F60000C949A078F929F92AF92BF92CF92DF928A
:100F7000EF92FF920F931F93CF93DF93CDB7DEB71E
:100F8000A1970FB6F894DEBF0FBECDBF7C01C42E73
:100F9000E52FCB01D22E19A221E02D1510F02AE069
:100FA000D22E8E010F5D1F4F8D2C912CA12CB12CB8
:100FB0006C2D7E2FA50194010E9416098C2DD29EC6
:100FC00080191124015011098A3014F4805D01C088
:100FD000895CF8018083211531054105510521F017
:100FE000C22EE32FCA01E4CFB801C7010E949A07BD
:100FF000A1960FB6F894DEBF0FBECDBFDF91CF91A3
:101000001F910F91FF90EF90DF90CF90BF90AF9026
:101010009F908F9008952115310541F4DC01ED91E9
:10102000FC910190F081E02D642F09940C94B2079B
:101030009A01462F50E060E070E00C940B08089590
:101040000CD0BAC0B2D040F0A9D030F021F45F3F4C
:1010500019F09BC05111E4C09EC0BFD098F39923F2
:10106000C9F35523B1F3951B550BBB27AA2762176C
:101070007307840738F09F5F5F4F220F331F441FB1
:10108000AA1FA9F333D00E2E3AF0E0E830D09150E9
:101090005040E695001CCAF729D0FE2F27D0660FD6
:1010A000771F881FBB1F261737074807AB07B0E815
:1010B00009F0BB0B802DBF01FF2793585F4F2AF02B
:1010C0009E3F510568F061C0ABC05F3FECF3983EB6
:1010D000DCF3869577956795B795F7959F5FC9F788
:1010E000880F911D9695879597F90895E1E0660F11
:1010F000771F881FBB1F621773078407BA0720F08A
:10110000621B730B840BBA0BEE1F88F7E0950895F2
:10111000E89409C097FB3EF4909580957095619591
:101120007F4F8F4F9F4F9923A9F0F92F96E9BB2747
:101130009395F695879577956795B795F111F8CFC3
:10114000FAF4BB0F11F460FF1BC06F5F7F4F8F4F2E
:101150009F4F16C0882311F096E911C0772321F024
:101160009EE8872F762F05C0662371F096E8862FBC
:1011700070E060E02AF09A95660F771F881FDAF713
:10118000880F9695879597F9089597F99F6780E856
:1011900070E060E008959FEF80EC089500240A94C9
:1011A0001616170618060906089500240A94121642
:1011B0001306140605060895092E0394000C11F475
:1011C000882352F0BB0F40F4BF2B11F460FF04C022
:1011D0006F5F7F4F8F4F9F4F089557FD9058440F7B
:1011E000551F59F05F3F71F04795880F97FB991F86
:1011F00061F09F3F79F08795089512161306140643
:10120000551FF2CF4695F1DF08C0161617061806CF
:10121000991FF1CF86957105610508940895E894AA
:10122000BB2766277727CB0197F90895A1E21A2EED
:10123000AA1BBB1BFD010DC0AA1FBB1FEE1FFF1F7A
:10124000A217B307E407F50720F0A21BB30BE40BCA
:10125000F50B661F771F881F991F1A9469F7609511
:101260007095809590959B01AC01BD01CF010895CB
:10127000EE0FFF1F0590F491E02D0994CF93DF93BB
:101280008230910510F482E090E0E0917F02F091CD
:10129000800220E030E0A0E0B0E0309739F14081FA
:1012A000518148175907B8F04817590771F48281DE
:1012B0009381109729F013969C938E9312972CC0CC
:1012C0009093800280937F0227C02115310531F071
:1012D0004217530718F0A901DB0101C0EF019A0181
:1012E000BD01DF010280F381E02DD7CF211531054B
:1012F000F9F0281B390B2430310580F48A819B8159
:101300006115710521F0FB019383828304C09093E2
:10131000800280937F02FE01329644C0FE01E20FFC
:10132000F31F8193919322503109398328833AC066
:1013300020917D0230917E02232B41F42091020105
:101340003091030130937E0220937D0220910001B1
:10135000309101012115310541F42DB73EB740917F
:10136000040150910501241B350BE0917D02F091A1
:101370007E02E217F307A0F42E1B3F0B2817390754
:1013800078F0AC014E5F5F4F2417350748F04E0FE1
:101390005F1F50937E0240937D028193919302C020
:1013A000E0E0F0E0CF01DF91CF910895CF93DF939C
:1013B000009709F487C0FC01329713821282C09112
:1013C0007F02D0918002209781F420813181280F03
:1013D000391F80917D0290917E028217930779F5E3
:1013E000F0937E02E0937D026DC0DE0120E030E0EC
:1013F000AE17BF0750F412964D915C9113979D0163
:101400004115510509F1DA01F3CFB383A28340817D
:101410005181840F951F8A179B0771F48D919C91C0
:101420001197840F951F02969183808312968D9158
:101430009C911397938382832115310529F4F093AE
:101440008002E0937F023EC0D9011396FC93EE9395
:1014500012974D915D91A40FB51FEA17FB0779F420
:1014600080819181840F951F0296D90111969C93DA
:101470008E938281938113969C938E931297E0E0D2
:10148000F0E08A819B81009719F0FE01EC01F9CF11
:10149000CE01029628813981820F931F20917D020F
:1014A00030917E022817390769F4309729F4109299
:1014B000800210927F0202C013821282D0937E02B9
:1014C000C0937D02DF91CF910895DC0101C06D933F
:1014D00041505040E0F7089510E0CCEBD0E004C05C
:1014E000FE010E943A092296CE3BD107C9F7F89433
:0214F000FFCF2C
:1014F200000081028000564D4450565F317C315FBE
:10150200564D4450560D0A00564D4450435F005FFD
:10151200564D4450430D0A004572726F723A204193
:101522007474656D707420746F207365742061200B
:10153200726561642D6F6E6C792076617269616289
:101542006C65206F7220646174612074797065200B
:101552006E6F7420737570706F727465640D0A001B
:1015620000000000EF03F103F30300000000F605A2
:0A1572007207780591058305D40582
:00000001FF
