:100000000C945E000C9486000C9486000C94860080
:100010000C9486000C9486000C9486000C94860048
:100020000C9486000C9486000C9486000C94860038
:100030000C9486000C9486000C9486000C94860028
:100040000C946A030C9486000C944B060C947D0669
:100050000C9486000C9486000C9486000C94860008
:100060000C9486000C948600000000080002010039
:100070000003040700000000000000000102040863
:100080001020408001020408102001020408102002
:10009000040404040404040402020202020203032E
:1000A0000303030300000000250028002B000000CC
:1000B0000000240027002A00E200AD0611241FBE24
:1000C000CFEFD8E0DEBFCDBF11E0A0E0B1E0E2E6C7
:1000D000F0E102C005900D92A839B107D9F722E0EE
:1000E000A8E9B1E001C01D92AD38B207E1F710E018
:1000F000CCEBD0E004C02297FE010E942B08C83B45
:10010000D107C9F70E94F1060C942F080C94000047
:1001100040ED57E060E070E080EB91E00E94D1029A
:1001200020E835E240E050E060EF71E080EB91E0E4
:100130000E94E40280EB91E00E94CE0267E071E051
:100140008091E1019091E2010E943E076AE070E037
:1001500080E090E00E94E30341E060E080EB91E00A
:100160000E944F0320E042E060E188E991E00E94B4
:10017000BF0169E171E088E991E00E943E0726E055
:1001800040E855E260E070E080EF91E00C94E90512
:1001900088E991E00E949E0140E060E088E991E0FA
:1001A0000E94A50180E00E9451044AE050E0BC0199
:1001B00088E991E00E94EA0764E670E080E090E060
:1001C0000C94E303CF92EF920F938CE0C82E9BE048
:1001D000E92E0AE029E048E067E088E991E00E9422
:1001E0007A020F91EF90CF900895CF93DF93EC01B7
:1001F00060E08E810E94D00481E090E00E940B04B8
:1002000061E08E810E94D00481E090E00E940B04A6
:1002100060E08E810E94D00484E690E0DF91CF916F
:100220000C940B04CF92DF92EF92FF920F931F93E7
:10023000CF93DF937C01C0E0D0E0C62ED12C8701A4
:100240000C0F1D1F61E0F80187810E949704B60121
:100250000C2E02C0759567950A94E2F76170F8015B
:1002600087810E94D0042196C430D10541F7C7018F
:10027000DF91CF911F910F91FF90EF90DF90CF9082
:100280000C94F500CF92DF92EF92FF920F931F93A1
:10029000CF93DF937C01C0E0D0E0C62ED12C870144
:1002A0000C0F1D1F61E0F80187810E949704B601C1
:1002B0000C2E02C0759567950A94E2F76170F801FB
:1002C00087810E94D0042196C830D10541F7C7012B
:1002D000DF91CF911F910F91FF90EF90DF90CF9022
:1002E0000C94F5001F93CF93DF93EC01162F642F2E
:1002F0008C810E94D0048D818F3F19F060E00E94B4
:10030000D0048F85612F84FF06C0CE01DF91CF918D
:100310001F910C94420170E084E0759567958A9571
:10032000E1F7CE010E941201612FCE01DF91CF9142
:100330001F910C94120140E00C94720161E00E9444
:100340009B0180ED97E00C940B04443008F043E0EF
:10035000FC012389421710F04FEF420FFC01E40F1C
:10036000F11D2489260F2068622F0C949B01FC014B
:100370006089262F2460208B6C600C949B01CF93A6
:10038000DF93EC01423018F08F8588608F874B8BAC
:100390001C8A80E48D8B6E8B70E0605C7F4F6F8B6E
:1003A000222329F0413019F48F8584608F8780E5FE
:1003B00093EC0E940B0460E08C810E94D00460E00A
:1003C0008E810E94D0048D818F3F19F060E00E94E1
:1003D000D0046F8564FD1DC063E0CE010E94120150
:1003E00084E991E10E940B0463E0CE010E941201B6
:1003F00084E991E10E940B0463E0CE010E941201A6
:1004000086E990E00E940B0462E0CE010E94120196
:1004100016C06062CE010E949B0184E991E10E94B6
:100420000B046F856062CE010E949B0186E990E01B
:100430000E940B046F856062CE010E949B016F8554
:100440006062CE010E949B0184E0888BCE010E94F5
:10045000B701CE010E949E0182E0898B66E0CE0149
:10046000DF91CF910C949B016F927F928F92AF920C
:10047000CF92EF920F931F93CF93DF93CDB7DEB759
:100480003C01162F842F5D854E853F859889F301A9
:10049000848325830683E782C086A186828653876C
:1004A00044873587968761E00E949704F301858130
:1004B0008F3F19F061E00E94970461E0F3018681AB
:1004C0000E949704112319F0F301178603C080E1FD
:1004D000F301878720E041E060E1C301DF91CF9124
:1004E0001F910F91EF90CF90AF908F907F906F9072
:1004F0000C94BF018F92AF92CF92EF920F93DC01D9
:1005000013961C921E921297EBE2F1E0ED93FC938E
:100510001F921F921F921F928C2CAE2CC02EE22E87
:10052000042F2FEF462F61E00E9434020F900F90AE
:100530000F900F900F91EF90CF90AF908F90089504
:1005400041E00E94720181E090E008950F931F93B3
:10055000CF93DF93EC01662359F00E94B4036983C3
:100560007A838B839C83DF91CF911F910F910895A4
:100570000E94B40309811A812B813C81601B710B9D
:10058000820B930B613271058105910530F763E0B1
:1005900070E080E090E00E94E303EACF60E00C941A
:1005A000A602FC0113AA14AA15AA16AA1182128285
:1005B00013821482411551056105710521F0CB01AB
:1005C000BA010C94E3030895FB01BA01A901DC010F
:1005D000D296FC93EE93D19726E0CF010C94E905D7
:1005E0001F93CF93DF93EC01162F6FE271E089A97F
:1005F0009AA90E943E074AE050E0612F89A99AA972
:100600000E94FF0766E371E089A99AA90E943E074C
:1006100062E370E080E090E0DF91CF911F910C9455
:10062000E3031F93CF93DF93EC01162F8D81882373
:1006300089F189A99AA9DC01ED91FC910480F581E9
:10064000E02D0995892BA9F307C02637310519F14B
:100650002835310509F41D8289A99AA9DC01ED919B
:10066000FC910480F581E02D09951816190694F483
:1006700089A99AA9DC01ED91FC910680F781E02D12
:1006800009959C01332723363105F9F6612FCE01F8
:100690000E94F00283E6DF91CF911F9108950F939E
:1006A0001F93CF93DF931F92CDB7DEB78C016623E4
:1006B00049F081E0F801858360E0C80149830E9428
:1006C00011034981F80145830F90DF91CF911F916C
:1006D0000F9108951F920F920FB60F9211242F932E
:1006E0003F938F939F93AF93BF938091E801909135
:1006F000E901A091EA01B091EB013091E70123E01B
:10070000230F2D3720F40196A11DB11D05C026E849
:10071000230F0296A11DB11D2093E7018093E801EC
:100720009093E901A093EA01B093EB018091EC0171
:100730009091ED01A091EE01B091EF010196A11D04
:10074000B11D8093EC019093ED01A093EE01B09365
:10075000EF01BF91AF919F918F913F912F910F909A
:100760000FBE0F901F9018952FB7F8946091E80175
:100770007091E9018091EA019091EB012FBF0895FA
:100780003FB7F8948091EC019091ED01A091EE01BA
:10079000B091EF0126B5A89B05C02F3F19F0019637
:1007A000A11DB11D3FBF6627782F892F9A2F620F99
:1007B000711D811D911D42E0660F771F881F991FD3
:1007C0004A95D1F70895CF92DF92EF92FF92CF939F
:1007D000DF936B017C010E94C003EB01C114D104C3
:1007E000E104F10489F00E9406080E94C0036C1B1A
:1007F0007D0B683E734090F381E0C81AD108E10890
:10080000F108C851DC4FEACFDF91CF91FF90EF9014
:10081000DF90CF9008958230910538F0880F991FAE
:10082000880F991F05970197F1F70895789484B57B
:10083000826084BD84B5816084BD85B5826085BDDC
:1008400085B5816085BDEEE6F0E0808181608083C2
:10085000E1E8F0E0108280818260808380818160A5
:100860008083E0E8F0E0808181608083E1EBF0E06C
:10087000808184608083E0EBF0E080818160808310
:10088000EAE7F0E0808184608083808182608083F9
:100890008081816080838081806880831092C10024
:1008A00008958E3008F08E5087702091060190E4F4
:1008B000299F90011124822B80937C0080917A00E3
:1008C000806480937A0080917A0086FDFCCF8091CD
:1008D00078002091790090E0922B0895833081F088
:1008E00028F4813099F08230A1F008958730A9F082
:1008F0008830B9F08430D1F4809180008F7D03C0BE
:10090000809180008F7780938000089584B58F77E1
:1009100002C084B58F7D84BD08958091B0008F772B
:1009200003C08091B0008F7D8093B0000895CF9375
:10093000DF9390E0FC01E458FF4F2491FC01E05765
:10094000FF4F8491882349F190E0880F991FFC01A3
:10095000E255FF4FA591B4918C559F4FFC01C59175
:10096000D4919FB7611108C0F8948C91209582238F
:100970008C93888182230AC0623051F4F8948C9160
:10098000322F309583238C938881822B888304C0F7
:10099000F8948C91822B8C939FBFDF91CF91089517
:1009A0000F931F93CF93DF931F92CDB7DEB7282FFE
:1009B00030E0F901E859FF4F8491F901E458FF4F05
:1009C0001491F901E057FF4F04910023C9F08823E7
:1009D00021F069830E946E046981E02FF0E0EE0F40
:1009E000FF1FEC55FF4FA591B4919FB7F8948C91E0
:1009F000611103C01095812301C0812B8C939FBF8F
:100A00000F90DF91CF911F910F910895FC01818D7F
:100A1000228D90E0805C9F4F821B91098F739927F4
:100A20000895FC01918D828D981731F0828DE80F29
:100A3000F11D858D90E008958FEF9FEF0895FC01E3
:100A4000918D828D981761F0828DDF01A80FB11D05
:100A50005D968C91928D9F5F9F73928F90E0089529
:100A60008FEF9FEF089583EA96E0892B49F080E0AD
:100A700090E0892B29F00E94A30681110C940000BC
:100A80000895FC01848DDF01A80FB11DA35ABF4F4B
:100A90002C91848D90E001968F739927848FA6897D
:100AA000B7892C93A089B1898C9180648C93938DA4
:100AB000848D981306C00288F389E02D80818F7D94
:100AC00080830895CF93DF93EC01888D8823C9F04C
:100AD000EA89FB89808185FD05C0A889B9898C9147
:100AE00086FD0FC00FB607FCF5CF808185FFF2CFE2
:100AF000A889B9898C9185FFEDCFCE010E9441056F
:100B0000E7CFDF91CF910895CF92DF92FF920F93BD
:100B10001F93CF93DF931F92CDB7DEB76C0181E0B7
:100B2000D60158968C9358975B969C915B975C96F0
:100B30008C915C97981307C05096ED91FC9151975A
:100B4000808185FD2EC0F601038D10E00F5F1F4FE1
:100B50000F731127F02EF601848DF81211C00FB615
:100B600007FCF9CFD6015096ED91FC915197808109
:100B700085FFF1CFC60169830E9441056981EBCFF2
:100B8000838DE80FF11DE35AFF4F6083D6015B961A
:100B90000C935B975296ED91FC9153978081806204
:100BA0000CC0D6015696ED91FC91579760835096F4
:100BB000ED91FC91519780818064808381E090E089
:100BC0000F90DF91CF911F910F91FF90DF90CF9009
:100BD0000895BF92CF92DF92EF92FF92CF93DF936F
:100BE000EC016A017B01B22EE889F98982E08083F9
:100BF000411581EE580761057105A1F060E079E0CB
:100C00008DE390E0A70196010E9407082150310969
:100C1000410951095695479537952795211580E14A
:100C2000380798F0E889F989108260E874E88EE165
:100C300090E0A70196010E9407082150310941095F
:100C400051095695479537952795EC85FD85308355
:100C5000EE85FF852083188EEC89FD89B082EA89B4
:100C6000FB89808180618083EA89FB89808188603B
:100C70008083EA89FB89808180688083EA89FB8997
:100C800080818F7D8083DF91CF91FF90EF90DF9007
:100C9000CF90BF9008951F920F920FB60F9211241C
:100CA0002F938F939F93EF93FF93E0910002F09126
:100CB00001028081E0910602F091070282FD12C0DC
:100CC0009081809109028F5F8F7320910A028217B1
:100CD00051F0E0910902F0E0E051FE4F958F8093D2
:100CE000090201C08081FF91EF919F918F912F9117
:100CF0000F900FBE0F901F9018951F920F920FB676
:100D00000F9211242F933F934F935F936F937F9391
:100D10008F939F93AF93BF93EF93FF9380EF91E0F7
:100D20000E944105FF91EF91BF91AF919F918F91EB
:100D30007F916F915F914F913F912F910F900FBED7
:100D40000F901F90189580EF91E00E94060521E01A
:100D5000892B09F420E0822F08951092F30110925C
:100D6000F20188EE93E0A0E0B0E08093F40190936C
:100D7000F501A093F601B093F7018BE891E0909311
:100D8000F1018093F00185EC90E09093FD01809358
:100D9000FC0184EC90E09093FF018093FE0180ECD5
:100DA00090E0909301028093000281EC90E0909398
:100DB00003028093020282EC90E0909305028093FC
:100DC000040286EC90E09093070280930602109252
:100DD000090210920A0210920B0210920C0208955E
:100DE00008950E9416040E94F0060E948800C3E342
:100DF000D5E00E94C8002097E1F30E943305F9CFA7
:100E0000CF92DF92EF92FF920F931F93CF93DF93D6
:100E10006C017A01EB01E60EF71E00E010E0CE1542
:100E2000DF0561F06991D601ED91FC910190F081AF
:100E3000E02DC6010995080F191FF1CFC801DF91F8
:100E4000CF911F910F91FF90EF90DF90CF90089579
:100E50006115710581F0DB010D900020E9F7AD010E
:100E600041505109461B570BDC01ED91FC9102806A
:100E7000F381E02D099480E090E008950C94280718
:100E8000DC01ED91FC910190F081E02D09948F92AD
:100E90009F92AF92BF92CF92DF92EF92FF920F9309
:100EA0001F93CF93DF93CDB7DEB7A1970FB6F8941A
:100EB000DEBF0FBECDBF7C01C42EE52FCB01D22EED
:100EC00019A221E02D1510F02AE0D22E8E010F5D1F
:100ED0001F4F8D2C912CA12CB12C6C2D7E2FA50198
:100EE00094010E9407088C2DD29E80191124015074
:100EF00011098A3014F4805D01C0895CF801808397
:100F0000211531054105510521F0C22EE32FCA01FB
:100F1000E4CFB801C7010E942807A1960FB6F89444
:100F2000DEBF0FBECDBFDF91CF911F910F91FF901C
:100F3000EF90DF90CF90BF90AF909F908F900895EB
:100F4000CF92DF92EF92FF920F931F93CF93DF9395
:100F5000EC016A017B012115310579F4E881F98101
:100F60000190F081E02D642FDF91CF911F910F91BF
:100F7000FF90EF90DF90CF9009942A303105E9F48B
:100F800077FF1AC06DE20E9440078C014427552765
:100F9000BA014C195D096E097F092AE0CE010E9451
:100FA0004707800F911FDF91CF911F910F91FF9005
:100FB000EF90DF90CF9008952AE0B701A601CE010F
:100FC000DF91CF911F910F91FF90EF90DF90CF9025
:100FD0000C9447079A01AB01662757FD6095762F61
:100FE0000C94A0072115310541F4DC01ED91FC9131
:100FF0000190F081E02D642F09940C9447079A0129
:10100000462F50E060E070E00C94F2070895A1E2F2
:101010001A2EAA1BBB1BFD010DC0AA1FBB1FEE1F72
:10102000FF1FA217B307E407F50720F0A21BB30BBD
:10103000E40BF50B661F771F881F991F1A9469F739
:1010400060957095809590959B01AC01BD01CF0195
:101050000895EE0FFF1F0590F491E02D0994F89488
:02106000FFCFC0
:1010620000008D02800001564D4450565F317C31A4
:101072005F564D4450560D0A0068656C6C6F2C200B
:10108200776F726C64210000000000A00200075616
:101092004D4450435F005F564D4450430D0A004596
:1010A20072726F723A20417474656D707420746F3D
:1010B20020736574206120726561642D6F6E6C7996
:1010C200207661726961626C65206F72206461745E
:1010D200612074797065206E6F7420737570706F03
:1010E200727465640D0A00000000008405000706A2
:0810F200051F05110562050050
:00000001FF
